:100000000C9463000C948B000C948B000C948B006C
:100010000C948B000C948B000C948B000C948B0034
:100020000C948B000C948B000C948B000C948B0024
:100030000C948B000C948B000C948B000C948B0014
:100040000C94EE060C948B000C948B000C948B009B
:100050000C948B000C948B000C948B000C948B00F4
:100060000C9438070C948B0000000000240027003B
:100070002A0000000000250028002B0000000000DE
:1000800023002600290004040404040404040202DA
:100090000202020203030303030301020408102007
:1000A0004080010204081020010204081020000012
:1000B0000008000201000003040700000000000027
:1000C00000005708200C11241FBECFEFD8E0DEBF80
:1000D000CDBF22E0A8EAB1E001C01D92AE3FB20759
:1000E000E1F711E0A0E0B1E0E6E4FDE102C0059037
:1000F0000D92A83AB107D9F710E0C2E6D0E004C0EB
:100100002197FE010E94950CC136D107C9F70E94C4
:1001100001090C94960E0C94000096E0899FD00182
:100120001124AB57BD4F90967C936E935F9791E0EF
:1001300091969C939197E091F202F091F302909145
:10014000F102992339F0309751F0811108C0809164
:10015000A1020994309719F05C968C91FACF08951A
:10016000CF92DF92EF92FF920F931F9396E0899FB9
:10017000F0011124EB57FD4F11A2278D30A1213042
:10018000310551F178F02230310509F451C02330A6
:10019000310509F452C01F910F91FF90EF90DF904D
:1001A000CF9008956623B9F361E070E00E948D005E
:1001B0002FB7F8948091190290911A02A0911B0216
:1001C000B0911C022FBF8093DD029093DE02A093BA
:1001D000DF02B093E002DFCF9FB7F894C09019021E
:1001E000D0901A02E0901B02F0901C029FBF009179
:1001F000DD021091DE022091DF023091E002C01A90
:10020000D10AE20AF30A0091EF021091F00230E005
:1002100020E00C151D052E053F0550F462E070E04E
:100220001F910F91FF90EF90DF90CF900C948D0075
:100230006111B1CF63E070E0F3CF70E060E0F0CF28
:1002400008950895AF92BF92CF92DF92EF92FF92FE
:100250000F931F93CF93DF936C017B018B01040FEE
:10026000151FEB015E01AE18BF08C017D10759F08A
:100270006991D601ED91FC910190F081E02DC601CC
:100280000995892B79F7C501DF91CF911F910F91C6
:10029000FF90EF90DF90CF90BF90AF9008958330A4
:1002A00081F028F4813099F08230A9F008958730E8
:1002B000A9F08830C9F08430B1F4809180008F7D3E
:1002C00003C0809180008F7780938000089584B56B
:1002D0008F7784BD089584B58F7DFBCF8091B0006A
:1002E0008F778093B00008958091B0008F7DF9CF13
:1002F000CF93DF93282F30E0F901E255FF4F84912F
:10030000F901E656FF4FD491F901EA57FF4FC49126
:10031000CC23A1F081110E944F01EC2FF0E0EE0FF1
:10032000FF1FE458FF4FA591B491EC91ED2381E0BC
:1003300090E009F480E0DF91CF91089580E090E0B3
:10034000FACF862F0C9478011F93CF93DF93282F39
:1003500030E0F901E255FF4F8491F901E656FF4F75
:10036000D491F901EA57FF4FC491CC23A9F0162F7D
:1003700081110E944F01EC2FF0E0EE0FFF1FEE58AD
:10038000FF4FA591B4918FB7F894EC91111108C06B
:10039000D095DE23DC938FBFDF91CF911F9108951D
:1003A000DE2BF8CF862F642F0C94A401CF93DF931C
:1003B00090E0FC01E656FF4F24918A579F4FFC01C5
:1003C00084918823C9F090E0880F991FFC01E859B7
:1003D000FF4FA591B491FC01EE58FF4FC591D49108
:1003E00061110DC09FB7F8948C91209582238C9356
:1003F0008881282328839FBFDF91CF9108956230A1
:1004000051F49FB7F8943C91822F809583238C936D
:10041000E8812E2BEFCF8FB7F894EC912E2B2C93F5
:100420008FBFEACF862F642F0C94D6016F927F92F4
:100430008F929F92AF92BF92CF92DF92EF92FF92F4
:100440000F931F93CF93DF9381E08093F1028FB7D7
:10045000F8944091190250911A0260911B02709118
:100460001C028FBF8091E1029091E202A091E30211
:10047000B091E402481B590B6A0B7B0B8091ED0293
:100480009091EE02B0E0A0E084179507A607B707A9
:1004900008F01DC1C0E08091EB02C81760F4E09144
:1004A000E702F091E802EC0FF11D62E080810E940A
:1004B000D601CF5FF0CF712C812C912C5401839405
:1004C0008091EC02781608F05FC0072D10E0E091F3
:1004D000E902F091EA02E00FF11F61E080810E94E1
:1004E000D601E091E902F091EA02E00FF11F60E02D
:1004F00080810E94A401D501C401072C04C0880F8B
:10050000991FAA1FBB1F0A94D2F76C017C01E094CB
:10051000F094612C8091EB026816F8F4C62DD0E0BF
:10052000E091E702F091E802EC0FFD1F80810E944C
:1005300078012496CC0FDD1FCB57DD4F892B41F47A
:10054000888199818C299D29998388836394E2CF3E
:10055000888199818E219F21F7CFE091E902F09166
:10056000EA02E00FF11F61E080810E94A401809106
:10057000E9029091EA02080F191F60E0F8018081FA
:100580000E94D60173949CCFC5E8D2E0FE018FEFA4
:100590009FEF278D30A1232B21F4148E968F858F0A
:1005A00011A2369622E0E13CF20799F7F12C96E091
:1005B000D92E8091EB02F81608F050C0E12C0F2DD7
:1005C00010E0000F111F03571D4F2091EC02E2169F
:1005D00008F042C0F801608171810E2C02C076954E
:1005E00067950A94E2F7F29E900111242E0D311DB9
:1005F000E5E8F2E080E0458D568D2417350709F4D3
:100600006AC08F5F36968A30B1F760FF23C0E5E895
:10061000F2E090E080E0448D411117C0E091E502E6
:10062000F091E602E20FF31F4081D89EF001D99EBF
:10063000F00D1124EB57FD4F448F368F258F10A2FC
:10064000178E61E00E94B00005C0019636968A3090
:10065000910509F7E394B9CFF394ABCF80E099A16A
:100660009111892F2696F2E0C13CDF07C1F79FB7B1
:10067000F8944091190250911A0260911B027091F6
:100680001C029FBF4093E1025093E2026093E30299
:100690007093E4028823D9F08091A6028823B9F0F0
:1006A0008091A4029091A502019789F48091A10202
:1006B000DF91CF911F910F91FF90EF90DF90CF903E
:1006C000BF90AF909F908F907F906F900895109201
:1006D000F10280E0EDCF6170B5CF3FB7F894809123
:1006E000ED019091EE01A091EF01B091F00126B5DE
:1006F000A89B05C02F3F19F00196A11DB11D3FBF5A
:10070000BA2FA92F982F8827BC01CD01620F711D28
:10071000811D911D42E0660F771F881F991F4A9522
:10072000D1F708958F929F92AF92BF92CF92DF92AE
:10073000EF92FF924B015C010E946D036B017C0103
:100740000E946D036C197D098E099F09683E7340F4
:1007500081059105A8F321E0821A9108A108B1084A
:1007600088EEC80E83E0D81EE11CF11C81149104B0
:10077000A104B10429F7FF90EF90DF90CF90BF90D4
:10078000AF909F908F9008952091C901260F332735
:10079000331F21323105ECF420914302FC0190E03B
:1007A00080E0243069F082E00895A091C901219190
:1007B000AC0147555E4FA40FB52FB11D2C93019688
:1007C000861798F38091C901680F6093C90180E092
:1007D000089581E008951092430281E080934202DF
:1007E00010921D0261E082E10E94A40161E083E1B8
:1007F0000E94A401E9EBF0E080818E7F80838081FC
:100800008D7F808388E48093B80085E48093BC006A
:100810000895CF93DF9391E09093A8018823B9F0D6
:10082000C091B800D091BA008091BC008A7B8093BF
:10083000BC0060E082E10E94A40160E083E10E94CC
:10084000A4010E94EB03D093BA00C093B800DF91DB
:10085000CF9108958F929F92AF92BF92CF92DF92E5
:10086000EF92FF920F931F93CF93DF93D0916C027F
:10087000D13208F0D7C0182FC0916B020E946D03CF
:100880006B017C018091430281116BC082E08093F7
:100890004302109342028FEF809341021092400274
:1008A000D0933F02ABE4B2E0EFE1F2E080E0D81396
:1008B00091C010921E0280911E02CC0FC82BC093D3
:1008C0001E0280911D02813009F088C010921D0225
:1008D0000E946D036B017C0180911E028093BB001E
:1008E0008091450290914602A0914702B091480242
:1008F000892B8A2B8B2BA1F00E946D03009145025E
:100900001091460220914702309148026C197D09EE
:100910008E099F09061717072807390708F442C0F0
:100920008091BC0083FDD8CF85EC8093BC000E94F1
:100930006D036B017C0180914302823009F450C049
:10094000809141028F3F09F46FC080914102803253
:1009500009F46CC080914102803309F469C084E0DD
:1009600026C08091450290914602A0914702B09125
:100970004802892B8A2B8B2B09F484CF0E946D03AC
:100980008090450290904602A0904702B0904802A5
:100990006C197D098E099F0986169706A806B90667
:1009A00008F070CF809144020E94090485E0109203
:1009B0004A0210926C0210924902DF91CF911F916E
:1009C0000F91FF90EF90DF90CF90BF90AF909F90EE
:1009D0008F9008959D9191938F5F69CF85EEA5CFFC
:1009E0008091450290914602A0914702B091480241
:1009F000892B8A2B8B2B09F49ECF0E946D030091CB
:100A000045021091460220914702309148026C192C
:100A10007D098E099F09061717072807390708F06F
:100A20008ACFC0CF81E0C3CF80E0C1CF82E0BFCF0B
:100A300083E0BDCF81E00C942A040895E091F60193
:100A40008091F501E81730F4F0E0E950FE4F808125
:100A500090E008958FEF9FEF08959091F6018091B7
:100A6000F5012FEF3FEF981748F4E92FF0E0E95038
:100A7000FE4F208130E09F5F9093F601C9010895F9
:100A80008091F5019091F601891B990B0895CF9201
:100A9000DF92EF92FF920F931F93CF93DF937C012E
:100AA000CB018A0120914902222389F0EB016B01DD
:100AB000C40ED51ECC15DD0569F06991D701ED9105
:100AC000FC910190F081E02DC7010995F3CF642FCF
:100AD0000E94C403C801DF91CF911F910F91FF9035
:100AE000EF90DF90CF900895CF93DF931F92CDB713
:100AF000DEB76983209149022223F9F020916C022C
:100B0000203258F021E030E0FC013383228390E072
:100B100080E00F90DF91CF91089580914A02E82FF5
:100B2000F0E0E55BFD4F998190838F5F80934A02EF
:100B300080936C0281E090E0ECCF61E0CE01019601
:100B40000E94C403F7CF682F8DE692E00C947405E1
:100B5000FC01248131E03093490220936B02109212
:100B60004A0210926C028385862B90E00E94A305B6
:100B70000C941A05089590E080E008950F931F9358
:100B8000CF938C01C62F0E94A8056C2F6460C8010A
:100B90000E94A8056C2F6B7FC8010E94A80583ECFA
:100BA00090E00197F1F7CF911F910F9108950F9366
:100BB0001F93CF93DF938C01D62FC42F607F642BBC
:100BC0000E94BE0580E1D89FB00111246C2BC801A2
:100BD000DF91CF911F910F910C94BE05CF93DF93BE
:100BE000CDB7DEB728970FB6F894DEBF0FBECDBFE6
:100BF00098E0E9E1F1E0DE01119601900D929A95FD
:100C0000E1F790918102961708F46FEF262F30E0FC
:100C1000220F331F41E050E04C0F5D1F240F351FA2
:100C2000F9016081680F606840E089E792E02896EA
:100C30000FB6F894DEBF0FBECDBFDF91CF910C94FD
:100C4000D70540E061E089E792E00E94D7058BE399
:100C50009FE10197F1F7089541E00E94D70581E0F7
:100C600090E00895FB0101900020E9F73197AF0172
:100C7000461B570BDC01ED91FC910280F381E02DC6
:100C80000994BC0189E792E00C94320681E08093DC
:100C900049028AE080936B0210924A0210926C0221
:100CA00069E471E08DE692E00E9432060C941A0528
:100CB0000F931F93CF93DF93EC0188819981009765
:100CC00059F02A813B812617370730F081E0DF9108
:100CD000CF911F910F9108958B016F5F7F4F0E94FD
:100CE000C00D009759F0998388831B830A832C8158
:100CF0003D81232B59F7FC011082E8CF80E0E7CF3C
:100D0000EF92FF920F931F93CF93DF93EC017B0140
:100D1000FB0101900020E9F731978F01061B170BAB
:100D2000B8010E94580628813981811113C021150C
:100D3000310519F0C9010E94370D198218821D82F0
:100D40001C821B821A82DF91CF911F910F91FF901D
:100D5000EF9008951D830C83B701C901DF91CF91F6
:100D60001F910F91FF90EF900C948F0E85ED809363
:100D7000BC008091450290914602A0914702B0913B
:100D800048020796A11DB11D23E0B695A79597953A
:100D900087952A95D1F72091BC0024FD03C01092BD
:100DA00043020895409145025091460260914702E6
:100DB00070914802452B462B472B69F30097A105FC
:100DC000B10541F025E32A95F1F700000197A1094B
:100DD000B109E1CF809144020C9409041F920F9253
:100DE0000FB60F9211242F933F938F939F93AF933E
:100DF000BF938091190290911A02A0911B02B091A9
:100E00001C023091EC0123E0230F2D3758F5019699
:100E1000A11DB11D2093EC018093190290931A0239
:100E2000A0931B02B0931C028091ED019091EE0102
:100E3000A091EF01B091F0010196A11DB11D809329
:100E4000ED019093EE01A093EF01B093F001BF91FB
:100E5000AF919F918F913F912F910F900FBE0F9067
:100E60001F90189526E8230F0296A11DB11DD2CF21
:100E70001F920F920FB60F9211242F933F934F930F
:100E80005F936F937F938F939F93AF93BF93EF93F2
:100E9000FF938091B900887F803609F44AC0F0F54D
:100EA000883209F4A7C018F5803109F49BC0B8F462
:100EB000882309F4F9C0883009F494C0FF91EF91B8
:100EC000BF91AF919F918F917F916F915F914F9162
:100ED0003F912F910F900FBE0F901F901895883162
:100EE00009F488C0803251F78093410214C08034E5
:100EF00009F49DC040F48033B9F38833F9F6809348
:100F0000410285ECB0C0803509F485C0883509F40C
:100F100096C0883499F60E94B606D0CF883909F475
:100F20008CC038F5883729F050F4883611F08037B6
:100F300029F683E0809343021092EB0157C0883872
:100F400009F47BC0803919F0803809F0B7CF80915F
:100F5000EB01803208F071C0E091EB0181E08E0F6F
:100F60008093EB018091BB00F0E0E553FE4F80835E
:100F70003DC0803B39F0E0F4803A09F479C0883A0A
:100F800009F09CCF84E0809343021092CA01109232
:100F9000C901E091F301F091F40109958091C90133
:100FA00081110FC081E08093C9011092A90109C08D
:100FB000803C09F4A6CF883C09F4A3CF883B09F014
:100FC0007DCFE091CA0181E08E0F8093CA01F0E0ED
:100FD000E755FE4F80818093BB009091CA018091BC
:100FE000C90129C080911E028093BB0085EC8093CB
:100FF000BC0064CF9091400280913F02981758F551
:10100000E091400281E08E0F80934002F0E0E15ECB
:10101000FD4F8081E9CFE091400281E08E0F809307
:1010200040028091BB00F0E0E15EFD4F8083909133
:10103000400280913F029817C8F285E8D8CFE0912E
:10104000400281E08E0F809340028091BB00F0E06F
:10105000E15EFD4F80838091420281115CCF81E08F
:1010600080931D0284EA8093BC001092430226CF35
:1010700085EC8093BC00109243028091EB0180329A
:1010800030F4E091EB01F0E0E553FE4F1082609107
:10109000EB0170E0E091F101F091F2018BEC91E055
:1010A00009951092EB010ACF1092410234CF1092B1
:1010B000700210926F0288EE93E0A0E0B0E080939F
:1010C000710290937202A0937302B093740285E24E
:1010D00091E090936E0280936D021092F50210924F
:1010E000F4021092F7021092F6021092F902109296
:1010F000F80270E060E084EF92E00E9458062091D0
:10110000F4023091F502811172C02115310519F0F8
:10111000C9010E94370D1092F5021092F40210924C
:10112000F9021092F8021092F7021092F602109251
:10113000870210928B0210928A0210928C0283E432
:1011400091E09093860280938502E1EAF2E01082BA
:10115000148213821582369682E0ED3DF807B9F7C6
:1011600083E091E09093E8028093E70280E091E0D1
:101170009093EA028093E90284E08093EB0293E08B
:101180009093EC0227E031E03093E6022093E502F1
:101190002AE030E03093EE022093ED0224EF31E0BC
:1011A0003093F0022093EF021092F3021092F202B9
:1011B0001092E1021092E2021092E3021092E40215
:1011C0001092F10210927C0210927B0227E331E030
:1011D00030937A022093790290E290937D0294E119
:1011E0009093820280938302109284020895109259
:1011F000F9021092F8026BE671E0C9010E948F0EAD
:1012000096CFCF93DF93CDB7DEB768970FB6F8943C
:10121000DEBF0FBECDBF789484B5826084BD84B537
:10122000816084BD85B5826085BD85B5816085BDE1
:1012300080916E00816080936E0010928100809199
:101240008100826080938100809181008160809321
:101250008100809180008160809380008091B10046
:1012600084608093B1008091B00081608093B00071
:1012700080917A00846080937A0080917A00826005
:1012800080937A0080917A00816080937A008091C7
:101290007A00806880937A001092C1001092F60163
:1012A0001092F50110924A0210926C020E94EB0318
:1012B00080E291E09093F4018093F30181E291E068
:1012C0009093F2018093F10110927E02809183024B
:1012D000823018F098E090937E028093810262E35E
:1012E00070E080E090E00E9492036091840289E7C0
:1012F00092E00E94A80568EE73E080E090E00E9412
:10130000920360E389E792E00E94BE050BE416E4D5
:10131000C8010197F1F760E389E792E00E94BE05FA
:10132000C8010197F1F760E389E792E00E94BE05EA
:1013300083E592E00197F1F760E289E792E00E948D
:10134000BE0560917E02606240E089E792E00E9403
:10135000D70584E080937F0240E06CE089E792E06B
:101360000E94D7050E94210682E08093800240E01F
:1013700066E089E792E00E94D70540E062E089E7F5
:1013800092E00E94D7058BE39FE10197F1F788E097
:101390008093840260E089E792E00E94A80560E003
:1013A00081E00E94EE0580E591E00E94410661E047
:1013B00081E00E94EE058BE591E00E94410681E00C
:1013C0008093490288E480936B0210924A02109243
:1013D0006C028CEA90E00E94A30590E080E00E94FD
:1013E000A30510924A0210926C028EEE90E00E94C9
:1013F000A3050E941A0565E0B62E70E0C72E70E0C6
:10140000D72E11E0E8E4AE2E99249A9445EE842E6E
:1014100055EC752E80911802882309F45BC10E9457
:1014200016028332E9F410921802109217026BE64A
:1014300071E084EF92E00E94800660E081E00E940B
:10144000EE0580E591E00E94410661E081E00E94A6
:10145000EE058BE591E00E9441060E9446060CC114
:1014600010934902A0926B0210924A0210926C02F1
:101470008AEA90E00E94A30580E00E942A040E946C
:101480006D031B012C0180914302811161C01093F7
:101490004302109342029092410210924002109334
:1014A0003F0210931E0280911E02806980931E02EB
:1014B00080911D02813009F0E6C010921D020E9449
:1014C0006D031B012C0180911E028093BB00809153
:1014D000450290914602A0914702B0914802892BA3
:1014E0008A2B8B2BA1F00E946D0320914502309135
:1014F00046024091470250914802621973098409DB
:101500009509261737074807590708F442C0809104
:10151000BC0083FDD8CF7092BC000E946D031B01FC
:101520002C0180914302813009F4B0C080914002C7
:10153000823008F0CDC080914002AFE1B2E0E7EF29
:10154000F1E090E0981751F12D9121939F5FFACF30
:101550008091450290914602A0914702B0914802C5
:10156000892B8A2B8B2B09F48ECF0E946D0320913F
:10157000450230914602409147025091480262195B
:10158000730984099509261737074807590708F092
:101590007ACF809144020E94090480E01092F60103
:1015A0008093F5018DE692E00E942D057C018DE689
:1015B00092E00E942D05EE0CFF1C880F892F881FDA
:1015C000990B8E299F291C8A1B8A1E8A1D8A188EB8
:1015D0001F8A4AE0BE016F5F7F4F9C01B29EC0012F
:1015E000B39E900D11240E94290CBE016F5F7F4FA6
:1015F000CE0143960E948006109349028AE08093B0
:101600006B0210924A0210926C026B897C89611500
:10161000710521F08DE692E00E9432060E941A05C3
:101620006CE271E080E090E00E9492030E9416025A
:101630008332E1F410921802109217026BE671E007
:1016400084EF92E00E94800660E081E00E94EE0557
:1016500080E591E00E94410661E081E00E94EE0594
:101660008BE591E00E9441060E9446068B899C8989
:10167000009711F00E94370DC114D10409F4CACEAD
:101680000E940000C3CE8092BC0047CF80914502EB
:1016900090914602A0914702B0914802892B8A2B73
:1016A0008B2B09F43ECF0E946D03209145023091AF
:1016B0004602409147025091480262197309840919
:1016C0009509261737074807590708F02ACF61CF31
:1016D00082E033CF0E941602082F8823D9F380912D
:1016E0001702882309F484C009831A82E090F80263
:1016F000F090F9023FEFE31AF30AB70184EF92E0AA
:101700000E945806882399F02091F4023091F50246
:101710008091F8029091F902BE016F5F7F4F820FB6
:10172000931F0E948F0EF092F902E092F80261E09E
:101730008091F8020E94EE0541E0602F89E792E077
:101740000E94D7050A3209F04FC08091F8029091AB
:10175000F902892BC1F164E671E08091F402909165
:10176000F5020E94860E892B71F56BE671E084EF1D
:1017700092E00E9480060E94210660E081E00E94C3
:10178000EE058CE691E00E94410661E081E00E9456
:10179000EE0587E791E00E94410610921702109330
:1017A0001802109349028AE080936B0210924A0259
:1017B00010926C026EE771E08DE692E00E943206B4
:1017C0000E941A0559CF6BE671E084EF92E00E9407
:1017D00080060E94210660E081E00E94EE0586E816
:1017E00091E00E94410648CF033209F045CF1DCE5B
:1017F00080911802882331F0033209F03DCF109216
:1018000018021BCE0A3269F40E94210660E081E0D2
:101810000E94EE058BE991E00E94410610931702A9
:101820002BCF60E081E00E94EE0580E591E00E9410
:10183000410661E081E00E94EE058BE591E0D1CFA9
:101840008091F4029091F502009711F00C94370DFD
:101850000895BB274A3031F4992322F4BDE29095D4
:1018600081959F4F0C94350CBB27FB015527AA2768
:10187000880F991FAA1FA41710F0A41B839550511D
:10188000B9F7A05DAA3308F0A95DA193009779F795
:10189000B111B1931192CB010C944E0CDC01FC01FF
:1018A000672F71917723E1F7329704C07C916D9394
:1018B00070836291AE17BF07C8F308952F923F92CD
:1018C0004F925F926F927F928F929F92AF92BF9250
:1018D000CF92DF92EF92FF920F931F93CF93DF93FC
:1018E000CDB7DEB7CA1BDB0B0FB6F894DEBF0FBE59
:1018F000CDBF09942A88398848885F846E847D84A6
:101900008C849B84AA84B984C884DF80EE80FD80A7
:101910000C811B81AA81B981CE0FD11D0FB6F8941D
:10192000DEBF0FBECDBFED010895EE0FFF1F059086
:10193000F491E02D09940F931F93CF93DF9382309E
:10194000910510F482E090E0E091FC02F091FD023C
:1019500030E020E0B0E0A0E0309799F421153105A7
:1019600009F44AC0281B390B24303105D8F58A8187
:101970009B816115710589F1FB0193838283FE01CF
:1019800011C0408151810281138148175907E0F04D
:101990004817590799F4109761F012960C93129713
:1019A00013961C933296CF01DF91CF911F910F9127
:1019B00008950093FC021093FD02F4CF2115310528
:1019C00051F04217530738F0A901DB019A01BD011C
:1019D000DF01F801C1CFEF01F9CF9093FD028093B1
:1019E000FC02CDCFFE01E20FF31F819391932250B1
:1019F000310939832883D7CF2091FA023091FB0235
:101A0000232B41F420911501309116013093FB02F4
:101A10002093FA0220911301309114012115310510
:101A200041F42DB73EB74091170150911801241B86
:101A3000350BE091FA02F091FB02E217F307A0F4F4
:101A40002E1B3F0B2817390778F0AC014E5F5F4F14
:101A50002417350748F04E0F5F1F5093FB02409349
:101A6000FA02819391939FCFF0E0E0E09CCFCF9377
:101A7000DF930097E9F0FC01329713821282A09164
:101A8000FC02B091FD02ED0130E020E01097A1F4DE
:101A900020813181820F931F2091FA023091FB0245
:101AA0002817390709F061C0F093FB02E093FA02AE
:101AB000DF91CF910895EA01CE17DF07E8F54A815B
:101AC0005B819E0141155105B1F7E901FB83EA8372
:101AD00049915991C40FD51FEC17FD0761F480811E
:101AE00091810296840F951FE901998388838281F1
:101AF00093819B838A83F0E0E0E012968D919C9124
:101B000013970097B9F52D913C911197CD0102964D
:101B1000820F931F2091FA023091FB022817390798
:101B200039F6309751F51092FD021092FC02B093F5
:101B3000FB02A093FA02BCCFD383C28340815181C0
:101B4000840F951FC817D90761F44E5F5F4F8881D6
:101B50009981480F591F518340838A819B819383C8
:101B600082832115310509F0B0CFF093FD02E09397
:101B7000FC029ECFFD01DC01C0CF13821282D7CFC1
:101B8000B0E0A0E0E6ECFDE00C94600C8C01009766
:101B900051F4CB010E949B0C8C01C801CDB7DEB77C
:101BA000E0E10C947C0CFC01E60FF71F9C01225035
:101BB0003109E217F30708F49DC0D901CD91DC91FA
:101BC0001197C617D70798F0C530D10530F3CE016D
:101BD00004978617970708F3C61BD70B2297C19364
:101BE000D1936D937C93CF010E94370DD6CF5B01CB
:101BF000AC1ABD0A4C018C0E9D1EA091FC02B09146
:101C0000FD02512C412CF12CE12C109731F58091E3
:101C1000FA029091FB028815990509F05CC04616FE
:101C2000570608F058C08091130190911401009755
:101C300041F48DB79EB74091170150911801841B54
:101C4000950BE817F90708F055C0F093FB02E093F5
:101C5000FA02F90171836083A0CF8D919C91119755
:101C600012966C90129713967C901397A815B9054D
:101C700059F56C0142E0C40ED11CCA14DB0420F1FA
:101C8000AC014A195B09DA011296159780F062825D
:101C9000738251834083D9016D937C93E114F104E5
:101CA00071F0D7011396FC93EE93129776CF22969C
:101CB0008C0F9D1FF90191838083F301EFCFF09387
:101CC000FD02E093FC0269CF4816590608F42C0186
:101CD0007D01D3019ACFCB010E949B0C7C01009720
:101CE00049F0AE01B8010E947D0EC8010E94370D77
:101CF000870153CF10E000E050CFFB01DC0102C0B0
:101D000001900D9241505040D8F70895FB01DC013D
:101D10008D91019080190110D9F3990B0895FB0161
:101D2000DC0101900D920020E1F7089510E0C2E679
:101D3000D0E004C0FE010E94950C2196C336D10765
:061D4000C9F7F894FFCF83
:101D46000908070D0C0B0A3132333435363738396A
:101D56002A30230000FE02800000004000140054D8
:101D6600000000000074054705BB051D0540052D54
:101D7600051E05000000002C062201BB05BA050061
:101D86000000001202D201A1014150414741520018
:101D96004341534120414359453100412D47303796
:101DA6002D5332003230323130372A004249454E07
:101DB60056454E49444F004120434153410041435B
:101DC6005449564152004552524F5220454E2043E7
:101DD6004F4E5452415345C3914100496E7365724B
:081DE6007420506173730000CA
:00000001FF
