:100000000C9457010C9488010C9488010C9488017D
:100010000C9488010C9488010C9488010C9488013C
:100020000C9488010C9488010C9488010C9488012C
:100030000C9488010C9488010C9488010C9488011C
:100040000C9488010C9488010C9488010C9488010C
:100050000C9488010C9488010C9488010C94490537
:100060000C9488010C9413050C94E9040C948801F9
:100070000C9488010C9488010C9488010C948801DC
:100080000C9488010C9488010C9488010C948801CC
:100090000C94B3040C9489040C9488010C9488018A
:1000A0000C9488010C9488010C9488010C948801AC
:1000B0000C9488010C9488010C9488010C9488019C
:1000C0000C9488010C9488010C9488010C9488018C
:1000D0000C9488010C9488010C9488010C9488017C
:1000E0000C9488010C9455030C949E020C940B0400
:1000F0000C94E0030C941B040C945F030C944804D0
:100100000C9420030C943A030C9470040C94410357
:100110000C94F7030C940F020C9439040C946703AD
:100120000C9451020C94B1010C9459030C94ED0100
:100130000C9425040C94DE010C9452040C945C0481
:100140000C94ED030C9432030C94D8050C94130416
:100150000C9436030C947A040C946D030C940104F3
:100160000C941B030C9471030C9401020C94E8038F
:100170000C9466040C9451030C944B030C944703A9
:100180000C943E030C942F040C9463030000210094
:10019000240027002A002D00300033000101000058
:1001A000040107010A0100002200250028002B009D
:1001B0002E003100340002010000050108010B018E
:1001C00000000A0B02090C0D0E08070304010000D1
:1001D000000000000000000000000000000000001F
:1001E00000000000000000000000000012111000DC
:1001F00000000000000000000000000000000000FF
:10020000000000000000000020002300260029005C
:100210002C002F003200000100000301060109013B
:1002200005050505070508080808020202020A0A72
:100230000808040404040101010101010101030390
:10024000030303030303040707070C0C0C0C0C0C3B
:100250000C0C0202020206060606060606060B0B38
:100260000B0B0B0B0B0B0102102020080810204079
:10027000102040800201020108040201010204086A
:1002800010204080804020100804020180040201F8
:100290008040201008040201080402010102040841
:1002A000102040800102040810204080D80511244D
:1002B0001FBECFEFD1E2DEBFCDBF00E00CBF12E02A
:1002C000A0E0B2E0E0E2F3E100E00BBF02C0079083
:1002D0000D92AE34B107D9F723E0AEE4B2E001C02D
:1002E0001D92A739B207E1F711E0C7E5D1E000E0C0
:1002F00006C021970109802FFE010E948609C6359C
:10030000D10780E00807A9F70E942B060C948E09FC
:100310000C940000FC01A089B18982E08C93A48533
:10032000B5851C92A685B7858FEC8C93108EA48919
:10033000B58986E08C93A289B3898C9180618C9376
:10034000A289B3898C9188608C93A289B3898C919E
:1003500080688C930288F389E02D80818F7D808373
:100360000895AF92BF92CF92DF92EF92FF920F93D8
:100370001F93CF93DF936C017B018B01040F151F3B
:10038000EB015E01AE18BF08C017D10759F06991A3
:10039000D601ED91FC910190F081E02DC6011995F7
:1003A000892B79F7C501DF91CF911F910F91FF90B4
:1003B000EF90DF90CF90BF90AF900895FC01538DE8
:1003C000448D252F30E0842F90E0821B930B54172F
:1003D00010F0CF96089501970895FC01918D828DBC
:1003E000981761F0A28DAE0FBF2FB11D5D968C9155
:1003F000928D9F5F9F73928F90E008958FEF9FEF94
:100400000895FC01918D828D981731F0828DE80F4F
:10041000F11D858D90E008958FEF9FEF0895FC0109
:10042000918D228D892F90E0805C9F4F821B9109D6
:100430008F73992708958DE592E00E940F0221E0C5
:10044000892B09F420E0822F08958AEF92E00E9420
:100450000F0221E0892B09F420E0822F0895FC018E
:10046000A48DA80FB92FB11DA35ABF4F2C91848D15
:1004700090E001968F739927848FA689B7892C9372
:10048000A089B1898C91837080648C93938D848DC5
:10049000981306C00288F389E02D80818F7D8083C8
:1004A0000895EF92FF920F931F93CF93DF93EC0188
:1004B00081E0888F9B8D8C8D98131AC0E889F9890B
:1004C000808185FF15C09FB7F894EE89FF8960830E
:1004D000E889F98980818370806480839FBF81E08F
:1004E00090E0DF91CF911F910F91FF90EF900895D1
:1004F000F62E0B8D10E00F5F1F4F0F731127E02EAC
:100500008C8D8E110CC00FB607FCFACFE889F989E3
:10051000808185FFF5CFCE010E942F02F1CFEB8DB8
:10052000EC0FFD2FF11DE35AFF4FF0829FB7F894B7
:100530000B8FEA89FB8980818062CFCFCF93DF93D5
:10054000EC01888D8823B9F0AA89BB89E889F989EB
:100550008C9185FD03C0808186FD0DC00FB607FC20
:10056000F7CF8C9185FFF2CF808185FFEDCFCE0153
:100570000E942F02E9CFDF91CF91089580E090E0B3
:10058000892B29F00E94250281110E94000080E041
:1005900090E0892B29F00E941B0281110E9400002B
:1005A00080E090E0892B49F080E090E0892B29F0F1
:1005B0000E94000081110E94000080E090E0892BE1
:1005C00049F080E090E0892B29F00E940000811121
:1005D0000C9400000895282F30E0F901E054FE4FFC
:1005E0009491F901EA59FD4F4491205E3D4FF90184
:1005F0002491222309F435C0992311F191509231AD
:10060000F8F4E92FF0E08827E75FFC4F8F4F0C9458
:1006100086093A033E031B033203360320034103DA
:1006200047034B035103550359035F03630320033F
:1006300067036D037103809180008F778093800042
:10064000E22FF0E0EE0FFF1FEA55FE4FA591B491A7
:100650008FB7F894EC91611148C040954E234C93AC
:100660008FBF0895809180008F7DE8CF80918000BA
:10067000877FE4CF84B58F7784BDE2CF84B58F7D4B
:10068000FBCF8091B0008F778093B000D9CF80915D
:10069000B0008F7DF9CF809190008F77809390008C
:1006A000CFCF809190008F7DF9CF80919000877F90
:1006B000F5CF8091A0008F778093A000C1CF80916B
:1006C000A0008F7DF9CF8091A000877FF5CF80912A
:1006D00020018F7780932001B3CF809120018F7DFF
:1006E000F9CF80912001877FF5CF4E2BB8CFCF93E4
:1006F000DF9390E0FC01EA59FD4F2491805E9D4F0D
:10070000FC0184918823D1F090E0880F991FFC01AF
:10071000E457FE4FA591B491FC01EA55FE4FC591F7
:10072000D49161110EC09FB7F8948C91E22FE0959F
:100730008E238C932881E223E8839FBFDF91CF91A2
:1007400008958FB7F894EC91E22BEC938FBFF6CF1E
:100750001F93CF93DF93182FEB0161E00E94770383
:10076000209739F460E0812FDF91CF911F910C9495
:10077000EB02CF3FD10511F461E0F5CFE12FF0E0BE
:10078000E054FE4FE491E150E23108F0B3C0F0E0F4
:100790008827E253FC4F8F4F0C948609E003E8034F
:1007A000ED03F70301047A040B0413041B0425046E
:1007B0002F043904480452047A045C04660470046B
:1007C00084B5806884BDC7BDDF91CF911F91089526
:1007D00084B5806284BDC8BDF7CF809180008068F9
:1007E00080938000D0938900C0938800EDCF8091E2
:1007F0008000806280938000D0938B00C0938A0039
:10080000E3CF80918000886080938000D0938D003A
:10081000C0938C00D9CF8091B00080688093B000E5
:10082000C093B300D1CF8091B00080628093B000BC
:10083000C093B400C9CF80919000806880939000ED
:10084000D0939900C0939800BFCF809190008062B0
:1008500080939000D0939B00C0939A00B5CF809175
:100860009000886080939000D0939D00C0939C007E
:10087000ABCF8091A00080688093A0008091A00001
:100880008F7B8093A000D093A900C093A8009CCF39
:100890008091A00080628093A000D093AB00C093B1
:1008A000AA0092CF8091A00088608093A000D0938E
:1008B000AD00C093AC0088CF809120018068809308
:1008C0002001D0932901C09328017ECF809120017F
:1008D000806280932001D0932B01C0932A0174CFB2
:1008E00080912001886080932001D0932D01C093D6
:1008F0002C016ACFC038D1050CF03ECF33CFFB01BD
:1009000001900020E9F73197AF01461B570B0C947B
:10091000B1011F920F920FB60F9211240BB60F92D6
:100920002F933F934F935F936F937F938F939F93F7
:10093000AF93BF93EF93FF938DE592E00E942F0258
:10094000FF91EF91BF91AF919F918F917F916F91A7
:100950005F914F913F912F910F900BBE0F900FBE63
:100960000F901F9018951F920F920FB60F9211249F
:100970000BB60F922F938F939F93EF93FF93E0917A
:100980006D02F0916E028081E0917302F091740229
:1009900082FD1DC09081809176028F5F8F732091C0
:1009A0007702821741F0E0917602F0E0E35AFD4FC2
:1009B000958F80937602FF91EF919F918F912F9168
:1009C0000F900BBE0F900FBE0F901F901895808157
:1009D000F2CF1F920F920FB60F9211240BB60F9207
:1009E0002F933F934F935F936F937F938F939F9337
:1009F000AF93BF93EF93FF938AEF92E00E942F0291
:100A0000FF91EF91BF91AF919F918F917F916F91E6
:100A10005F914F913F912F910F900BBE0F900FBEA2
:100A20000F901F9018951F920F920FB60F921124DE
:100A30000BB60F922F938F939F93EF93FF93E091B9
:100A40000A03F0910B038081E0911003F0911103F0
:100A500082FD1DC09081809113038F5F8F73209161
:100A60001403821741F0E0911303F0E0E650FD4FCC
:100A7000958F80931303FF91EF919F918F912F9109
:100A80000F900BBE0F900FBE0F901F901895808196
:100A9000F2CF1F920F920FB60F9211242F933F9314
:100AA0008F939F93AF93BF93809153029091540281
:100AB000A0915502B09156023091520223E0230FCB
:100AC0002D3758F50196A11DB11D20935202809338
:100AD000530290935402A0935502B0935602809112
:100AE0004E0290914F02A0915002B0915102019696
:100AF000A11DB11D80934E0290934F02A09350020E
:100B0000B0935102BF91AF919F918F913F912F91DF
:100B10000F900FBE0F901F90189526E8230F029696
:100B2000A11DB11DD2CFCF92DF92EF92FF920F9312
:100B30001F93E82FF92F05C0015011092109310930
:100B400061F1908196239417B9F305C00150110902
:100B50002109310911F1908196239413F7CFC12C0B
:100B6000D12CE12CF12C0AC08FEFC81AD80AE80A60
:100B7000F80A0C151D052E053F0579F080818623A6
:100B8000841791F36C2D7D2D8E2D9F2D1F910F912C
:100B9000FF90EF90DF90CF90089560E070E080E0EC
:100BA00090E01F910F91FF90EF90DF90CF9008950C
:100BB000EDE5F2E01382128248EE53E060E070E06F
:100BC000448355836683778384E092E091838083B6
:100BD0002DEC30E0358724872CEC30E037872687F2
:100BE00028EC30E0318B208B29EC30E0338B228BEA
:100BF0002AEC30E0358B248B2EEC30E0378B268BC3
:100C0000118E128E138E148EEAEFF2E0138212828E
:100C100044835583668377839183808385EC90E05A
:100C20009587848784EC90E09787868780EC90E0B6
:100C3000918B808B81EC90E0938B828B82EC90E0A7
:100C4000958B848B86EC90E0978B868B118E128E21
:100C5000138E148E0895CF93DF93CDB7DEB7A1978F
:100C60000FB6F894DEBF0FBECDBF789484B5826016
:100C700084BD84B5816084BD85B5826085BD85B540
:100C8000816085BD80916E00816080936E001092BE
:100C90008100809181008260809381008091810039
:100CA00081608093810080918000816080938000CA
:100CB0008091B10084608093B1008091B000816028
:100CC0008093B00080919100826080939100809128
:100CD0009100816080939100809190008160809369
:100CE00090008091A10082608093A1008091A1007A
:100CF00081608093A1008091A00081608093A0001A
:100D00008091210182608093210180912101816085
:100D10008093210180912001816080932001809146
:100D20007A00846080937A0080917A008260809358
:100D30007A0080917A00816080937A0080917A00B5
:100D4000806880937A001092C1008AEF92E00E943E
:100D50008A018DE592E00E948A0162E172E08DE5F0
:100D600092E00E947F0468E272E08DE592E00E94CA
:100D70007F0461E08DE00E94770360E08CE00E94D8
:100D8000770361E08BE00E94770361E08AE00E94D4
:100D9000770361E089E00E94770361E088E00E94C8
:100DA000770361E08EE00E94770361E08FE00E94AC
:100DB000770361E080E10E94770361E081E10E94B6
:100DC000770361E086E00E94770360E08EE00E9496
:100DD000EB0260E08FE00E94EB0260E080E10E94A5
:100DE000EB0260E081E10E94EB0260E086E00E949D
:100DF000EB0270E060E085E00E94A80370E060E034
:100E000084E00E94A80370E060E083E00E94A803F1
:100E100070E060E082E00E94A8039FE0292E312C60
:100E20002AE0822E912CA12CB12C60E08DE00E9452
:100E3000EB0283E090E00197F1F761E08DE00E9422
:100E4000EB02C1010197F1F760E08DE00E94EB0237
:100E5000E2E7F2E06491ECE2F2E08491E82FF0E066
:100E6000EE0FFF1FEA5FFD4F8591949100E412E4BD
:100E70002FE030E0462F0E94930561157105810532
:100E8000910529F06F5F7F4F8F4F9F4F9F702AE32F
:100E900030E040E050E00E94670929013A017A0100
:100EA0006901F4E0CF1AD108E108F10885E1C8161C
:100EB000D104E104F1040CF0D7C080915C028111EF
:100EC00006C06BE272E08AEF92E00E947F0410920B
:100ED0005B0210925A0211E01093590270E060E038
:100EE00085E00E94A80370E060E084E00E94A8030F
:100EF00070E060E083E00E94A80370E060E082E0C0
:100F00000E94A80360E08EE00E94EB0260E08FE0A8
:100F10000E94EB0260E080E10E94EB0260E081E170
:100F20000E94EB0261E086E00E94EB021092580200
:100F300010935C0263E372E08DE592E00E947F040F
:100F4000F7FEA6C06DE28DE592E00E94510224E01A
:100F500030E040E050E0241935094609570919A24C
:100F6000FE01B1967F01CA01B901A50194010E9459
:100F70004509605DF70162937F0121153105410547
:100F8000510589F7E114F10429F0B7018DE592E0EC
:100F90000E947F046FE372E08DE592E00E947F047F
:100FA00068E272E08DE592E00E947F048AEF92E0B1
:100FB0000E940F02181619060CF0ADC08AEF92E0DD
:100FC0000E94ED01182F63E472E08DE592E00E942B
:100FD0007F04612F8DE592E00E94510268E272E089
:100FE0008DE592E00E947F041F3609F067C01092E1
:100FF0005B0210925A021092590261E08BE00E944B
:10100000EB0260E08AE00E94EB0261E089E00E946E
:10101000EB0260E088E00E94EB0261E08EE00E945B
:10102000EB0261E08FE00E94EB0261E080E10E9450
:10103000EB0261E081E10E94EB028091570288237C
:1010400009F4BDC068EC70E085E00E94A80368EC7C
:1010500070E084E00E94A80368EC70E083E00E94E6
:10106000A80368EC70E0BCC010925C02809158024A
:10107000811109C06FE272E08AEF92E00E947F0462
:1010800081E08093580260E086E00E94EB0252CF3C
:10109000A701960119A2CE0181967C01CA01B9016E
:1010A000A50194010E944509605DF70162937F01EB
:1010B000211531054105510589F764CF133771F5C5
:1010C00010925B0210925A0281E08093590270E004
:1010D00060E085E00E94A80370E060E084E00E9488
:1010E000A80370E060E083E00E94A80370E060E085
:1010F00082E00E94A80360E08EE00E94EB0260E0C4
:101100008FE00E94EB0260E080E10E94EB0260E071
:1011100081E10E94EB020E94BE0287CE1C3409F0DE
:101120009BC070E060E084E00E94A80380915702B9
:1011300068EC70E0811102C062E370E085E00E941B
:10114000A80361E08EE00E94EB0260E08FE00E9465
:10115000EB0261E080E10E94EB0261E081E10E942C
:10116000EB0210925B0281E080935A0210925902C6
:10117000D2CF70E060E085E00E94A8038091570222
:1011800068EC70E0811102C062E370E084E00E94CC
:10119000A80360E08EE00E94EB0261E08FE00E9415
:1011A000EB0261E080E10E94EB0261E081E10E94DC
:1011B000EB0281E080935B0210925A02D7CF62E388
:1011C00070E085E00E94A80362E370E084E00E9482
:1011D000A80362E370E083E00E94A80362E370E08A
:1011E00082E00E94A80397CF1335C9F410925702EA
:1011F00080915B02811105C062E370E085E00E948E
:10120000A80380915A02811105C062E370E084E076
:101210000E94A8038091590281117DCFDACF163444
:1012200009F079CF81E08093570280915B028111B0
:1012300005C068EC70E085E00E94A80380915A0226
:10124000811105C068EC70E084E00E94A8038091E1
:101250005902811160CF00CF123509F48ACF1234C0
:1012600019F610925B0210925A021092590260E035
:101270008BE00E94EB0261E08AE00E94EB0260E0FA
:1012800089E00E94EB0261E0C5CEA1E21A2EAA1B02
:10129000BB1BFD010DC0AA1FBB1FEE1FFF1FA21726
:1012A000B307E407F50720F0A21BB30BE40BF50B23
:1012B000661F771F881F991F1A9469F760957095AC
:1012C000809590959B01AC01BD01CF010895052E3D
:1012D00097FB1EF400940E947E0957FD07D00E94E0
:1012E000450907FC03D04EF40C947E0950954095B7
:1012F000309521953F4F4F4F5F4F089590958095C2
:10130000709561957F4F8F4F9F4F0895EE0FFF1F90
:10131000881F8BBF0790F691E02D1994F894FFCFAA
:10132000000000005102B101DE019E020F02ED013A
:101330000102436F6D756E69636163696F6E204969
:101340006E696369616461000D0A004D4D4D004E88
:101350004E4E0044697374616E6369613A200020E7
:0E136000636D00526563696269646F3A200034
:00000001FF
