:020000040000FA
:100000000C9448020C94570D0C942C0D0C94010D7B
:100010000C94D60C0C94AB0C0C94800C0C94550CDA
:100020000C942A0C0C9479020C9479020C947902A9
:100030000C9479020C9479020C9479020C94790254
:100040000C9479020C9479020C9479020C94790244
:100050000C9479020C9479020C9479020C94E00BC4
:100060000C9479020C9479020C9479020C94790224
:100070000C9479020C9479020C9479020C94790214
:100080000C9479020C9479020C9479020C94790204
:100090000C94AA0B0C94800B0C9479020C947902AA
:1000A0000C9479020C9479020C9479020C947902E4
:1000B0000C9479020C9479020C9479020C947902D4
:1000C0000C9479020C9479020C9479020C947902C4
:1000D0000C9479020C9479020C9479020C947902B4
:1000E0000C9479020C9408060C9412040C94DB0313
:1000F0000C94E8030C9400040C9463100C94DA053F
:100100000C94D7030C94F2030C94C6050C94B7021C
:100110000C94A8020C94D3030C9411030C94CD03FB
:100120000C943C0B0C9415060C94CB020C94D90245
:100130000C94DF030C940E040C94930D0C94E203C6
:100140000C94FC050C94F6030C94180B0C94E70526
:100150000C947B020C9404040C94FA030C94F405A4
:100160000C94EC030C9408040C940D040C942206DB
:100170000C94CE050C945E030C942A0B0000210015
:10018000240027002A002D00300033000101000068
:10019000040107010A0100002200250028002B00AD
:1001A0002E003100340002010000050108010B019E
:1001B000000020002300260029002C002F00320020
:1001C00000010000030106010901050505050705F9
:1001D00008080808020202020A0A080804040404C3
:1001E00001010101010101010303030303030303EF
:1001F000040707070C0C0C0C0C0C0C0C020202027E
:1002000006060606060606060B0B0B0B0B0B0B0B66
:100210000102102020080810204010204080020118
:1002200002010804020101020408102040808040FD
:1002300020100804020180040201804020100804FC
:10024000020108040201010204081020408001029A
:1002500004081020408000000A0B02090C0D0E0853
:10026000070304010000000000000000000000007F
:10027000000000000000000000000000000000007E
:10028000000012111000000000000000000000003B
:10029000000000000000000000000000007CFE9252
:1002A0008AFE7C00008088FEFE80800000C4E6A2FA
:1002B000929E8C000044C69292FE6C00003028246E
:1002C000FEFE2000004ECE8A8AFA7200007CFE926A
:1002D00092F66400000606E2FA1E0600006CFE922A
:1002E00092FE6C00004CDE9292FE7C000040E8A87A
:1002F000A8F8F00000FEFE9090F060000070F88812
:1003000088D850000060F09090FEFE000070F8A8C1
:10031000A8B830000020FCFE222604000018BCA46F
:10032000A4FC7C0000FEFE1010F0E000000080F451
:10033000F48000000060E080FA7A000000FEFE20F9
:1003400070D88800000000FEFE00000000F8F830C1
:10035000E030F8F800F8F81818F8F0000070F888A5
:1003600088F8700000FCFC24243C180000183C2491
:10037000FCFC80C000F8F808083830000090A8A8FD
:10038000A8A84800001010FCFC1010000078F880AD
:1003900080F8F800003070C0C07030000078F8803D
:1003A000F080F8780088D87070D888000018B8A05D
:1003B000A0F878000000C8E8B898000000FCFE1221
:1003C00012FEFC0000FEFE9292FE6C00007CFE829B
:1003D00082C6440000FEFE8282FE7C0000FEFE9289
:1003E0009292820000FEFE1212120200007CFE8237
:1003F000A2E6640000FEFE1010FEFE00000082FE79
:10040000FE8200000060E082FE7E020000FEFE38F8
:100410006CC6820000FEFE808080800000FEFE0C24
:10042000180CFEFE00FEFE0C1830FEFE007CFE8264
:1004300082FE7C0000FEFE22223E1C00003C7E422A
:1004400062FEBC0000FEFE3272DE8C00004CDE92CA
:1004500092F66400000602FEFE020600007EFE80A8
:1004600080FEFE00003E7EC0C07E3E0000FEFE60BC
:100470003060FEFE00C6EE381038EEC6000E1EF0EC
:10048000F01E0E0000C2E2B29A8E8600930D631039
:1004900011241FBECFEFD1E2DEBFCDBF00E00CBF05
:1004A00023E0ACECB2E001C01D92AE3FB207E1F731
:1004B00012E0A0E0B2E0EEE8F5E200E00BBF02C01F
:1004C00007900D92AC3CB107D9F712E0C7E4D2E037
:1004D00000E006C021970109802FFE010E948310D1
:1004E000C634D10780E00807A9F70E94000E0C94DB
:1004F000B5120C940000AF92BF92CF92DF92EF92B0
:10050000FF920F931F93CF93DF936C017B018B01BD
:10051000040F151FEB015E01AE18BF08C017D1070D
:1005200059F06991D601ED91FC910190F081E02D97
:10053000C6011995892B79F7C501DF91CF911F91DC
:100540000F91FF90EF90DF90CF90BF90AF90089504
:10055000FC01538D448D252F30E0842F90E0821BC9
:10056000930B541710F0CF96089501970895FC014E
:10057000918D828D981761F0A28DAE0FBF2FB11DA6
:100580005D968C91928D9F5F9F73928F90E00895FE
:100590008FEF9FEF0895FC01918D828D981731F0B8
:1005A000828DE80FF11D858D90E008958FEF9FEF0C
:1005B0000895FC01918D228D892F90E0805C9F4FE2
:1005C000821B91098F739927089586ED92E00E940E
:1005D000D90221E0892B09F420E0822F0895FC0143
:1005E000A48DA80FB92FB11DA35ABF4F2C91848D94
:1005F00090E001968F739927848FA689B7892C93F1
:10060000A089B1898C91837080648C93938D848D43
:10061000981306C00288F389E02D80818F7D808346
:100620000895EF92FF920F931F93CF93DF93EC0106
:1006300081E0888F9B8D8C8D98131AC0E889F98989
:10064000808185FF15C09FB7F894EE89FF8960838C
:10065000E889F98980818370806480839FBF81E00D
:1006600090E0DF91CF911F910F91FF90EF9008954F
:10067000F62E0B8D10E00F5F1F4F0F731127E02E2A
:100680008C8D8E110CC00FB607FCFACFE889F98962
:10069000808185FFF5CFCE010E94EF02F1CFEB8D77
:1006A000EC0FFD2FF11DE35AFF4FF0829FB7F89436
:1006B0000B8FEA89FB8980818062CFCFCF93DF9354
:1006C000EC01888D8823B9F0AA89BB89E889F9896A
:1006D0008C9185FD03C0808186FD0DC00FB607FC9F
:1006E000F7CF8C9185FFF2CF808185FFEDCFCE01D2
:1006F0000E94EF02E9CFDF91CF91089580E090E072
:10070000892B49F080E090E0892B29F00E940000BD
:1007100081110E94000080E090E0892B29F00E9466
:10072000E50281110E94000080E090E0892B49F0F1
:1007300080E090E0892B29F00E94000081110E9446
:10074000000080E090E0892B49F080E090E0892B68
:1007500029F00E94000081110C940000089581503E
:10076000823108F05AC0E82FF0E08827E554FC4FAA
:100770008F4F0C948310DB03DF03CD03D303D70328
:100780000D04E203E803EC03F203F603FA030004AA
:1007900004040D0408040E041204809180008F7775
:1007A000809380000895809180008F7DF9CF8091A3
:1007B0008000877FF5CF84B58F7784BD089584B599
:1007C0008F7DFBCF8091B0008F778093B00008952C
:1007D0008091B0008F7DF9CF809190008F778093CA
:1007E00090000895809190008F7DF9CF80919000C6
:1007F000877FF5CF8091A0008F778093A000089528
:100800008091A0008F7DF9CF8091A000877FF5CFE8
:10081000809120018F77809320010895809120019D
:100820008F7DF9CF80912001877FF5CFCF93DF9324
:10083000282F30E0F901EA5AFD4F8491F901E05F79
:10084000FD4FD491F901E653FE4FC491CC23A1F0A2
:1008500081110E94AF03EC2FF0E0EE0FFF1FE05577
:10086000FE4FA591B491EC91ED2381E090E009F465
:1008700080E0DF91CF91089580E090E0FACF1F9360
:10088000CF93DF93282F30E0F901EA5AFD4F84918E
:10089000F901E05FFD4FD491F901E653FE4FC49199
:1008A000CC23A9F0162F81110E94AF03EC2FF0E0AA
:1008B000EE0FFF1FEA56FE4FA591B4918FB7F89443
:1008C000EC91111108C0D095DE23DC938FBFDF912E
:1008D000CF911F910895DE2BF8CF8330910509F455
:1008E00052C034F48130910559F0029761F10895B6
:1008F0008430910509F45DC0059709F475C0089529
:1009000060E08091CE030E943F0461E08091D003BB
:100910000E943F0461E08091D2030E943F0460E0A6
:100920008091D4030E943F0460E08091D6030E942E
:100930003F0460E08091D8030E943F0460E0809112
:10094000DA030C943F0461E08091CE030E943F04DF
:1009500061E08091D0030E943F0460E08091D20367
:100960000E943F0461E08091D4030E943F0461E053
:100970008091D6030E943F0460E08091D8030E94DA
:100980003F0461E0DCCF61E08091CE030E943F0430
:1009900061E08091D0030E943F0461E08091D20326
:1009A0000E943F0461E08091D4030E943F0460E014
:1009B000DFCF60E08091CE030E943F0461E0809130
:1009C000D0030E943F0461E08091D2030E943F0463
:1009D00060E08091D4030E943F0460E08091D603E0
:1009E0000E943F0461E0C9CF61E08091CE030E9484
:1009F0003F0460E08091D0030E943F0461E0809159
:100A0000D2030E943F0461E0E4CFCF93DF9390E0F4
:100A1000FC01E05FFD4F249186539E4FFC018491C1
:100A20008823D1F090E0880F991FFC01E458FE4F15
:100A3000A591B491FC01EA56FE4FC591D491611184
:100A40000EC09FB7F8948C91E22FE0958E238C9383
:100A50002881E223E8839FBFDF91CF9108958FB76C
:100A6000F894EC91E22BEC938FBFF6CF863308F02D
:100A7000865320917B00982F9870277F922B90931C
:100A80007B008770806480937C0080917A00806412
:100A900080937A0080917A0086FDFCCF8091780067
:100AA0009091790008953FB7F8948091D102909188
:100AB000D202A091D302B091D40226B5A89B05C062
:100AC0002F3F19F00196A11DB11D3FBFBA2FA92FCD
:100AD000982F8827BC01CD01620F711D811D911DCA
:100AE00042E0660F771F881F991F4A95D1F7089536
:100AF0008F929F92AF92BF92CF92DF92EF92FF922E
:100B00006B017C010E9453054B015C01C114D104AF
:100B1000E104F104B9F00E945305681979098A09C2
:100B20009B09683E73408105910580F321E0C21A5C
:100B3000D108E108F10888EE880E83E0981EA11C18
:100B4000B11CE4CFFF90EF90DF90CF90BF90AF90BB
:100B50009F908F900895E82FF0E0DF01AA0FBB1F50
:100B6000A050BE4F11967C936E93883008F069C0F8
:100B70008827E254FA4F8F4F0C948310F405FC053C
:100B8000C605CE05DA05E705080615068091690059
:100B90008C7F482B40936900E89A08958091690002
:100BA000837F440F551F440F551F482B4093690006
:100BB000E99A0895809169008F7C74E0440F551F75
:100BC0007A95E1F7482B40936900EA9A089580915D
:100BD00069008F7366E0440F551F6A95E1F7482B53
:100BE00040936900EB9A089580916A008C7F482BAE
:100BF00040936A00EC9A089580916A00837F440FC5
:100C0000551F440F551F482B40936A00ED9A0895D5
:100C100080916A008F7C24E0440F551F2A95E1F7EC
:100C2000482B40936A00EE9A089580916A008F7372
:100C300096E0440F551F9A95E1F7482B40936A00C0
:100C4000EF9A08950895CF92DF92EF92FF920F935B
:100C50001F93CF93DF931F921F92CDB7DEB76983A7
:100C60004A83880F991F0091C9031091CA03000F8E
:100C7000111FE3E7F3E09F012357334020173107AB
:100C800014F41192F8CF2981FC01ED58FC4F218317
:100C90008A81808360E08091C7030E943F04101620
:100CA000110604F501501109F801ED58FC4FE080E0
:100CB000D090C503C090C30388E0F82E6E2D661F48
:100CC0006627661F8C2D0E943F04EE0C61E08D2D7F
:100CD0000E943F0460E08D2D0E943F04FA94F110C1
:100CE000EDCFDDCF61E08091C7030F900F90DF91D2
:100CF000CF911F910F91FF90EF90DF90CF900C94C8
:100D00003F04EF92FF921F93CF93DF932091C9038B
:100D10003091CA0382179307B4F4EC0123E0880FE3
:100D2000991F2A95E1F79C012D573C4F790111E05D
:100D3000F70111927F0140E0612FCE010E9423064E
:100D40001F5F1930A9F7DF91CF911F91FF90EF90AE
:100D50000895CF93DF93D0E0C0E08091C9039091D4
:100D6000CA03C817D9072CF4CE010E948106219628
:100D7000F4CFDF91CF9108952F923F924F925F92DF
:100D80006F927F928F929F92AF92BF92CF92DF929B
:100D9000EF92FF920F931F93CF93DF9300D000D079
:100DA00000D01F92CDB7DEB78B0198E0E7E1F2E00B
:100DB000DE01119601900D929A95E1F79FEB980F45
:100DC0009A3138F528E08202C0011124DE01119623
:100DD00030E020E08C549E4FFC01E20FF31FE491C1
:100DE000ED932F5F3F4F28303105B1F78091CB0352
:100DF0008111AAC0F12CE12CB8016E0D7F1D90E08D
:100E000080E0683071050CF45FC00196685071098C
:100E1000F8CF9FE9980F9A31A8F448E08402C00106
:100E20001124DE01119630E020E08C519040FC014D
:100E3000E20FF31FE491ED932F5F3F4F2830310510
:100E4000B1F7D4CF90ED980F9A30A8F458E085020E
:100E5000C0011124DE01119630E020E0845E9E4F37
:100E6000FC01E20FF31FE491ED932F5F3F4F283019
:100E70003105B1F7BBCF803249F419821A821B8247
:100E80001C821D821E821F821886B0CF8A3209F40E
:100E9000ADCF833251F494E29A838EE78B838C83B7
:100EA0009D838E838F839887A1CF8D3241F488E311
:100EB0008A838B838C838D838E838F83E5CF8F355D
:100EC00009F094CF80ECF4CF2091C9033091CA038C
:100ED0008217930704F568307105A8F4E1E0F0E0AB
:100EE000EC0FFD1FEE0DFF1D4081FC0153E0EE0FE6
:100EF000FF1F5A95E1F7ED58FC4FE60FF71F408BA7
:100F00006F5F0E9423066FEFE61AF60A78E0E71695
:100F1000F10409F071CF2A960FB6F894DEBF0FBE28
:100F2000CDBFDF91CF911F910F91FF90EF90DF9098
:100F3000CF90BF90AF909F908F907F906F905F9079
:100F40004F903F902F9008952090C9033090CA038E
:100F500081E0281A310893E0220C331C9A95E1F7BE
:100F6000201A310A88E090E020E8422E512C37E028
:100F7000632E712C4091C9035091CA038A0101501C
:100F800011094130510511F401E010E09101281BD5
:100F9000390B37FF05C001501109285F3F4FF9CFCA
:100FA0000F3F6FEF16070CF4B6CFBC01615071090B
:100FB0007B010F3F100709F44AC0041715070CF016
:100FC00046C0283031050CF042C0E1E0F0E0EC0F03
:100FD000FD1FEE0DFF1DA080480183E0880C991CC9
:100FE0008A95E1F7C20102C0959587952A95E2F7A7
:100FF0008987282F20952A87D12CC12CB12C80914C
:10100000C9039091CA0308171907D4F4F401EC0D31
:10101000FD1DED58FC4F808993012C193D09A50158
:1010200002C0559547952A95E2F740FF15C05985AE
:10103000852B808B408961E06C0DC8010E942306DE
:101040007FEFC71AD70A88E0C816D104C1F6C701D6
:10105000009709F08FCF5FCF6A858623EACFFC0126
:1010600001900020E9F73197AF01481B590BBC01F3
:1010700086ED92E00C947B02CF93DF93E2EEF3E0F7
:10108000448155816081718186ED92E00E947B02EE
:10109000EC0181E392E00E942F088C0F9D1FDF91ED
:1010A000CF910895CF93DF930E942F08EC0181E345
:1010B00092E00E942F088C0F9D1FDF91CF91089521
:1010C0004F925F926F927F929F92AF92BF92CF9218
:1010D000DF92EF92FF920F931F93CF93DF938C01D8
:1010E000962E81E08093CC03E80109900020E9F777
:1010F0002197C01BD10B73E0CC0FDD1F7A95E1F770
:10110000F12CE12CE8EECE2EE3E0DE2EF8ECAF2E53
:10111000B12CEC16FD0664F5F80101900020E9F70A
:1011200031973F01601A710A8091CD0361147104F7
:10113000C9F0811119C0F80101900020E9F7319739
:10114000C30163E0880F991F6A95E1F7B701681B37
:10115000790BE619F70980810E94BC0621E0621A2A
:101160007108E2CF8823B1F00E94A9061092CD0346
:101170001092CC03DF91CF911F910F91FF90EF90D0
:10118000DF90CF90BF90AF909F907F906F905F90D7
:101190004F900895892D0E94360584569109880F35
:1011A000991F893E93400CF442C0892D0E94360558
:1011B0008D579109880F991F893E934094F1892D8D
:1011C0000E94360586599109880F991F893E9340E0
:1011D000A4F5892D0E94360586599109880F991F1B
:1011E0002601481A590A052C000C660877088091D8
:1011F000CE039091CF03019661F0892D0E943605B0
:1012000084569109B5010E946F10CB0101960E948E
:101210006D04C301B2010E9478058FEFE81AF80A45
:1012200078CF892D0E9436058D579109D7CF892D0A
:101230000E94360584569109D1CF8AE0482E512C60
:10124000612C712CD4CF2F923F925F926F927F923C
:101250008F929F92AF92BF92CF92DF92EF92FF92C6
:101260000F931F93CF93DF938C01562E81E08093D1
:10127000CC03C091C903D091CA0363E0CC0FDD1F3A
:101280006A95E1F7F80101900020E9F731973801FC
:101290006E1A7F0A73E0660C771C7A95E1F7E8EE28
:1012A000EE2EE3E0FE2EF8EC2F2E312C6C167D0690
:1012B0001CF56E014801F80101900020E9F7319713
:1012C000E01BF10B8091CD039401201B310B2E17F5
:1012D0003F0760F481110CC0B601F40181914F0108
:1012E0000E94BC06F8E0CF0ED11CE5CF8823C1F0E8
:1012F0000E94A9061092CD031092CC03DF91CF91EA
:101300001F910F91FF90EF90DF90CF90BF90AF9023
:101310009F908F907F906F905F903F902F90089557
:10132000852D0E94360584569109880F991F893EA4
:1013300093400CF440C0852D0E9436058D579109CD
:10134000880F991F893E934084F1852D0E943605B0
:1013500086599109880F991F893E934094F5852DF0
:101360000E94360586599109880F991F4701881AEE
:10137000990A092C000CAA08BB088091CE03909111
:10138000CF03019661F0852D0E94360584569109A0
:10139000B1010E946F10CB0101960E946D04C5013E
:1013A000B4010E947805219781CF852D0E943605D2
:1013B0008D579109D9CF852D0E9436058456910904
:1013C000D3CF8AE0882E912CA12CB12CD6CF7F923E
:1013D0008F929F92AF92BF92CF92DF92EF92FF9245
:1013E0000F931F93CF93DF93EC01762E81E08093D0
:1013F000CC038E0168EEE62E63E0F62E78ECC72E65
:10140000D12CFE0101900020E9F73197EC1BFD0B78
:10141000C8018C1B9D0B8E179F0740F48091CD0354
:101420008823A1F00E94A9061092CD031092CC034C
:10143000DF91CF911F910F91FF90EF90DF90CF90B0
:10144000BF90AF909F908F907F90089570E060E084
:10145000F80181918F010E94BC06872D0E943605FC
:1014600084569109880F991F893E93400CF43FC020
:10147000872D0E9436058D579109880F991F893E47
:1014800093407CF1872D0E94360586599109880F7B
:10149000991F893E93408CF5872D0E943605865909
:1014A0009109880F991F4701881A990A092C000C85
:1014B000AA08BB088091CE039091CF03019661F0FA
:1014C000872D0E94360584569109B6010E946F103F
:1014D000CB0101960E946D04C501B4010E947805FC
:1014E00090CF872D0E9436058D579109DACF872D31
:1014F0000E94360584569109D4CF8AE0882E912C1B
:10150000A12CB12CD7CFFC0180819181009711F0E3
:101510000C943B1108950F931F93CF93DF93EC012D
:1015200088819981009759F02A813B8126173707D6
:1015300030F081E0DF91CF911F910F9108958B01E1
:101540006F5F7F4F0E94C411009759F09983888381
:101550001B830A832C813D81232B59F7FC011082C8
:10156000E8CF80E0E7CF0F931F93CF93DF931F92D5
:101570001F92CDB7DEB789831A820091E0031091E4
:10158000E1030F5F1F4FB8018CED93E00E948B0ABF
:101590008823A1F02091DC033091DD038091E003EA
:1015A0009091E103BE016F5F7F4F820F931F0E94F6
:1015B000AE121093E1030093E00381E00F900F90CF
:1015C000DF91CF911F910F910895EF92FF920F93AA
:1015D0001F93CF93DF93EC017B018A01BA010E9434
:1015E0008B0A28813981811114C02115310519F028
:1015F000C9010E943B11198218821D821C821B8224
:101600001A82CE01DF91CF911F910F91FF90EF9041
:1016100008951D830C83B701C9010E94AE12F1CF5A
:1016200050E040E063E372E08CED93E00C94E50A57
:1016300084E392E00E9452080E94100B1092100264
:101640008091CC03882321F081E08093CD0308951D
:101650000C94A9068BE492E00E9452080E94100BA1
:10166000109210028091CC03882321F081E08093B6
:10167000CD0308950C94A9068091D50291E08927A5
:101680008093D502882381F08DE592E00E94520874
:101690000E94100B81E0809310029091CC0399235B
:1016A00031F08093CD03089587E792E0EFCF0C945B
:1016B000A9066091DC037091DD036115710559F095
:1016C0004091E0035091E10382EE93E00E94E50A2D
:1016D00082EE93E008958091E2039091E3030097F6
:1016E00011F00E943B111092E3031092E20310925A
:1016F000E7031092E6031092E5031092E403E8CFAB
:101700001F920F920FB60F9211240BB60F922F93C8
:101710003F934F935F936F937F938F939F93AF9379
:10172000BF93EF93FF9386ED92E00E94EF02FF914B
:10173000EF91BF91AF919F918F917F916F915F9149
:101740004F913F912F910F900BBE0F900FBE0F90B6
:101750001F9018951F920F920FB60F9211240BB67F
:101760000F922F938F939F93EF93FF93E091E60255
:10177000F091E7028081E091EC02F091ED0282FDB0
:101780001DC090818091EF028F5F8F732091F002D6
:10179000821741F0E091EF02F0E0EA52FD4F958FA1
:1017A0008093EF02FF91EF919F918F912F910F9076
:1017B0000BBE0F900FBE0F901F9018958081F2CF37
:1017C0001F920F920FB60F9211242F933F938F9376
:1017D0009F93AF93BF938091CD029091CE02A09141
:1017E000CF02B091D0023091CC0223E0230F2D37ED
:1017F00058F50196A11DB11D2093CC028093CD0216
:101800009093CE02A093CF02B093D0028091D102E8
:101810009091D202A091D302B091D4020196A11D61
:10182000B11D8093D1029093D202A093D302B093C2
:10183000D402BF91AF919F918F913F912F910F90C3
:101840000FBE0F901F90189526E8230F0296A11D3A
:10185000B11DD2CF1F920F920FB60F9211240BB66B
:101860000F922F933F934F935F936F937F938F9339
:101870009F93AF93BF93EF93FF93E0910E02F0918C
:101880000F021995FF91EF91BF91AF919F918F91A9
:101890007F916F915F914F913F912F910F900BBE70
:1018A0000F900FBE0F901F9018951F920F920FB6BA
:1018B0000F9211240BB60F922F933F934F935F9388
:1018C0006F937F938F939F93AF93BF93EF93FF9308
:1018D000E0910C02F0910D021995FF91EF91BF91EB
:1018E000AF919F918F917F916F915F914F913F91B8
:1018F0002F910F900BBE0F900FBE0F901F90189559
:101900001F920F920FB60F9211240BB60F922F93C6
:101910003F934F935F936F937F938F939F93AF9377
:10192000BF93EF93FF93E0910202F09103021995A8
:10193000FF91EF91BF91AF919F918F917F916F91A7
:101940005F914F913F912F910F900BBE0F900FBE63
:101950000F901F9018951F920F920FB60F9211249F
:101960000BB60F922F933F934F935F936F937F9399
:101970008F939F93AF93BF93EF93FF93E0910002F8
:10198000F09101021995FF91EF91BF91AF919F9155
:101990008F917F916F915F914F913F912F910F9018
:1019A0000BBE0F900FBE0F901F9018951F920F92B5
:1019B0000FB60F9211240BB60F922F933F934F93B4
:1019C0005F936F937F938F939F93AF93BF93EF93A7
:1019D000FF93E0910A02F0910B021995FF91EF91AC
:1019E000BF91AF919F918F917F916F915F914F9137
:1019F0003F912F910F900BBE0F900FBE0F901F9035
:101A000018951F920F920FB60F9211240BB60F92DA
:101A10002F933F934F935F936F937F938F939F93F6
:101A2000AF93BF93EF93FF93E0910802F091090207
:101A30001995FF91EF91BF91AF919F918F917F91F8
:101A40006F915F914F913F912F910F900BBE0F902F
:101A50000FBE0F901F9018951F920F920FB60F9206
:101A600011240BB60F922F933F934F935F936F9375
:101A70007F938F939F93AF93BF93EF93FF93E091E7
:101A80000602F09107021995FF91EF91BF91AF9176
:101A90009F918F917F916F915F914F913F912F9186
:101AA0000F900BBE0F900FBE0F901F9018951F92B6
:101AB0000F920FB60F9211240BB60F922F933F93F4
:101AC0004F935F936F937F938F939F93AF93BF9346
:101AD000EF93FF93E0910402F09105021995FF91B5
:101AE000EF91BF91AF919F918F917F916F915F9196
:101AF0004F913F912F910F900BBE0F900FBE0F9003
:101B00001F901895FC011182108213821282158297
:101B10001482FB0101900020E9F73197AF01461BC9
:101B2000570B0C94E50AE6EDF2E01382128288EE80
:101B300093E0A0E0B0E084839583A683B78383E23B
:101B400092E0918380838DEC90E0958784878CEC84
:101B500090E09787868788EC90E0918B808B89EC6A
:101B600090E0938B828B8AEC90E0958B848B8EEC4B
:101B700090E0978B868B118E128E138E148E83E3DA
:101B800090E09093F9038093F80381E390E09093C1
:101B9000F7038093F6038FE290E09093F503809330
:101BA000F4038DE290E09093F3038093F2038BE2D1
:101BB00090E09093F1038093F00389E290E090939A
:101BC000EF038093EE0361E972E088EE93E00E94F8
:101BD000820D63E372E082EE93E00E94820D63E384
:101BE00072E08CED93E00E94820D1092CC03109273
:101BF000CD038FEF9FEF9093CF038093CE03089593
:101C0000789484B5826084BD84B5816084BD85B5D7
:101C1000826085BD85B5816085BD80916E008160E3
:101C200080936E0010928100809181008260809389
:101C3000810080918100816080938100809180008B
:101C40008160809380008091B10084608093B100B6
:101C50008091B00081608093B0008091910082609B
:101C60008093910080919100816080939100809198
:101C700090008160809390008091A10082608093A9
:101C8000A1008091A10081608093A1008091A000BB
:101C900081608093A0008091210182608093210166
:101CA00080912101816080932101809120018160D8
:101CB0008093200180917A00846080937A008091E3
:101CC0007A00826080937A0080917A0081608093AC
:101CD0007A0080917A00806880937A001092C10027
:101CE000E091E602F091E70282E08083E091E20277
:101CF000F091E3021082E091E402F091E5028FECB2
:101D000080831092EE02E091EA02F091EB0286E00D
:101D10008083E091E802F091E90280818061808314
:101D2000E091E802F091E902808188608083E0918F
:101D3000E802F091E902808180688083E091E80206
:101D4000F091E90280818F7D808361E085E30E94CC
:101D50000505C090F8036090F90361E08C2D0E94A6
:101D60000505D090F6037090F70361E08D2D0E9479
:101D70000505E090F4038090F50361E08E2D0E944C
:101D80000505F090F2039090F30361E08F2D0E941F
:101D900005050091F003A090F10361E0802F0E94FF
:101DA00005051091EE03B090EF0361E0812F0E94D2
:101DB000050560E083E00E94050543E050E06CE328
:101DC0007BE081E00E94AB0560E082E00E940505B7
:101DD00041E050E06AE27BE080E00E94AB0560E019
:101DE00084E10E94050541E050E068E17BE083E08A
:101DF0000E94AB05CAE0D0E0D093C403C093C303F4
:101E000088E090E09093C6038093C50389E090E05A
:101E10009093C8038093C7031092CB0382E090E0B5
:101E20009093CA038093C90361E08AE00E9405058C
:101E300061E08091C5030E94050561E08091C703C0
:101E40000E94050561E08091C7030E943F04D09382
:101E5000C403C093C303E3E8F3E0119283E0E33CDF
:101E6000F807D9F7D0E0C0E08091C9039091CA0388
:101E7000C817D9073CF540E06FE0CE010E94230669
:101E80008091C9039091CA03C817D9072CF447E081
:101E90006BE0CE010E94230640E069E0CE010E9483
:101EA0002306CE010E9481068091C9039091CA0346
:101EB000C817D9072CF440E06CE0CE010E9423063D
:101EC0002196D2CFD0E0C0E08091C9039091CA039F
:101ED000C817D907B4F441E06CE0CE010E94230694
:101EE0008091C9039091CA03C817D9072CF448E020
:101EF0006AE0CE010E942306CE010E94810621964F
:101F0000E3CF85E390E09093CF038093CE03C0921C
:101F1000D0036092D103D092D2037092D303E092A7
:101F2000D4038092D503F092D6039092D703009306
:101F3000D803A092D9031093DA03B092DB0381E0B7
:101F40008093CB03C1E082E00E941604D091D502B9
:101F5000019709F03FC0DD23B1F186ED92E00E94C8
:101F6000D90218161906DCF486ED92E00E94B70239
:101F70008C010D9709F08AC00E94590B0E94100B2A
:101F800083E392E00E94520866E370E08091E203EE
:101F90009091E3030E94E7090E947E03D4CF8091D1
:101FA0001002811109C08FEA92E00E942F080E945E
:101FB0003C08C0931002E8CF64E670E080E090E057
:101FC0000E947805E9CF66E370E08091E803909184
:101FD000E903E0CF84E10E9416040197B1F5DD2307
:101FE00069F186ED92E00E94D90218161906CCF428
:101FF00086ED92E00E94B7028C010D9709F046C071
:102000000E94590B0E94100B83E392E00E94520839
:1020100066E370E08091E2039091E3030E9423095C
:10202000BBCF809110028111C7CF8FEA92E00E944E
:102030002F080E943C08C0931002EACF66E370E0CC
:102040008091E8039091E903E9CFDD23A9F186EDC2
:1020500092E00E94D902181619060CF586ED92E05E
:102060000E94B7028C010D9789F40E94590B0E94BF
:10207000100B83E392E00E94520866E370E08091C7
:10208000E2039091E3030E94600886CF602F86ED03
:1020900092E00E941103802F0E94B30A7DCF8091AD
:1020A0001002811189CF8FEA92E00E942F080E94CE
:1020B0003C08C0931002E1CF66E370E08091E80332
:1020C0009091E903E0CF8CED93E00E94830A82EEC9
:1020D00093E00E94830A88EE93E00C94830A97FBB6
:1020E000072E16F4009407D077FD09D00E948B10BC
:1020F00007FC05D03EF4909581959F4F089570950B
:1021000061957F4F0895EE0FFF1F881F8BBF0790CB
:10211000F691E02D1994AA1BBB1B51E107C0AA1F21
:10212000BB1FA617B70710F0A61BB70B881F991F78
:102130005A95A9F780959095BC01CD0108950F930C
:102140001F93CF93DF938230910510F482E090E0EB
:10215000E091FC03F091FD0330E020E0B0E0A0E06E
:10216000309799F42115310509F44AC0281B390B21
:1021700024303105D8F58A819B816115710589F17B
:10218000FB0193838283FE0111C040815181028152
:10219000138148175907E0F04817590799F4109729
:1021A00061F012960C93129713961C933296CF01FE
:1021B000DF91CF911F910F9108950093FC0310932D
:1021C000FD03F4CF2115310551F04217530738F0C4
:1021D000A901DB019A01BD01DF01F801C1CFEF01C7
:1021E000F9CF9093FD038093FC03CDCFFE01E20F66
:1021F000F31F819391932250310939832883D7CFDC
:102200002091FA033091FB03232B41F42091130218
:10221000309114023093FB032093FA0320911102B2
:10222000309112022115310541F42DB73EB740918E
:10223000150250911602241B350BE091FA03F09120
:10224000FB03E217F307A0F42E1B3F0B28173907F7
:1022500078F0AC014E5F5F4F2417350748F04E0F02
:102260005F1F5093FB034093FA03819391939FCF99
:10227000F0E0E0E09CCFCF93DF930097E9F0FC0122
:10228000329713821282A091FC03B091FD03ED01FD
:1022900030E020E01097A1F420813181820F931F5C
:1022A0002091FA033091FB032817390709F061C028
:1022B000F093FB03E093FA03DF91CF910895EA01D5
:1022C000CE17DF07E8F54A815B819E014115510574
:1022D000B1F7E901FB83EA8349915991C40FD51FF6
:1022E000EC17FD0761F4808191810296840F951FA0
:1022F000E90199838883828193819B838A83F0E0BB
:10230000E0E012968D919C9113970097B9F52D916D
:102310003C911197CD010296820F931F2091FA03F1
:102320003091FB032817390739F6309751F5109291
:10233000FD031092FC03B093FB03A093FA03BCCF00
:10234000D383C28340815181840F951FC817D90759
:1023500061F44E5F5F4F88819981480F591F518307
:1023600040838A819B81938382832115310509F003
:10237000B0CFF093FD03E093FC039ECFFD01DC01A1
:10238000C0CF13821282D7CF4F925F926F927F920B
:102390008F929F92AF92BF92CF92DF92EF92FF9275
:1023A0000F931F93CF93DF938C01009799F4CB0188
:1023B000DF91CF911F910F91FF90EF90DF90CF9021
:1023C000BF90AF909F908F907F906F905F904F9055
:1023D0000C949F10FC01E60FF71F9C01225031095D
:1023E000E217F30708F4AEC0D901CD91DC91119743
:1023F000C617D70720F1C530D10578F0CE01049774
:102400008617970750F0C61BD70B2297C193D1931D
:102410006D937C93CF010E943B11C801DF91CF9156
:102420001F910F91FF90EF90DF90CF90BF90AF90F2
:102430009F908F907F906F905F904F9008955B0179
:10244000AC1ABD0A4C018C0E9D1EA091FC03B091EC
:10245000FD03512C412CF12CE12C109731F580918A
:10246000FA039091FB038815990509F05CC04616A4
:10247000570608F058C080911102909112020097FF
:1024800041F48DB79EB74091150250911602841BFE
:10249000950BE817F90708F055C0F093FB03E0939C
:1024A000FA03F90171836083B8CF8D919C911197E4
:1024B00012966C90129713967C901397A815B905F5
:1024C00059F56C0142E0C40ED11CCA14DB0420F1A2
:1024D000AC014A195B09DA011296159780F0628205
:1024E000738251834083D9016D937C93E114F1048D
:1024F00071F0D7011396FC93EE9312978ECF22962C
:102500008C0F9D1FF90191838083F301EFCFF0932E
:10251000FD03E093FC0381CF4816590608F42C0113
:102520007D01D3019ACFCB010E949F107C010097BF
:1025300049F0AE01B8010E94A512C8010E943B11EA
:1025400087016BCF10E000E068CFFB01DC0102C027
:1025500001900D9241505040D8F70895FB01DC01E5
:1025600001900D920020E1F7089512E0C7E4D2E057
:1025700000E006C0802FFE010E9483102196011DFD
:10258000C834D10780E00807A9F7F894FFCF2206E6
:102590002206220622062206220622062206010022
:1025A00000FE03800000082A1C771C2A0800000097
:1025B0000011037B02A8025E03D902B702CB020D11
:1025C0000A00202B2043616D62696F2064652044FE
:1025D0006972656363696F6E00202B2043616D62D1
:1025E000696F206465204D6F646F00456E74726181
:1025F0006E646F20656E204D6F646F2044696E615C
:102600006D69636F00456E7472616E646F20656EF4
:10261000204D6F646F20457374617469636F002A85
:10262000503120E2809320475255504F20233720CD
:102630002D2053454343494F4E20412A0052657097
:1026400074697469656E646F20756C74696D6F2050
:0A2650006D656E73616A653A200043
:020000040003F7
:10E000000D9489F10D94B2F10D94B2F10D94B2F129
:10E010000D94B2F10D94B2F10D94B2F10D94B2F1F0
:10E020000D94B2F10D94B2F10D94B2F10D94B2F1E0
:10E030000D94B2F10D94B2F10D94B2F10D94B2F1D0
:10E040000D94B2F10D94B2F10D94B2F10D94B2F1C0
:10E050000D94B2F10D94B2F10D94B2F10D94B2F1B0
:10E060000D94B2F10D94B2F10D94B2F10D94B2F1A0
:10E070000D94B2F10D94B2F10D94B2F10D94B2F190
:10E080000D94B2F10D94B2F10D94B2F10D94B2F180
:10E090000D94B2F10D94B2F10D94B2F10D94B2F170
:10E0A0000D94B2F10D94B2F10D94B2F10D94B2F160
:10E0B0000D94B2F10D94B2F10D94B2F10D94B2F150
:10E0C0000D94B2F10D94B2F10D94B2F10D94B2F140
:10E0D0000D94B2F10D94B2F10D94B2F10D94B2F130
:10E0E0000D94B2F141546D656761323536300041AF
:10E0F000726475696E6F206578706C6F72657220DE
:10E1000073746B3530305632206279204D4C530099
:10E11000426F6F746C6F616465723E004875683F52
:10E1200000436F6D70696C6564206F6E203D200048
:10E130004350552054797065202020203D20005FF9
:10E140005F4156525F415243485F5F3D2000415658
:10E1500052204C696243205665723D20004743437C
:10E160002056657273696F6E203D20004350552024
:10E1700049442020202020203D20004C6F7720663D
:10E18000757365202020203D20004869676820665F
:10E190007573652020203D200045787420667573D6
:10E1A00065202020203D20004C6F636B2066757336
:10E1B000652020203D20004D617220203720323024
:10E1C000313300312E362E3800342E332E350056A2
:10E1D00023202020414444522020206F7020636F70
:10E1E00064652020202020696E73747275637469E1
:10E1F0006F6E2061646472202020496E74657272B3
:10E20000757074006E6F20766563746F7200726A49
:10E210006D702020006A6D70200057686174207056
:10E220006F72743A00506F7274206E6F7420737541
:10E2300070706F72746564004D7573742062652030
:10E2400061206C6574746572002000577269747483
:10E25000696E672045450052656164696E672045B7
:10E26000450045452065727220636E743D00504F35
:10E27000525400303D5A65726F2061646472003FF1
:10E280003D43505520737461747300403D454550C3
:10E29000524F4D207465737400423D426C696E6B41
:10E2A000204C454400453D44756D70204545505215
:10E2B0004F4D00463D44756D7020464C415348001B
:10E2C000483D48656C70004C3D4C69737420492F83
:10E2D0004F20506F72747300513D51756974005234
:10E2E0003D44756D702052414D00563D73686F7707
:10E2F00020696E7465727275707420566563746FF0
:10E30000727300593D506F727420626C696E6B00BD
:10E310002A0011241FBECFEFD1E2DEBFCDBF01E046
:10E320000CBF12E0A0E0B2E0EEE1FDEF03E00BBFB6
:10E3300002C007900D92A030B107D9F712E0A0E01B
:10E34000B2E001C01D92AE30B107E1F70F9460F367
:10E350000D948DFE01E20EBF0FEF0DBF11241FBE05
:10E360000D9460F30D9400F020E030E040ED57E0B4
:10E3700005C0FA013197F1F72F5F3F4F2817390792
:10E38000C0F308959C01260F311DC901A0E0B0E043
:10E390002F5F3F4FABBFFC018791882361F08093D3
:10E3A000C6008091C00086FFFCCF8091C0008064D1
:10E3B0008093C000EACF08958DE08093C6008091DD
:10E3C000C00086FFFCCF8091C00080648093C000B5
:10E3D0008AE08093C6008091C00086FFFCCF8091C8
:10E3E000C00080648093C00008950F94C2F10F9420
:10E3F000DCF10895FC019081992359F09093C600B7
:10E400008091C00086FFFCCF8091C0008064809323
:10E41000C0003196992379F70895282F982F929567
:10E420009F70892F805D8A3308F0895F8093C600D2
:10E430008091C00086FFFCCF8091C00080648093F3
:10E44000C000822F8F70982F905D9A3308F0995FEB
:10E450009093C6008091C00086FFFCCF8091C000E1
:10E4600080648093C00008959C01FB01853691056E
:10E470001CF46330710594F0C90164E670E00F94F8
:10E480002EFE605D7F4F6093C6008091C00086FFC6
:10E49000FCCF8091C00080648093C0002B30310598
:10E4A00014F43297B4F0C90164E670E00F942EFEC4
:10E4B0006AE070E00F942EFE605D7F4F6093C600AF
:10E4C0008091C00086FFFCCF8091C0008064809363
:10E4D000C000C9016AE070E00F942EFEC0968093E0
:10E4E000C6008091C00086FFFCCF8091C000806490
:10E4F0008093C00008951F93182F8EE692EE60E07F
:10E500000F94C2F11093C6008091C00086FFFCCF2B
:10E510008091C00080648093C0000F94DCF11F9153
:10E5200008952F923F924F925F926F927F928F92B7
:10E530009F92AF92BF92CF92DF92EF92FF920F9392
:10E540001F93DF93CF93CDB7DEB762970FB6F894E2
:10E55000DEBF0FBECDBF382E622ECA01DB015C01CB
:10E560006D01772420E2222E2E010894411C511CBB
:10E570008BC081E0A81680E0B80681E0C80680E084
:10E58000D80628F0C601AA27BB270F940DF2BB2797
:10E59000AD2D9C2D8B2D0F940DF28A2D0F940DF225
:10E5A0002092C6008091C00086FFFCCF8091C00001
:10E5B00080648093C0009DE29093C6008091C0006B
:10E5C00086FFFCCF8091C00080648093C0002092C1
:10E5D000C6008091C00086FFFCCF8091C00080649F
:10E5E0008093C00019828601750188249924A1E0D6
:10E5F0003A1651F03A1620F0B2E03B1661F409C029
:10E600000BBFF701779007C0C7010F9477FE782EF4
:10E6100002C0F7017080872D0F940DF22092C60082
:10E620008091C00086FFFCCF8091C0008064809301
:10E63000C000872D8052F401EF70F0708F3520F408
:10E64000E40DF51D708204C0E40DF51D8EE280839B
:10E650000894E11CF11C011D111D0894811C911CE2
:10E6600090E18916910409F0C2CF80E190E0A0E02A
:10E67000B0E0A80EB91ECA1EDB1E198AC2010F9493
:10E68000FAF10F94DCF16A94662009F072CF629679
:10E690000FB6F894DEBF0FBECDBFCF91DF911F91B3
:10E6A0000F91FF90EF90DF90CF90BF90AF909F9031
:10E6B0008F907F906F905F904F903F902F90089534
:10E6C0002F923F924F925F926F927F928F929F9282
:10E6D000AF92BF92CF92DF92EF92FF920F931F9370
:10E6E000DF93CF93CDB7DEB7CD53D1400FB6F894BB
:10E6F000DEBF0FBECDBF01E20EBF0FEF0DBF94B75F
:10E70000F894A89514BE80916000886180936000A1
:10E7100010926000789493FF05C0E0910002F091A0
:10E7200001021995279A2F9A8091C00082608093E8
:10E73000C00080E18093C40088E18093C1000000A4
:10E74000EE24FF24870144E0A42EB12CCC24DD2448
:10E7500024C0C5010197F1F70894E11CF11C011DCB
:10E76000111D21E2E2162EE4F20620E0020720E06D
:10E77000120718F031E0C32ED12CC801B70127ECE5
:10E780003BE140E050E00F9441FE611571058105C9
:10E79000910519F485B1805885B98091C00087FD35
:10E7A00003C0C114D104A9F2A6014F5F5F4FC25E3E
:10E7B000DE4F59834883CE51D140C25EDE4F8881FF
:10E7C0009981CE51D140019711F00D9410FEC05D9A
:10E7D000DE4F19821882C053D14060E0C15DDE4F28
:10E7E0001882CF52D14088249924C35DDE4F19820C
:10E7F0001882CD52D140C05EDE4F188219821A8233
:10E800001B82C052D140CE5CDE4F188219821A8220
:10E810001B82C253D140EE24FF2487010BBFF701B6
:10E8200007911691C45CDE4F19830883CC53D14005
:10E830000D940BFEC25EDE4F28813981CE51D1404E
:10E840002130310509F52091C600C25EDE4F1982E4
:10E850001882CE51D14022C02F5F3F4F4F4F5F4FA4
:10E86000213082E138078AE7480780E0580780F0C6
:10E87000C45CDE4FE881F981CC53D140EF5FFF4F9C
:10E8800019F0EE27FF27099420E030E040E050E047
:10E890008091C00087FFE0CF2091C600C35DDE4FAE
:10E8A00048815981CD52D1404F5F5F4FC35DDE4FEC
:10E8B00059834883CD52D140213209F063C64A3092
:10E8C000510508F05FC60894811C911C53E0851621
:10E8D000910409F059C600E010E018C081E280936D
:10E8E000C6008091C00086FFFCCF8091C00080648C
:10E8F0008093C0002F5F3F4F2931310579F70F9486
:10E90000DCF10F5F1F4F0530110519F020E030E0FA
:10E91000E5CF10920A0210920B0210920C02109294
:10E920000D02109206021092070210920802109235
:10E930000902109202021092030210920402109235
:10E9400005028FEE90EE60E00F94F5F180E191EE1C
:10E9500060E00F94C2F18091C00087FFFCCF9091DE
:10E96000C600903608F09F759032B8F09093C600BC
:10E970008091C00086FFFCCF8091C00080648093AE
:10E98000C000A0E2A093C6008091C00086FFFCCF2B
:10E990008091C00080648093C000983409F4D7C18E
:10E9A0009934B8F4923409F459C1933458F490333B
:10E9B00019F1903308F4E3C59F33A1F1903409F0C5
:10E9C000DEC5BDC0953409F470C1963409F0D7C5D1
:10E9D00098C1923509F42BC2933538F49C3409F46C
:10E9E000F5C1913509F0CBC518C2963509F445C279
:10E9F000993509F0C4C567C483E792EE62E00F94CD
:10EA0000F5F110920602109207021092080210927D
:10EA1000090210920A0210920B0210920C0210923C
:10EA20000D0213C18FE792EE62E00F94F5F18FEEC5
:10EA300090EE60E00F94F5F181E291EE60E00F94CA
:10EA4000C2F187EB91EE60E00F94F5F180E391EE77
:10EA500060E00F94C2F184EE90EE60E00F94F5F167
:10EA60008FE391EE60E00F94C2F186E090E061E008
:10EA700070E00F9434F20F94DCF18DE591EE60E0DC
:10EA80000F94C2F189EC91EE60E00F94F5F18EE401
:10EA900091EE60E00F94C2F183EC91EE60E00F9490
:10EAA000F5F18CE691EE60E00F94C2F18EE10F94E7
:10EAB0000DF288E90F940DF281E00F940DF20F949E
:10EAC000DCF18BE791EE60E00F94C2F119E0E0E039
:10EAD000F0E010935700E4918E2F0F940DF20F94F5
:10EAE000DCF18AE891EE60E00F94C2F1E3E0F0E03F
:10EAF00010935700E4918E2F0F940DF20F94DCF1D8
:10EB000089E991EE60E00F94C2F1E2E0F0E0109349
:10EB10005700E4918E2F0F940DF20F94DCF188EAE8
:10EB200091EE60E00F94C2F1E1E0F0E01093570045
:10EB30001491812F0F940DF20F94DCF107CF8BE825
:10EB400092EE62E00F94F5F18BE492EE60E00F94A8
:10EB5000F5F10F94DCF100E010E019C0C8016F2D51
:10EB60000F947FFEFF2031F489E492EE60E00F9471
:10EB7000C2F10BC0F092C6008091C00086FFFCCFAE
:10EB80008091C00080648093C0000F5F1F4FC80158
:10EB900081519F41A0E0B0E0ABBFFC01F790BAE229
:10EBA000FB1621F0E2E000301E07C1F60F94DCF105
:10EBB0000F94DCF187E592EE60E00F94F5F10F948D
:10EBC000DCF1CC24DD2400E010E01EC0C8010F946D
:10EBD00077FEF82E882331F489E492EE60E00F94FA
:10EBE000C2F10BC08093C6008091C00086FFFCCFAD
:10EBF0008091C00080648093C000FE1419F00894D6
:10EC0000C11CD11C0F5F1F4FC80181519F41A0E063
:10EC1000B0E0ABBFFC01E790FAE2EF1621F022E092
:10EC20000030120799F60F94DCF10F94DCF182E6C4
:10EC300092EE60E00F94C2F1C60161E070E00F94C3
:10EC400034F20F94DCF10F94DCF110920202109276
:10EC50000302109204021092050278CE89E992EE26
:10EC600062E00F94F5F1279A2F9A16C02F9880E052
:10EC700090E0E0EDF7E03197F1F7019684369105E9
:10EC8000C1F72F9A80E090E0E0EDF7E03197F1F7DF
:10EC9000019684369105C1F78091C00087FFE6CFC9
:10ECA0008091C00087FFFCCF64C485EA92EE62E0E9
:10ECB0000F94F5F140910202509103026091040219
:10ECC0007091050281E020E10F9491F2809102029F
:10ECD00090910302A0910402B091050280509F4FD1
:10ECE000AF4FBF4F8093020290930302A0930402A0
:10ECF000B093050280509041A040B04008F426CE69
:10ED0000A4CF83EB92EE62E00F94F5F140910602FE
:10ED100050910702609108027091090280E020E1A1
:10ED20000F9491F28091060290910702A09108023F
:10ED3000B091090280509F4FAF4FBF4F80930602A2
:10ED400090930702A0930802B0930902FFCD80ECD4
:10ED500092EE62E00F94F5F183E792EE60E00F949B
:10ED6000F5F18FE792EE60E00F94F5F18BE892EE0B
:10ED700060E00F94F5F189E992EE60E00F94F5F10F
:10ED800085EA92EE60E00F94F5F183EB92EE60E09D
:10ED90000F94F5F180EC92EE60E00F94F5F187ECC2
:10EDA00092EE60E00F94F5F188ED92EE60E00F9442
:10EDB000F5F18FED92EE60E00F94F5F18AEE92EEB0
:10EDC00060E00F94F5F183E093EEBDCD87EC92EE19
:10EDD00062E00F94F5F181E40F947BF282E40F94EA
:10EDE0007BF283E40F947BF284E40F947BF285E45E
:10EDF0000F947BF286E40F947BF287E40F947BF20E
:10EE000088E40F947BF28AE40F947BF28BE40F94F6
:10EE10007BF28CE40F947BF299CD88ED92EE62E068
:10EE20000F94F5F1772473948824992409C48FED05
:10EE300092EE62E00F94F5F140910A0250910B02BC
:10EE400060910C0270910D0282E020E10F9491F22A
:10EE500080910A0290910B02A0910C02B0910D02D8
:10EE600080509F4FAF4FBF4F80930A0290930B0289
:10EE7000A0930C02B0930D0269CD8AEE92EE62E08F
:10EE80000F94F5F184EE90EE60E00F94F5F18FECC5
:10EE900091EE60E00F94F5F1662477244301CC5D98
:10EEA000DE4F19821882C452D140D401C301B695F5
:10EEB000A79597958795CA5DDE4F88839983AA8326
:10EEC000BB83C652D140CC5DDE4FA881B981C4520C
:10EED000D1401196CC5DDE4FB983A883C452D14096
:10EEE000CD0162E070E00F9434F2B0E2B093C6005E
:10EEF0008091C00086FFFCCF8091C0008064809329
:10EF0000C000EDE2E093C6008091C00086FFFCCF18
:10EF10008091C00080648093C000F0E2F093C6004E
:10EF20008091C00086FFFCCF8091C00080648093F8
:10EF3000C000CA5DDE4FE880F9800A811B81C6529D
:10EF4000D140BB27A12F902F8F2D0F940DF2CA5DBA
:10EF5000DE4F8881C652D1400F940DF2B0E2FB2EF5
:10EF6000F092C6008091C00086FFFCCF8091C00067
:10EF700080648093C0000DE30093C6008091C000C0
:10EF800086FFFCCF8091C00080648093C00010E2B7
:10EF90001093C6008091C00086FFFCCF8091C00016
:10EFA00080648093C0008BBEF3012791C65DDE4F65
:10EFB0002883CA52D140A22EBB24CC24DD2408943D
:10EFC000611C711C811C911C8BBEF3018791282E42
:10EFD0003324442455240894611C711C811C911C09
:10EFE0008BBEF3013791C55DDE4F3883CB52D140E4
:10EFF0000894611C711C811C911C8BBEF30147910C
:10F00000C45DDE4F4883CC52D140ADEFEA2EAFEF66
:10F01000FA2EAFEF0A2FAFEF1A2F6E0C7F1C801E57
:10F02000911E142D032DF22CEE24EA0CFB1C0C1D5A
:10F030001D1D0F940DF220E22093C6008091C000A8
:10F0400086FFFCCF8091C00080648093C000C65DC5
:10F05000DE4F8881CA52D1400F940DF230E23093D6
:10F06000C6008091C00086FFFCCF8091C000806404
:10F070008093C000C45DDE4F8881CC52D1400F9494
:10F080000DF240E24093C6008091C00086FFFCCFA5
:10F090008091C00080648093C000C55DDE4F888190
:10F0A000CB52D1400F940DF250E25093C6008091A4
:10F0B000C00086FFFCCF8091C00080648093C000B8
:10F0C0008FEFE8168FEFF80680E0080780E018075A
:10F0D00031F484E092EE60E00F94C2F1DFC0D80119
:10F0E000C7018070907CA070B0708050904CA040A0
:10F0F000B040D1F52FEF3FE340E050E0E222F322B1
:10F1000004231523CA5DDE4FA880B980CA80DB8046
:10F11000C652D140AE0CBF1CC01ED11EAA0CBB1CD7
:10F12000CC1CDD1C8EE092EE60E00F94C2F1BB2798
:10F13000A12F902F8F2D0F940DF28E2D0F940DF285
:10F1400030E23093C6008091C00086FFFCCF8091F2
:10F15000C00080648093C0004EE34093C60080915D
:10F16000C00086FFFCCF87C08EE09EEFA0E0B0E03D
:10F17000E822F9220A231B239CE0E91694E9F90608
:10F1800090E0090790E0190709F088C0C45DDE4FE0
:10F19000A881CC52D140EA2EFF2400E010E0102FCD
:10F1A0000F2DFE2CEE24C55DDE4FB881CB52D14031
:10F1B000EB0EF11C011D111DD601C501817090706F
:10F1C000A070B070DC0199278827E80EF91E0A1F8D
:10F1D0001B1F20EF30E040E050E0A222B322C42207
:10F1E000D52241E1AA0CBB1CCC1CDD1C4A95D1F7F1
:10F1F000EA0CFB1C0C1D1D1D81E090E0A0E0B0E0BE
:10F20000282239224A225B2235E1220C331C441C7D
:10F21000551C3A95D1F7E20CF31C041D151D57013E
:10F220006801AA0CBB1CCC1CDD1C85E192EE60E0E1
:10F230000F94C2F1C801AA27BB270F940DF2BB2778
:10F24000A12F902F8F2D0F940DF28E2D0F940DF274
:10F2500090E29093C6008091C00086FFFCCF809121
:10F26000C00080648093C000AEE3A093C60080918C
:10F27000C00086FFFCCF8091C00080648093C000F6
:10F28000C601AA27BB270F940DF2BB27AD2D9C2DDD
:10F290008B2D0F940DF28A2D0F940DF20F94DCF14B
:10F2A000CC5DDE4FE881F981C452D140F99709F471
:10F2B0004DCBF4E0EF2EF12C012D112D6E0C7F1CA7
:10F2C000801E911EF2CD83E093EE62E00F94F5F183
:10F2D0008AE192EE60E00F94C2F18091C00087FF56
:10F2E000FCCF1091C6001F751093C6008091C0001E
:10F2F00086FFFCCF8091C00080648093C0000F9493
:10F30000DCF1812F81548A3108F036C1163409F4BA
:10F3100095C0173490F4133409F44EC0143430F40B
:10F320001134F1F0123409F01DC130C0143409F465
:10F3300059C0153409F016C16BC01A3409F4C4C0A1
:10F340001B3438F4173409F48FC0183409F00AC19B
:10F35000A1C01B3409F4D2C01C3409F003C1E8C0B9
:10F360008FEF81B90DC082B1809582B980E090E0C5
:10F37000E0EDF7E03197F1F70196883C9105C1F790
:10F380008091C00087FFEFCF12B8EFC08FEF84B934
:10F390000DC085B1809585B980E090E0E0EDF7E0A3
:10F3A0003197F1F70196883C9105C1F78091C00033
:10F3B00087FFEFCF15B8D9C08FEF87B90DC088B1DF
:10F3C000809588B980E090E0E0EDF7E03197F1F7C3
:10F3D0000196883C9105C1F78091C00087FFEFCF6F
:10F3E00018B8C3C08FEF8AB90DC08BB180958BB9A7
:10F3F00080E090E0E0EDF7E03197F1F70196883C8E
:10F400009105C1F78091C00087FFEFCF1BB8ADC059
:10F410008FEF8DB90DC08EB180958EB980E090E0F0
:10F42000E0EDF7E03197F1F70196883C9105C1F7DF
:10F430008091C00087FFEFCF1EB897C08FEF80BBD1
:10F440000DC081B3809581BB80E090E0E0EDF7E0F6
:10F450003197F1F70196883C9105C1F78091C00082
:10F4600087FFEFCF11BA81C08FEF83BB0DC084B38C
:10F47000809584BB80E090E0E0EDF7E03197F1F714
:10F480000196883C9105C1F78091C00087FFEFCFBE
:10F4900014BA6BC08FEF809301010FC080910201FD
:10F4A00080958093020180E090E0E0EDF7E03197F5
:10F4B000F1F70196883C9105C1F78091C00087FF64
:10F4C000EDCF1092020151C08FEF809304010FC065
:10F4D0008091050180958093050180E090E0E0ED4A
:10F4E000F7E03197F1F70196883C9105C1F78091DB
:10F4F000C00087FFEDCF1092050137C08FEF8093DA
:10F5000007010FC08091080180958093080180E079
:10F5100090E0E0EDF7E03197F1F70196883C910536
:10F52000C1F78091C00087FFEDCF109208011DC088
:10F530008FEF80930A010FC080910B01809580931B
:10F540000B0180E090E0E0EDF7E03197F1F70196F4
:10F55000883C9105C1F78091C00087FFEDCF1092E4
:10F560000B0103C085E292EEEEC98091C00087FFD7
:10F57000FCCF8091C600EAC988E392EEE4C98CE131
:10F5800091EEE1C988249924933011F1943028F444
:10F59000913089F09230B8F408C0953061F195301F
:10F5A000F0F0963009F048C043C02B3109F042C951
:10F5B00091E06BE13FC96227C15DDE4F2883CF52E6
:10F5C000D14092E037C9B22FA0E0622793E032C960
:10F5D000822F90E0A82BB92B622794E02BC92E3004
:10F5E00009F039C3622795E0C05DDE4F19821882A9
:10F5F000C053D1401FC9E1E0F0E0EC0FFD1FC05D3A
:10F60000DE4F08811981C053D140E00FF11F2083E4
:10F610000F5F1F4FC05DDE4F19830883C053D14079
:10F6200062270A171B0709F005C9D80196E002C92D
:10F63000261709F010C303C0973009F0FBC87724E0
:10F640009981933109F412C19431C8F4963009F4C8
:10F65000D8C0973050F4923009F406C1933009F4C1
:10F660006DC0913009F059C253C0913109F477C08F
:10F67000923108F0BBC0903109F04FC2F5C098310B
:10F6800009F487C0993150F4953109F4EFC09531F0
:10F6900008F4C6C1963109F040C2C2C19A3109F4DA
:10F6A0006CC09A3108F491C09B3109F45BC09D3164
:10F6B00009F033C29D81903359F48F81882311F46E
:10F6C0009EE11CC0813011F091E018C098E916C08D
:10F6D000892F807591F0903539F4E0E0F0E089E011
:10F6E0008093570094910AC0983539F4E3E0F0E034
:10F6F00089E080935700949101C090E01A821B82A8
:10F700008D818C831D829E831F8227E030E009C299
:10F710001A8288E08B8381E48C8386E58D8382E581
:10F720008E8389E48F8383E5888780E589878FE5E9
:10F730008A8782E38B872BE030E0F3C18A818139AD
:10F7400041F0823941F0803911F48FE005C080E04A
:10F7500003C082E001C08AE01A828B8344C0772410
:10F76000739482C08D81882311F48EE12CC0813086
:10F7700011F081E028C088E926C01A82E1E0F0E0BB
:10F7800089E08093570084918B831C8224E030E0D1
:10F79000C8C18B81803589F48C81883039F4E2E0EE
:10F7A000F0E089E08093570084910DC0E0E0F0E044
:10F7B00089E080935700849106C0E3E0F0E089E09F
:10F7C0008093570084911A82DFCF8D81836C99E0FA
:10F7D000E1E0F0E0082E90935700E89507B600FCB2
:10F7E000FDCF1A821B8223E030E09BC180EC8A832C
:10F7F000CE5CDE4F188219821A821B82C253D1401E
:10F800008EC18A8190E0A0E0B0E0582F44273327D2
:10F8100022278B8190E0A0E0B0E0DC0199278827C7
:10F82000282B392B4A2B5B2B8D8190E0A0E0B0E098
:10F83000282B392B4A2B5B2B8C8190E0A0E0B0E089
:10F84000BA2FA92F982F8827282B392B4A2B5B2BCF
:10F85000220F331F441F551FC05EDE4F288339839C
:10F860004A835B83C052D1401A8259C13A81C95C34
:10F87000DE4F3883C753D140CA5CDE4F1882C6536F
:10F88000D1408B81C82EDD24CA5CDE4F488159816E
:10F89000C653D140C42AD52A933109F082C0CE5C28
:10F8A000DE4F88819981AA81BB81C253D1408050AB
:10F8B000904CA340B04030F583E0CE5CDE4FE88052
:10F8C000F9800A811B81C253D140F70100935B008C
:10F8D00080935700E89507B600FCFDCFCE5CDE4F65
:10F8E000088119812A813B81C253D14000501F4FAA
:10F8F0002F4F3F4FCE5CDE4F088319832A833B8313
:10F90000C253D140C05EDE4F488159816A817B81FC
:10F91000C052D140DE011B9631E08C9111962C91A2
:10F9200011971296C75CDE4F2883C953D140C85C3B
:10F93000DE4F1882C853D14090E0C85CDE4FE881AA
:10F94000F981C853D1408E2B9F2B0C01FA01609393
:10F950005B0030935700E89511244E5F5F4F6F4F67
:10F960007F4F0EEFE02E0FEFF02ECE0CDF1CC114F8
:10F97000D10499F685E0C05EDE4F088119812A81A5
:10F980003B81C052D140F80120935B008093570027
:10F99000E89507B600FCFDCF81E180935700E8951C
:10F9A00035C0C05EDE4F88819981AA81BB81C0527B
:10F9B000D140B695A795979587957C018601ABE0D8
:10F9C000AA2EB12CAC0EBD1E0BC0D5016D915D01F0
:10F9D000C7010F947FFE0894E11CF11C01501040F8
:10F9E0000115110591F7A60160E070E0440F551F65
:10F9F000661F771FC05EDE4FE880F9800A811B8199
:10FA0000C052D1404E0D5F1D601F711F1A82C05E33
:10FA1000DE4F488359836A837B83C052D1407FC0C5
:10FA2000FA80C55CDE4FF882CB53D140C65CDE4F16
:10FA30001882CA53D1408B81C82EDD24C65CDE4FAC
:10FA400008811981CA53D140C02AD12A1A828981DA
:10FA5000BE016D5F7F4F843121F59601C05EDE4FA0
:10FA6000E880F9800A811B81C052D1400BBFF701A9
:10FA700087919691DB018C9311969C936E5F7F4FDB
:10FA8000D801C7010296A11DB11DC05EDE4F88835B
:10FA90009983AA83BB83C052D14022503040F1F6F3
:10FAA00036C0C05EDE4F288139814A815B81C052F9
:10FAB000D1400894C108D108760100E010E0089414
:10FAC000C11CD11C0894E11CF11C011D111DE20E8A
:10FAD000F31E041F151F21BDBB27A52F942F832FB5
:10FAE00082BD2F5F3F4F4F4F5F4FF89A80B5DB01CC
:10FAF0008D93BD012E153F054007510761F7C05E8C
:10FB0000DE4F288339834A835B83C052D1409601FC
:10FB10002D5F3F4FFB01108204C080EC8A8322E0FE
:10FB200030E08BE18093C6008091C00086FFFCCF5F
:10FB30008091C00080648093C000C15DDE4FF88179
:10FB4000CF52D140F093C6008091C00086FFFCCF19
:10FB50008091C00080648093C000432F3093C60022
:10FB60008091C00086FFFCCF8091C00080648093AC
:10FB7000C000922F2093C6008091C00086FFFCCF6A
:10FB80008091C00080648093C0008EE08093C600A6
:10FB90008091C00086FFFCCF8091C000806480937C
:10FBA000C00065E1C15DDE4FE880CF52D1406E25D7
:10FBB00069276427FE01319610C090819093C6009A
:10FBC0008091C00086FFFCCF31968091C000806498
:10FBD0008093C0006927215030402115310569F715
:10FBE0006093C6008091C00086FFFCCF8091C0006A
:10FBF00080648093C00085B1805885B9772081F4F6
:10FC0000C15DDE4F0881CF52D1400F5FC15DDE4F35
:10FC10000883CF52D14090E0A0E0B0E00D941AF4F8
:10FC200027982F9880E090E020ED37E0F901319798
:10FC3000F1F7019684369105C9F700008091C00064
:10FC40008D7F8093C00081E180935700E895EE2777
:10FC5000FF270994FFCF90E00D941AF497FB092E2B
:10FC600007260AD077FD04D02ED006D000201AF443
:10FC7000709561957F4F0895F6F7909581959F4F08
:10FC80000895A1E21A2EAA1BBB1BFD010DC0AA1FDD
:10FC9000BB1FEE1FFF1FA217B307E407F50720F0F5
:10FCA000A21BB30BE40BF50B661F771F881F991F70
:10FCB0001A9469F760957095809590959B01AC01B9
:10FCC000BD01CF010895AA1BBB1B51E107C0AA1FAC
:10FCD000BB1FA617B70710F0A61BB70B881F991FED
:10FCE0005A95A9F780959095BC01CD010895F99991
:10FCF000FECF92BD81BDF89A992780B50895262F31
:10FD0000F999FECF1FBA92BD81BD20BD0FB6F89400
:0EFD1000FA9AF99A0FBE01960895F894FFCF63
:00000001FF
