:100000000C9490010C94C1010C94C1010C94C10199
:100010000C94C1010C94C1010C94C1010C94C10158
:100020000C94C1010C94C1010C94C1010C94C10148
:100030000C94C1010C94C1010C94C1010C94C10138
:100040000C94C1010C94C1010C94C1010C94C10128
:100050000C94C1010C94C1010C94C1010C94BA041C
:100060000C94C1010C94C1010C94C1010C94C10108
:100070000C94C1010C94C1010C94C1010C94C101F8
:100080000C94C1010C94C1010C94C1010C94C101E8
:100090000C9484040C945A040C94C1010C94C10176
:1000A0000C94C1010C94C1010C94C1010C94C101C8
:1000B0000C94C1010C94C1010C94C1010C94C101B8
:1000C0000C94C1010C94C1010C94C1010C94C101A8
:1000D0000C94C1010C94C1010C94C1010C94C10198
:1000E0000C94C1010C9476030C9461030C94E2010E
:1000F0000C9484030C946C030C945D030C946503C2
:100100000C9469030C94C5020C9432020C940405FF
:100110000C948A030C944B030C940F020C947802F9
:100120000C941E020C9446030C947C030C948E03D6
:100130000C9498030C9472030C9492030C94400258
:100140000C949C030C94800300000A0B02090C0D14
:100150000E0807030401000000000000000000007A
:10016000000000000000000000000000000000008F
:10017000000000001211100000000000000000004C
:10018000000000000000000000000000000000FC73
:10019000FE1212FEFC0000FEFE9292FE6C00007C3D
:1001A000FE8282C6440000FEFE8282FE7C0000FECB
:1001B000FE929292820000FEFE1212120200007C59
:1001C000FE82A2E6640000FEFE1010FEFE000000AB
:1001D00082FEFE8200000060E082FE7E020000FEE1
:1001E000FE386CC6820000FEFE808080800000FE2B
:1001F000FE0C180CFEFE00FEFE0C1830FEFE007C0D
:10020000FE8282FE7C0000FEFE22223E1C00003C9C
:100210007E4262FEBC0000FEFE3272DE8C00004CAC
:10022000DE9292F66400000602FEFE020600007EE8
:10023000FE8080FEFE00003E7EC0C07E3E0000FECE
:10024000FE603060FEFE00C6EE381038EEC6000ECE
:100250001EF0F01E0E0000C2E2B29A8E8600000070
:100260002200250028002B002E003100340002015E
:100270000000050108010B010000210024002700F7
:100280002A002D00300033000101000004010701A5
:100290000A0105050505070508080808020202020B
:1002A0000A0A080804040404010101010101010112
:1002B0000303030303030303040707070C0C0C0CDD
:1002C0000C0C0C0C020202020606060606060606C6
:1002D0000B0B0B0B0B0B0B0B010210202008081053
:1002E00020401020408002010201080402010102A6
:1002F000040810204080804020100804020180047F
:1003000002018040201008040201080402010102D9
:1003100004081020408001020408102040800405D9
:1003200011241FBECFEFD1E2DEBFCDBF00E00CBF76
:1003300012E0A0E0B2E0E4ECFFE000E00BBF02C09E
:1003400007900D92A034B107D9F723E0A0E4B2E002
:1003500001C01D92AD34B207E1F711E0C0E9D1E070
:1003600000E006C021970109802FFE010E94D807F6
:10037000CF38D10780E00807A9F70E9437050C9411
:10038000E0070C94000090E0FC01E852FD4F24913E
:100390008E569D4FFC018491882399F090E0880F40
:1003A000991FFC01E858FD4FA591B491FC01E25A58
:1003B000FD4F859194918FB7F894EC91E22BEC93DB
:1003C0008FBF0895AF92BF92CF92DF92EF92FF92CC
:1003D0000F931F93CF93DF936C017B018B01040F6D
:1003E000151FEB015E01AE18BF08C017D10759F009
:1003F0006991D601ED91FC910190F081E02DC6014B
:100400001995892B79F7C501DF91CF911F910F9134
:10041000FF90EF90DF90CF90BF90AF900895FC01D8
:10042000538D448D252F30E0842F90E0821B930B59
:10043000541710F0CF96089501970895FC01918DFF
:10044000828D981761F0A28DAE0FBF2FB11D5D9602
:100450008C91928D9F5F9F73928F90E008958FEFA4
:100460009FEF0895FC01918D828D981731F0828D58
:10047000E80FF11D858D90E008958FEF9FEF0895AF
:10048000FC01918D228D892F90E0805C9F4F821B13
:1004900091098F739927089589E492E00E944002A0
:1004A00021E0892B09F420E0822F0895FC01A48D1E
:1004B000A80FB92FB11DA35ABF4F2C91848D90E086
:1004C00001968F739927848FA689B7892C93A08969
:1004D000B1898C91837080648C93938D848D9813F3
:1004E00006C00288F389E02D80818F7D8083089586
:1004F000EF92FF920F931F93CF93DF93EC0181E074
:10050000888F9B8D8C8D98131AC0E889F98980811A
:1005100085FF15C09FB7F894EE89FF896083E8894D
:10052000F98980818370806480839FBF81E090E03F
:10053000DF91CF911F910F91FF90EF900895F62ECC
:100540000B8D10E00F5F1F4F0F731127E02E8C8D66
:100550008E110CC00FB607FCFACFE889F9898081AB
:1005600085FFF5CFCE010E945602F1CFEB8DEC0F47
:10057000FD2FF11DE35AFF4FF0829FB7F8940B8FC8
:10058000EA89FB8980818062CFCFCF93DF93EC0132
:10059000888D8823B9F0AA89BB89E889F9898C916B
:1005A00085FD03C0808186FD0DC00FB607FCF7CF27
:1005B0008C9185FFF2CF808185FFEDCFCE010E9427
:1005C0005602E9CFDF91CF91089580E090E0892B2A
:1005D00049F080E090E0892B29F00E940000811111
:1005E0000E94000080E090E0892B29F00E944C02DC
:1005F00081110E94000080E090E0892B49F080E0AA
:1006000090E0892B29F00E94000081110E940000D7
:1006100080E090E0892B49F080E090E0892B29F080
:100620000E94000081110C9400000895282F30E0F2
:10063000F901E85BFE4F9491F901E852FD4F4491B6
:100640002E563D4FF9012491222309F435C09923F8
:1006500011F191509231F8F4E92FF0E08827EC5C29
:10066000FC4F8F4F0C94D8076503690346035D0365
:1006700061034B036C03720376037C0380038403E2
:100680008A038E034B03920398039C03809180009E
:100690008F7780938000E22FF0E0EE0FFF1FE25A89
:1006A000FD4FA591B4918FB7F894EC91611148C0BA
:1006B00040954E234C938FBF0895809180008F7D8D
:1006C000E8CF80918000877FE4CF84B58F7784BDA9
:1006D000E2CF84B58F7DFBCF8091B0008F77809380
:1006E000B000D9CF8091B0008F7DF9CF809190007C
:1006F0008F7780939000CFCF809190008F7DF9CF3E
:1007000080919000877FF5CF8091A0008F778093B4
:10071000A000C1CF8091A0008F7DF9CF8091A00073
:10072000877FF5CF809120018F7780932001B3CF11
:10073000809120018F7DF9CF80912001877FF5CFB7
:100740004E2BB8CF3FB7F894809145029091460266
:10075000A0914702B091480226B5A89B05C02F3F43
:1007600019F00196A11DB11D3FBFBA2FA92F982FD7
:100770008827BC01CD01620F711D811D911D42E0D2
:10078000660F771F881F991F4A95D1F70895CF925A
:10079000DF92EF92FF920F931F93CF93DF931F92FD
:1007A0001F92CDB7DEB769834A83880F991F0091E6
:1007B0003C0310913D03000F111FE6EEF2E09F0194
:1007C000265E32402017310714F41192F8CF2981A8
:1007D000FC01EA51FD4F21838A81808360E0809192
:1007E0003A030E9416031016110604F50150110970
:1007F000F801EA51FD4FE080D0903803C0903603F5
:1008000088E0F82E6E2D661F6627661F8C2D0E94CD
:100810001603EE0C61E08D2D0E94160360E08D2D15
:100820000E941603FA94F110EDCFDDCF61E08091C4
:100830003A030F900F90DF91CF911F910F91FF908E
:10084000EF90DF90CF900C941603EF92FF921F93DE
:10085000CF93DF9320913C0330913D0382179307A0
:10086000B4F4EC0123E0880F991F2A95E1F79C016D
:100870002A503D4F790111E0F70111927F0140E0CC
:10088000612FCE010E94C7031F5F1930A9F7DF91C6
:10089000CF911F91FF90EF900895FC0101900020EF
:1008A000E9F73197AF01481B590BBC0189E492E08D
:1008B0000C94E2011F920F920FB60F9211240BB607
:1008C0000F922F933F934F935F936F937F938F93E9
:1008D0009F93AF93BF93EF93FF9389E492E00E94BD
:1008E0005602FF91EF91BF91AF919F918F917F91B0
:1008F0006F915F914F913F912F910F900BBE0F9091
:100900000FBE0F901F9018951F920F920FB60F9267
:1009100011240BB60F922F938F939F93EF93FF9316
:10092000E0915902F0915A028081E0915F02F091CA
:10093000600282FD1DC09081809162028F5F8F7383
:1009400020916302821741F0E0916202F0E0E75BE0
:10095000FD4F958F80936202FF91EF919F918F9150
:100960002F910F900BBE0F900FBE0F901F901895F8
:100970008081F2CF1F920F920FB60F9211242F9306
:100980003F938F939F93AF93BF9380914102909138
:100990004202A0914302B09144023091400223E010
:1009A000230F2D3758F50196A11DB11D209340024C
:1009B0008093410290934202A0934302B093440279
:1009C0008091450290914602A0914702B091480261
:1009D0000196A11DB11D8093450290934602A093FC
:1009E0004702B0934802BF91AF919F918F913F9181
:1009F0002F910F900FBE0F901F90189526E8230F90
:100A00000296A11DB11DD2CFE9E4F2E01382128259
:100A100088EE93E0A0E0B0E084839583A683B7835B
:100A20008CE092E0918380838DEC90E095878487C1
:100A30008CEC90E09787868788EC90E0918B808B98
:100A400089EC90E0938B828B8AEC90E0958B848B81
:100A50008EEC90E0978B868B118E128E138E148EF7
:100A60008FEF9FEF9093400380933F030895CF93C0
:100A7000DF93CDB7DEB7AD970FB6F894DEBF0FBEEC
:100A8000CDBF789484B5826084BD84B5816084BD17
:100A900085B5826085BD85B5816085BD80916E001C
:100AA000816080936E00109281008091810082604D
:100AB000809381008091810081608093810080918A
:100AC00080008160809380008091B1008460809379
:100AD000B1008091B00081608093B000809191005E
:100AE0008260809391008091910081608093910059
:100AF000809190008160809390008091A10082603D
:100B00008093A1008091A10081608093A1008091D9
:100B1000A00081608093A000809121018260809379
:100B20002101809121018160809321018091200128
:100B300081608093200180917A00846080937A00A4
:100B400080917A00826080937A0080917A0081603F
:100B500080937A0080917A00806880937A00109266
:100B6000C100E0915902F0915A0282E08083E09145
:100B70005502F09156021082E0915702F09158020E
:100B80008FEC808310926102E0915D02F0915E0231
:100B900086E08083E0915B02F0915C02808180615D
:100BA0008083E0915B02F0915C02808188608083A9
:100BB000E0915B02F0915C02808180688083E0912B
:100BC0005B02F0915C0280818F7D80830AE010E0FF
:100BD000109337030093360388E090E09093390335
:100BE0008093380389E090E090933B0380933A032D
:100BF00010923E0381E090E090933D0380933C038C
:100C00008AE00E94C301809138030E94C301809151
:100C10003A030E94C30161E080913A030E941603E7
:100C20001093370300933603E6EFF2E086E393E098
:100C300011928E179F07E1F710E000E080913C03CE
:100C400090913D030817190744F540E06FE0C80193
:100C50000E94C70380913C0390913D030817190738
:100C60002CF447E06BE0C8010E94C70340E069E054
:100C7000C8010E94C703C8010E94250480913C035B
:100C800090913D03081719072CF440E06CE0C8016F
:100C90000E94C7030F5F1F4FD1CF10E000E080918B
:100CA0003C0390913D0308171907BCF441E06CE048
:100CB000C8010E94C70380913C0390913D0308172F
:100CC00019072CF448E06AE0C8010E94C703C80174
:100CD0000E9425040F5F1F4FE2CF81E080933E0307
:100CE0005AE0452E512C612C712C10E000E0C09090
:100CF0003C03D0903D030C151D0534F4C8010E943F
:100D000025040F5F1F4FF3CF88E0E0E0F2E0DE0143
:100D1000929601900D928A95E1F7DE01929690E00D
:100D200080E0FC01E250FE4FE491ED9301968830A3
:100D30009105B9F780913E03811147C010E000E0B2
:100D400080913C0390913D0318161906B4F4E2E239
:100D5000F0E0EC0FFD1FE00FF11F4081F801EA51B8
:100D6000FD4F408B61E0600F90E080E00E94C70380
:100D70000F5F1F4F0830110519F70E94A2034B01A6
:100D80005C0180EDC82E87E0D82EE12CF12C0E946A
:100D9000A203681979098A099B09683E7340810595
:100DA0009105A8F391E0C91AD108E108F108E8EE2D
:100DB0008E0EE3E09E1EA11CB11CC114D104E104FF
:100DC000F10429F70E94E50290CF21E0C21AD10870
:100DD00043E0CC0CDD1C4A95E1F786010150110976
:100DE0008AE192E00E944D044801012E000CAA08FD
:100DF000BB0817FF41C06DE289E492E00E947802CF
:100E000022273327A901281939094A095B0919A2A0
:100E10008E010F5D1F4FCA01B901A30192010E940B
:100E2000B607605DF80162938F0121153105410518
:100E3000510589F70115110519F0C8010E944D04EB
:100E40008CE392E00E944D0488E090E040913C03E6
:100E500050913D038A01015011094130510511F4AF
:100E600001E010E09601281B390B37FF1BC0015031
:100E70001109285F3F4FF9CFA501940119A28E01F6
:100E80000F5D1F4FCA01B901A30192010E94B6076D
:100E9000605DF80162938F0121153105410551050F
:100EA00089F7C8CF0F3FFFEF1F070CF466CFBC01D7
:100EB000615071097B010F3F100709F44FC00417FF
:100EC00015070CF04BC0283031050CF047C0E2E2AA
:100ED000F0E0EC0FFD1FEE0DFF1D2080C80133E098
:100EE000880F991F3A95E1F79BA78AA780E890E0C1
:100EF00002C0959587952A95E2F78CA7E82FE09593
:100F0000EDA7B12CA12C312C80913C0390913D0395
:100F100008171907E4F4EAA5FBA5EA0DFB1DEA5141
:100F2000FD4F808927E030E02A193B09A10102C06A
:100F3000559547952A95E2F740FF15C05CA5852B8E
:100F4000808B408961E06A0DC8010E94C7037FEF72
:100F5000A71AB70A88E0A816B104B1F6C70100972E
:100F600009F074CF0ACF6DA58623EACFA1E21A2E2D
:100F7000AA1BBB1BFD010DC0AA1FBB1FEE1FFF1F3D
:100F8000A217B307E407F50720F0A21BB30BE40B8D
:100F9000F50B661F771F881F991F1A9469F76095D4
:100FA0007095809590959B01AC01BD01CF0108958E
:100FB000EE0FFF1F881F8BBF0790F691E02D19944D
:040FC000F894FFCFD3
:100FC40000082A1C771C2A08000000007802E201AD
:100FD4000F02C50240021E02320232204D617472B9
:100FE400696365732C20706F736963696F6E206524
:100FF4006D7069657A6120656E3A20000D0A000003
:00000001FF
