:100000000C945D000C9485000C9485000C94850084
:100010000C9485000C9485000C9485000C9485004C
:100020000C9485000C9485000C9485000C9485003C
:100030000C9485000C9485000C9485000C9485002C
:100040000C942E050C9485000C9485000C9485006E
:100050000C9485000C9485000C9485000C9485000C
:100060000C9478050C948500000000080002010043
:100070000003040700000000000000000000000072
:10008000250028002B0000000000240027002A0083
:10009000040404040404040402020202020203032E
:1000A0000303030301020408102040800102040836
:1000B0001020010204081020970611241FBECFEF64
:1000C000D8E0DEBFCDBF22E0ACE7B1E001C01D92B9
:1000D000A734B207E1F711E0A0E0B1E0EEEFF3E101
:1000E00002C005900D92AC37B107D9F710E0CDE50D
:1000F000D0E004C02197FE010E94FC07CC35D10757
:10010000C9F70E94C5060C94FD090C94000090E00C
:10011000FC01EC55FF4F249180579F4FFC018491C7
:10012000882399F090E0880F991FFC01EA57FF4F50
:10013000A591B491FC01E458FF4F859194918FB73C
:10014000F894EC91E22BEC938FBF08950895CF9330
:10015000DF93AC01E0911D02F0911E023097F1F0A7
:1001600090911C0280911B029817C0F090E0292FFB
:1001700030E02617370754F4D901A458BE4F240F96
:10018000351FE90128812C939F5FF1CF10921C024B
:1001900060931B02CB01DF91CF910994DF91CF9146
:1001A0000895AF92BF92CF92DF92EF92FF920F939A
:1001B0001F93CF93DF936C017B018B01040F151FFD
:1001C000EB015E01AE18BF08C017D10759F0699165
:1001D000D601ED91FC910190F081E02DC6010995C9
:1001E000892B79F7C501DF91CF911F910F91FF9076
:1001F000EF90DF90CF90BF90AF90089590E0FC011A
:10020000E859FF4F2491FC01EC55FF4F3491FC015C
:10021000E057FF4FE491EE23C9F0222339F0233059
:1002200001F1A8F4213019F1223029F1F0E0EE0FAC
:10023000FF1FE458FF4FA591B4918FB7F894EC914C
:10024000611126C030953E233C938FBF089527301F
:10025000A9F02830C9F0243049F7809180008F7DC3
:1002600003C0809180008F7780938000DFCF84B5BA
:100270008F7784BDDBCF84B58F7DFBCF8091B000BD
:100280008F778093B000D2CF8091B0008F7DF9CF6F
:100290003E2BDACF2091C201260F3327331F2132A4
:1002A0003105ECF42091E601FC0190E080E024307F
:1002B00069F082E00895A091C2012191AC014E55F0
:1002C0005E4FA40FB52FB11D2C930196861798F39E
:1002D0008091C201680F6093C20180E0089581E0BF
:1002E00008951092E60181E08093E8011092E70101
:1002F00061E082E10E94FE0061E083E10E94FE0075
:10030000E9EBF0E080818E7F808380818D7F808328
:1003100088E48093B80085E48093BC000895089534
:10032000E0911C0280911B02E81730F4F0E0E458E1
:10033000FE4F808190E008958FEF9FEF0895909198
:100340001C0280911B022FEF3FEF981748F4E92F12
:10035000F0E0E458FE4F208130E09F5F90931C0254
:10036000C901089580911B0290911C02891B990B71
:100370000895CF93DF93CB01EA01642F0E944A01D5
:10038000CE01DF91CF910895CF93DF931F92CDB728
:10039000DEB7698361E0CE0101960E944A0181E0E7
:1003A00090E00F90DF91CF910895089590E080E064
:1003B00008958F929F92AF92BF920F931F93CF9306
:1003C000DF93CDB7DEB7A1970FB6F894DEBF0FBEAF
:1003D000CDBF19A2423008F44AE08E010F5D1F4FD5
:1003E000842E912CB12CA12CA50194010E94C6074A
:1003F000E62FB901CA01EA3044F5E05DD801EE9379
:100400008D01232B242B252B79F790E080E010978A
:1004100069F0FD0101900020E9F73197AF014A1B17
:100420005B0BBD018BE292E00E94D100A1960FB65A
:10043000F894DEBF0FBECDBFDF91CF911F910F911A
:10044000BF90AF909F908F900895E95CD7CFFC014B
:1004500001900020E9F73197AF01481B590BBC010F
:100460008BE292E00C94D100CF93DF93EC0160E03B
:100470008E810E94FE0061E08E810E94FE0060E09D
:100480008E810E94FE008BE891E00197F1F7DF91E9
:10049000CF910895CF92DF92EF92FF920F931F9327
:1004A000CF93DF936C017C0187E0E80EF11CD0E074
:1004B000C0E0062F10E0B8010C2E02C075956795BC
:1004C0000A94E2F76170F70181917F010E94FE00BA
:1004D0002196C430D10579F7C601DF91CF911F91E4
:1004E0000F91FF90EF90DF90CF900C943402CF9259
:1004F000DF92EF92FF920F931F93CF93DF93EC0164
:10050000F62E642F8C810E94FE008D818F3F19F0A2
:1005100060E00E94FE000F2D10E08F8584FF25C053
:100520006E0187E0C80ED11CF12CE12CB8010E2C15
:1005300002C0759567950A94E2F76170F6018191A2
:100540006F010E94FE00FFEFEF1AFF0A88E0E81635
:10055000F10461F7CE01DF91CF911F910F91FF90D0
:10056000EF90DF90CF900C943402B80184E0759541
:1005700067958A95E1F7CE010E944A026F2DCE0160
:10058000DF91CF911F910F91FF90EF90DF90CF906F
:100590000C944A0240E0682F8BE292E00C947702C0
:1005A00081E00E94CA028BE39FE10197F1F7089571
:1005B000CF93DF93823029F490913A029860909320
:1005C0003A0280933E0210923F0280E48093400200
:1005D00080E18093410280E58093420280912F0266
:1005E0000E948700809130028F3F11F00E948700A7
:1005F000809131020E948700CBE2D2E09E012B5213
:10060000324080913A0284FD0AC084E090E0219655
:10061000281739073CF48E810E948700EFCF88E0CD
:1006200090E0F5CF8BE39DE00197F1F760E08091DA
:100630002F020E94FE0060E0809131020E94FE00C5
:10064000809130028F3F19F060E00E94FE0080919F
:100650003A0284FD34C063E08BE292E00E944A02D9
:10066000CBE4D6E4CE010197F1F763E08BE292E0B0
:100670000E944A022197F1F763E08BE292E00E9428
:100680004A0283E592E00197F1F762E08BE292E0A3
:100690000E944A0280913A0280620E94CA0284E06B
:1006A00080933B028CE00E94CA020E94D00282E04A
:1006B00080933C0286E0DF91CF910C94CA02806265
:1006C0000E94CA028BE496E40197F1F780913A0206
:1006D00080620E94CA0283E592E00197F1F780915F
:1006E0003A0280620E94CA02D5CF90913E026917F9
:1006F00010F06FEF690FE62FF0E0E55DFD4F948994
:10070000890F80680C94CA0241E00E94770281E060
:1007100090E00895CF92DF92EF92FF926C01092E44
:10072000000CEE08FF0897FF16C041E06DE28BE277
:1007300092E00E94770266277727CB016C197D092A
:100740008E099F094AE00E94D9010196FF90EF901F
:10075000DF90CF9008954AE0C701B601FF90EF9077
:10076000DF90CF900C94D9010F931F93CF93DF9319
:10077000EC0188819981009759F02A813B812617E5
:10078000370730F081E0DF91CF911F910F910895ED
:100790008B016F5F7F4F0E942709009759F0998363
:1007A00088831B830A832C813D81232B59F7FC010D
:1007B0001082E8CF80E0E7CFCF93DF9385ED809381
:1007C000BC0080919E0190919F01A091A001B091E9
:1007D000A1010796A11DB11D23E0B695A795979598
:1007E00087952A95D1F72091BC0024FD03C0109273
:1007F000E60136C040919E0150919F016091A00199
:100800007091A101452B462B472B69F30097A10559
:10081000B10541F025E32A95F1F700000197A10900
:10082000B109E1CF80919D0191E090939C018823D3
:10083000B9F0C091B800D091BA008091BC008A7B19
:100840008093BC0060E082E10E94FE0060E083E1F2
:100850000E94FE000E947101D093BA00C093B800BC
:10086000DF91CF910895EF92FF920F931F93CF9353
:10087000DF93CDB7DEB728970FB6F894DEBF0FBE73
:10088000CDBF7C011A8219821C821B821E821D82AE
:1008900070E060E0CE0101960E94B40329813A81A4
:1008A000811131C02115310519F0C9010E949E083E
:1008B0001A8219821E821D821C821B821E141F0432
:1008C00054F58FE192E00E949F018F8318860D817D
:1008D0001E810F5F1F4FB801CE0101960E94B40325
:1008E000882369F029813A818D819E81BE01695FEB
:1008F0007F4F820F931F0E94F6091E830D8381E0B4
:10090000E81AF108DBCF1E821D826DE571E0C90196
:100910000E94F609D3CF09811A818D819E81892B8E
:1009200009F446C064E271E0C8010E94ED09892B18
:1009300029F50E94D00260E081E00E9475038CE2FC
:1009400091E00E94270261E081E00E94750386E346
:1009500091E00E94270289819A81009711F00E94FC
:100960009E0828960FB6F894DEBF0FBECDBFDF916C
:10097000CF911F910F91FF90EF90089561E471E086
:10098000C8010E94ED09892B99F40E94D00261E010
:1009900081E00E94750388E491E00E94270260E0F4
:1009A00086E00E94FE0060E085E00E94FE00D3CF5A
:1009B00060E070E0CB010115110519F0C8010E943B
:1009C0003F078B0160E081E00E94750380E591E0C4
:1009D0000E94270260E087E00E947503C8016AE078
:1009E00070E00E94B2077C01CB010E948A038D81D6
:1009F00060E08A5F0E94750387E591E00E9427020C
:100A00008D8160E0895F0E947503C7010E948A039F
:100A10008D8160E0885F0E94750389E591E00E9406
:100A2000270261E081E00E9475030E3B11051CF472
:100A30008EE591E0B2CF0430114034F488E691E0C5
:100A40000E94270261E0ACCF82E791E00E9427027A
:100A500061E086E00E94FE0061E0A6CF1F920F9247
:100A60000FB60F9211242F933F938F939F93AF93C1
:100A7000BF938091110290911202A0911302B09144
:100A800014023091100223E0230F2D3758F5019600
:100A9000A11DB11D209310028093110290931202A8
:100AA000A0931302B093140280910C0290910D0256
:100AB000A0910E02B0910F020196A11DB11D80936D
:100AC0000C0290930D02A0930E02B0930F02BF91FF
:100AD000AF919F918F913F912F910F900FBE0F90EB
:100AE0001F90189526E8230F0296A11DB11DD2CFA5
:100AF0001F920F920FB60F9211242F933F934F9393
:100B00005F936F937F938F939F93AF93BF93EF9375
:100B1000FF938091B900887F803609F44AC0F0F5D0
:100B2000883209F4A7C018F5803109F49BC0B8F4E5
:100B3000882309F4F9C0883009F494C0FF91EF913B
:100B4000BF91AF919F918F917F916F915F914F91E5
:100B50003F912F910F900FBE0F901F9018958831E5
:100B600009F488C0803251F78093E50114C08034C5
:100B700009F49DC040F48033B9F38833F9F68093CB
:100B8000E50185ECB0C0803509F485C0883509F4ED
:100B900096C0883499F60E94DC03D0CF883909F4D6
:100BA0008CC038F5883729F050F4883611F080373A
:100BB00029F683E08093E6011092E40157C088385B
:100BC00009F47BC0803919F0803809F0B7CF8091E3
:100BD000E401803208F071C0E091E40181E08E0F01
:100BE0008093E4018091BB00F0E0EC53FE4F8083E2
:100BF0003DC0803B39F0E0F4803A09F479C0883A8E
:100C000009F09CCF84E08093E6011092C30110921A
:100C1000C201E0911702F091180209958091C2017A
:100C200081110FC081E08093C2011092A20109C01E
:100C3000803C09F4A6CF883C09F4A3CF883B09F097
:100C40007DCFE091C30181E08E0F8093C301F0E07E
:100C5000EE55FE4F80818093BB009091C30180913F
:100C6000C20129C080910B028093BB0085EC809368
:100C7000BC0064CF90910A0280910902981758F540
:100C8000E0910A0281E08E0F80930A02F0E0E751C2
:100C9000FE4F8081E9CFE0910A0281E08E0F8093C0
:100CA0000A028091BB00F0E0E751FE4F80839091F3
:100CB0000A02809109029817C8F285E8D8CFE0911E
:100CC0000A0281E08E0F80930A028091BB00F0E05F
:100CD000E751FE4F80838091E80181115CCF81E074
:100CE0008093E70184EA8093BC001092E60126CF4E
:100CF00085EC8093BC001092E6018091E401803283
:100D000030F4E091E401F0E0EC53FE4F108260918A
:100D1000E40170E0E0911502F091160284EC91E09C
:100D200009951092E4010ACF1092E50134CFEFE16A
:100D3000F2E01382128288EE93E0A0E0B0E08483B8
:100D40009583A683B7838AE091E091838083EBE269
:100D5000F2E0138212828CE191E0918380838DE036
:100D600084838FEF85838CE086838AE0878389E0A4
:100D7000808788E0818787E08287138614861586BE
:100D80001686178681E00C94D802789484B5826028
:100D900084BD84B5816084BD85B5826085BD85B51F
:100DA000816085BD80916E00816080936E0010929D
:100DB0008100809181008260809381008091810018
:100DC00081608093810080918000816080938000A9
:100DD0008091B10084608093B1008091B000816007
:100DE0008093B00080917A00846080937A00809133
:100DF0007A00826080937A0080917A00816080938B
:100E00007A0080917A00806880937A001092C10005
:100E100086E00E94870085E00E94870010921C02F5
:100E200010921B0210921A02109219020E94710174
:100E300086EA90E0909318028093170287EA90E088
:100E4000909316028093150284E18093BA0083E3A5
:100E500094E090931E0280931D0282E00E94D802CB
:100E600061E081E00E94750388E491E00E9427021E
:100E7000C0E0D0E02097F1F30E940000FBCF1F9369
:100E8000FC0199278827BC01E89411911032E9F3FD
:100E9000193010F01E30C8F31B3251F01D3249F4E6
:100EA000689406C00E946607610F711D811D911D27
:100EB000119110531A30B0F33EF4909580957095CF
:100EC00061957F4F8F4F9F4F1F910895592F482F46
:100ED000372F262F660F771F881F991F660F771FE2
:100EE000881F991F620F731F841F951F660F771F3E
:100EF000881F991F08952F923F924F925F926F9291
:100F00007F928F929F92AF92BF92CF92DF92EF9299
:100F1000FF920F931F93CF93DF93CDB7DEB7CA1B1A
:100F2000DB0B0FB6F894DEBF0FBECDBF09942A8845
:100F3000398848885F846E847D848C849B84AA84ED
:100F4000B984C884DF80EE80FD800C811B81AA817A
:100F5000B981CE0FD11D0FB6F894DEBF0FBECDBF45
:100F6000ED01089597FB072E16F4009407D077FD46
:100F700009D00E94E80707FC05D03EF490958195C2
:100F80009F4F0895709561957F4F0895A1E21A2EA5
:100F9000AA1BBB1BFD010DC0AA1FBB1FEE1FFF1F1D
:100FA000A217B307E407F50720F0A21BB30BE40B6D
:100FB000F50B661F771F881F991F1A9469F76095B4
:100FC0007095809590959B01AC01BD01CF0108956E
:100FD000AA1BBB1B51E107C0AA1FBB1FA617B7075F
:100FE00010F0A61BB70B881F991F5A95A9F780957B
:100FF0009095BC01CD010895EE0FFF1F0590F4916F
:10100000E02D09940F931F93CF93DF9382309105C6
:1010100010F482E090E0E0914502F091460230E069
:1010200020E0B0E0A0E0309799F42115310509F4F3
:101030004AC0281B390B24303105D8F58A819B81A1
:101040006115710589F1FB0193838283FE0111C053
:10105000408151810281138148175907E0F04817F8
:10106000590799F4109761F012960C931297139602
:101070001C933296CF01DF91CF911F910F9108956C
:101080000093450210934602F4CF2115310551F02B
:101090004217530738F0A901DB019A01BD01DF01B6
:1010A000F801C1CFEF01F9CF90934602809345023A
:1010B000CDCFFE01E20FF31F8193919322503109AE
:1010C00039832883D7CF2091430230914402232BC8
:1010D00041F42091020130910301309344022093A6
:1010E000430220910001309101012115310541F4A5
:1010F0002DB73EB74091040150910501241B350BDB
:10110000E0914302F0914402E217F307A0F42E1B92
:101110003F0B2817390778F0AC014E5F5F4F24175B
:10112000350748F04E0F5F1F50934402409343022F
:10113000819391939FCFF0E0E0E09CCFCF93DF933A
:101140000097E9F0FC01329713821282A0914502C8
:10115000B0914602ED0130E020E01097A1F420812B
:101160003181820F931F209143023091440228174E
:10117000390709F061C0F0934402E0934302DF9124
:10118000CF910895EA01CE17DF07E8F54A815B8128
:101190009E0141155105B1F7E901FB83EA834991AD
:1011A0005991C40FD51FEC17FD0761F4808191811F
:1011B0000296840F951FE901998388838281938128
:1011C0009B838A83F0E0E0E012968D919C911397C7
:1011D0000097B9F52D913C911197CD010296820FA0
:1011E000931F20914302309144022817390739F6A2
:1011F000309751F51092460210924502B093440286
:10120000A0934302BCCFD383C28340815181840F1A
:10121000951FC817D90761F44E5F5F4F8881998188
:10122000480F591F518340838A819B819383828316
:101230002115310509F0B0CFF0934602E093450245
:101240009ECFFD01DC01C0CF13821282D7CFB0E068
:10125000A0E0EDE2F9E00C947D078C01009751F4D9
:10126000CB010E9402088C01C801CDB7DEB7E0E1D6
:101270000C949907FC01E60FF71F9C0122503109DD
:10128000E217F30708F49DC0D901CD91DC911197C5
:10129000C617D70798F0C530D10530F3CE010497B3
:1012A0008617970708F3C61BD70B2297C193D193D4
:1012B0006D937C93CF010E949E08D6CF5B01AC1A40
:1012C000BD0A4C018C0E9D1EA0914502B0914602B4
:1012D000512C412CF12CE12C109731F580914302D7
:1012E000909144028815990509F05CC0461657068E
:1012F00008F058C08091000190910101009741F4DD
:101300008DB79EB74091040150910501841B950B48
:10131000E817F90708F055C0F0934402E093430240
:10132000F90171836083A0CF8D919C9111971296E2
:101330006C90129713967C901397A815B90559F5E0
:101340006C0142E0C40ED11CCA14DB0420F1AC01D4
:101350004A195B09DA011296159780F0628273824E
:1013600051834083D9016D937C93E114F10471F0B2
:10137000D7011396FC93EE93129776CF22968C0F9B
:101380009D1FF90191838083F301EFCFF093460213
:10139000E093450269CF4816590608F42C017D01F7
:1013A000D3019ACFCB010E9402087C01009749F03B
:1013B000AE01B8010E94E409C8010E949E0887019D
:1013C00053CF10E000E050CFFB01DC0102C00190E0
:1013D0000D9241505040D8F70895FB01DC018D91EA
:1013E000019080190110D9F3990B0895FB01DC01DC
:0E13F00001900D920020E1F70895F894FFCFD0
:1013FE0000004702800000000000C401B901D601C0
:10140E008F01B2019F019001000000008403D10002
:10141E00D601D501414354495641520054454D50D1
:10142E003A202D2D20004E4956454C3A202D2D2088
:10143E0000415041474152004150414741444F0005
:10144E0054454D503A20002E0020432020004E4996
:10145E0056454C3A203120004E4956454C3A2032E2
:0C146E0020004E4956454C3A2033200027
:00000001FF
