:020000040000FA
:100000000C94A2010C94D3010C94D3010C94D30151
:100010000C94D3010C94D3010C94D3010C94D30110
:100020000C94D3010C94D3010C94D3010C94D30100
:100030000C94D3010C94D3010C94D3010C94D301F0
:100040000C94D3010C94D3010C94D3010C94D301E0
:100050000C94D3010C94D3010C94D3010C9490070D
:100060000C94D3010C945A070C9430070C94D301D0
:100070000C94D3010C94D3010C94D3010C94D301B0
:100080000C94D3010C94D3010C94D3010C94D301A0
:100090000C94D3010C94D3010C94D3010C94D30190
:1000A0000C94D3010C94D3010C94D3010C94D30180
:1000B0000C94D3010C94D3010C94D3010C94D30170
:1000C0000C94D3010C94D3010C94D3010C94D30160
:1000D0000C94D3010C94D3010C94D3010C94D30150
:1000E0000C94D30107634236B79BD8A71A396856D8
:1000F00018AEBAAB558C1D3CB7CC5763BD6DEDFD4A
:10010000753EF6177231BF000000803F0800000006
:10011000BE922449123EABAAAA2ABECDCCCC4C3EFC
:1001200000000080BEABAAAAAA3E00000000BF00EB
:100130000000803F0000000000084178D3BB4387E7
:10014000D1133D190E3CC3BD4282AD2B3E68EC82FB
:1001500076BED98FE1A93E4C80EFFFBE01C4FF7F80
:100160003F00000000000C94B6030C94CD060C94E4
:100170008D030C94C1060C94C0030C944C060C9493
:10018000A0020C94AA060C94D3060C94DA070C94E3
:10019000D6060C9465060C9494030C949A030C9464
:1001A00037020C94B6060C9468020C945C060C940E
:1001B000B80D0C94B0060C94C4030C94B9060C94BE
:1001C000CA060C9468060C9459060C94A7060C9465
:1001D00056060C94DF060C94B2030C9453060C9450
:1001E0009E030C94A4030C94AD060C9489030C9408
:1001F000BA030C94A4060C94A8030C9483060C94E4
:100200000A020C9491030C945F060C9485030C94E1
:1002100062060C946E030C94AC030C94D9060C94F7
:10022000ED020C94B3060C945A020C94DC060C9468
:1002300046020C9473030C94D00600000A0B0209CA
:100240000C0D0E0807030401000000000000000070
:10025000000000000000000000000000000000009E
:10026000000000000000121110000000000000005B
:10027000000000000000000000000000000000007E
:1002800000002200250028002B002E003100340041
:1002900002010000050108010B01000021002400FB
:1002A00027002A002D003000330001010000040166
:1002B00007010A01050505050705080808080202E7
:1002C00002020A0A080804040404010101010101F0
:1002D00001010303030303030303040707070C0CD3
:1002E0000C0C0C0C0C0C020202020606060606069A
:1002F00006060B0B0B0B0B0B0B0B0102102020083F
:100300000810204010204080020102010804020170
:1003100001020408102040808040201008040201DF
:100320008004020180402010080402010804020138
:1003300001020408102040800102040810204080BF
:10034000DA07B80D11241FBECFEFD1E2DEBFCDBF5B
:1003500000E00CBF23E0A2E3B2E001C01D92AD3487
:10036000B207E1F712E0A0E0B2E0E2E5F7E200E078
:100370000BBF02C007900D92A233B107D9F711E06D
:10038000C1EAD1E000E006C021970109802FFE01FB
:100390000E946511C03AD10780E00807A9F70E94C2
:1003A00015080C9497130C9400002091470330918A
:1003B00048038217930760F420914303309144036C
:1003C0002115310529F0280F391FF9018081089581
:1003D00080E00895089590E0FC01E650FD4F2491DF
:1003E0008C549D4FFC018491882399F090E0880FF4
:1003F000991FFC01E656FD4FA591B491FC01E05810
:10040000FD4F859194918FB7F894EC91E22BEC938A
:100410008FBF0895AF92BF92CF92DF92EF92FF927B
:100420000F931F93CF93DF936C017B018B01040F1C
:10043000151FEB015E01AE18BF08C017D10759F0B8
:100440006991D601ED91FC910190F081E02DC601FA
:100450001995892B79F7C501DF91CF911F910F91E4
:10046000FF90EF90DF90CF90BF90AF900895FC0188
:10047000538D448D252F30E0842F90E0821B930B09
:10048000541710F0CF96089501970895FC01918DAF
:10049000828D981761F0A28DAE0FBF2FB11D5D96B2
:1004A0008C91928D9F5F9F73928F90E008958FEF54
:1004B0009FEF0895FC01918D828D981731F0828D08
:1004C000E80FF11D858D90E008958FEF9FEF08955F
:1004D000FC01918D228D892F90E0805C9F4F821BC3
:1004E00091098F73992708958DE492E00E94680224
:1004F00021E0892B09F420E0822F0895FC01A48DCE
:10050000A80FB92FB11DA35ABF4F2C91848D90E035
:1005100001968F739927848FA689B7892C93A08918
:10052000B1898C91837080648C93938D848D9813A2
:1005300006C00288F389E02D80818F7D8083089535
:10054000EF92FF920F931F93CF93DF93EC0181E023
:10055000888F9B8D8C8D98131AC0E889F9898081CA
:1005600085FF15C09FB7F894EE89FF896083E889FD
:10057000F98980818370806480839FBF81E090E0EF
:10058000DF91CF911F910F91FF90EF900895F62E7C
:100590000B8D10E00F5F1F4F0F731127E02E8C8D16
:1005A0008E110CC00FB607FCFACFE889F98980815B
:1005B00085FFF5CFCE010E947E02F1CFEB8DEC0FCF
:1005C000FD2FF11DE35AFF4FF0829FB7F8940B8F78
:1005D000EA89FB8980818062CFCFCF93DF93EC01E2
:1005E000888D8823B9F0AA89BB89E889F9898C911B
:1005F00085FD03C0808186FD0DC00FB607FCF7CFD7
:100600008C9185FFF2CF808185FFEDCFCE010E94D6
:100610007E02E9CFDF91CF91089580E090E0892BB1
:1006200029F00E94740281110E94000080E090E095
:10063000892B49F080E090E0892B29F00E9400008E
:1006400081110E94000080E090E0892B49F080E059
:1006500090E0892B29F00E94000081110E94000087
:1006600080E090E0892B49F080E090E0892B29F030
:100670000E94000081110C9400000895282F30E0A2
:10068000F901E65CFD4F9491F901E650FD4F44916C
:100690002C543D4FF9012491222309F435C09923AC
:1006A00011F191509231F8F4E92FF0E08827E45AE3
:1006B000FC4F8F4F0C9465118D0391036E038503DE
:1006C0008903730394039A039E03A403A803AC0352
:1006D000B203B6037303BA03C003C403809180005E
:1006E0008F7780938000E22FF0E0EE0FFF1FE0583D
:1006F000FD4FA591B4918FB7F894EC91611148C06A
:1007000040954E234C938FBF0895809180008F7D3C
:10071000E8CF80918000877FE4CF84B58F7784BD58
:10072000E2CF84B58F7DFBCF8091B0008F7780932F
:10073000B000D9CF8091B0008F7DF9CF809190002B
:100740008F7780939000CFCF809190008F7DF9CFED
:1007500080919000877FF5CF8091A0008F77809364
:10076000A000C1CF8091A0008F7DF9CF8091A00023
:10077000877FF5CF809120018F7780932001B3CFC1
:10078000809120018F7DF9CF80912001877FF5CF67
:100790004E2BB8CF3FB7F894809137029091380232
:1007A000A0913902B0913A0226B5A89B05C02F3F0F
:1007B00019F00196A11DB11D3FBFBA2FA92F982F87
:1007C0008827BC01CD01620F711D811D911D42E082
:1007D000660F771F881F991F4A95D1F7089580915A
:1007E0003B0290913C028230910551F12CF400972C
:1007F00049F00197B1F008958330910581F1049794
:10080000E9F10895809145029091460220913D02C0
:1008100030913E02820F931F9093460280934502CF
:10082000089580913F029091400220913D023091C5
:100830003E02820F931F9093400280933F020895DF
:10084000809147029091480220913D0230913E02F2
:10085000820F931F909348028093470208958091DE
:10086000490290914A0220913D0230913E02820F4E
:10087000931F90934A0280934902089580914B02FE
:1008800090914C0220913D0230913E02820F931FC5
:1008900090934C0280934B020895CF92DF92EF9297
:1008A000FF920F931F93CF93DF931F921F92CDB7A9
:1008B000DEB769834A83880F991F00914003109126
:1008C0004103000F111FEAEEF2E09F012A5E324061
:1008D0002017310714F41192F8CF2981FC01E65159
:1008E000FD4F21838A81808360E080913E030E94D6
:1008F0003E031016110604F501501109F801E651E6
:10090000FD4FE080D0903C03C0903A0388E0F82E81
:100910006E2D661F6627661F8C2D0E943E03EE0C0F
:1009200061E08D2D0E943E0360E08D2D0E943E030C
:10093000FA94F110EDCFDDCF61E080913E030F908E
:100940000F90DF91CF911F910F91FF90EF90DF906B
:10095000CF900C943E03EF92FF921F93CF93DF93BF
:10096000209140033091410382179307B4F4EC01C6
:1009700023E0880F991F2A95E1F79C0126503D4FEF
:10098000790111E0F70111927F0140E0612FCE0162
:100990000E944D041F5F1930A9F7DF91CF911F917D
:1009A000FF90EF900895209140033091410382170A
:1009B0009307ECF468307105D0F448305105B8F471
:1009C000FC0123E0EE0FFF1F2A95E1F7E60FF71F6A
:1009D00020E830E002C0359527954A95E2F7E651C8
:1009E000FD4F4089422B408B6F5F0C944D0408955E
:1009F000FC0180819181009711F00C941D120895E3
:100A0000CF93DF93EC0180914303909144030097CF
:100A1000E9F06881798161157105B1F04091450374
:100A2000509146032C813D814217530768F00E9484
:100A300090138C819D8190934803809347031D827E
:100A40001C82DF91CF9108950E941D1288819981A7
:100A500090934403809343038A819B819093460340
:100A6000809345038C819D81909348038093470335
:100A7000198218821B821A82E2CF0F931F93CF93A1
:100A8000DF93EC0188819981009759F02A813B819D
:100A90002617370730F081E0DF91CF911F910F913A
:100AA00008958B016F5F7F4F0E94A612009759F047
:100AB000998388831B830A832C813D81232B59F7DB
:100AC000FC011082E8CF80E0E7CFEF92FF920F9316
:100AD0001F93CF93DF93EC017B018A01BA010E943F
:100AE0003D0528813981811114C02115310519F086
:100AF000C9010E941D12198218821D821C821B824C
:100B00001A82CE01DF91CF911F910F91FF90EF904C
:100B100008951D830C83B701C9010E949013F1CF82
:100B2000CF92DF92EF92FF920F931F93CF93DF93B9
:100B3000EC016B017A014617570720F48D2D6A01ED
:100B4000E62EF82E198218821B821A821D821C82C0
:100B500050E040E061E372E0CE010E946505009143
:100B6000470310914803C016D10640F5E016F10680
:100B700008F48701E0914303F0914403E00FF11F73
:100B8000F080108260914303709144036C0D7D1DD1
:100B900061157105E9F0FB0101900020E9F731973B
:100BA000AF01461B570BCE010E94650580914303A0
:100BB00090914403080F191FF801F082CE01DF91D4
:100BC000CF911F910F91FF90EF90DF90CF900895FC
:100BD00088819981009711F00E941D121982188254
:100BE0001D821C821B821A82E1CF1F93CF93DF9359
:100BF00000D000D0CDB7DEB790E080E00E94D501F4
:100C0000182F81E090E00E94D501982F812F8F7DD1
:100C1000883581F481E090E090933E0280933D021C
:100C200026960FB6F894DEBF0FBECDBFDF91CF91F1
:100C30001F910895409147035091480380ED890F1B
:100C40008A3008F448C0EFECE10FE93090F40E2E42
:100C5000000CFF0B8827E05DF94F8F4F0C94651156
:100C60004C065306560659065C065F066206650684
:100C7000680610923E0210923D0261E070E0CE01E3
:100C800001960E949005CE0101960E940005CE01BA
:100C900001960E94F804C4CF81E090E090933E0258
:100CA00080933D02EACF82E090E0F8CF83E090E0CD
:100CB000F5CF84E090E0F2CF85E090E0EFCF86E0E2
:100CC00090E0ECCF87E090E0E9CF88E090E0E6CFDD
:100CD00089E090E0E3CFE0EDE10FEA3008F04CC0AE
:100CE0000E2E000CFF0B8827E758F94F8F4F0C94FE
:100CF000651183068306A406A706AA06AD06B006FC
:100D0000B306B606B9062AE030E030933E022093DF
:100D10003D02EFECE90FE93008F039C00E2E000C6F
:100D2000FF0B20913D0230913E028827E556F94F96
:100D30008F4F0C946511C106CA06CD06D006D306A6
:100D4000D606D906DC06DF0624E130E0DECF2EE150
:100D500030E0DBCF28E230E0D8CF22E330E0D5CF5F
:100D60002CE330E0D2CF26E430E0CFCF20E530E0F6
:100D7000CCCF2AE530E0C9CF10923E0210923D025E
:100D8000C8CF2F5F3F4F30933E0220933D0262E079
:100D900070E075CF2E5F3F4FF6CF2D5F3F4FF3CF03
:100DA0002C5F3F4FF0CF2B5F3F4FEDCF2A5F3F4F80
:100DB000EACF295F3F4FE7CF285F3F4FE4CF275F60
:100DC0003F4FE1CF0F931F93CF93DF9300D000D01D
:100DD000CDB7DEB790E080E00E94D5018F7D8835E9
:100DE000D1F581E090E00E94D50100914703109178
:100DF00048038E3531F582E090E00E94D501082E3F
:100E0000000C990BC09790933C0280933B02A80181
:100E100063E070E0CE0101960E949005CE0101963C
:100E20000E940005CE0101960E94F80426960FB696
:100E3000F894DEBF0FBECDBFDF91CF911F910F9110
:100E4000089581E090E090933C0280933B02A801DA
:100E500062E070E0DFCF10923C0210923B02E6CFDE
:100E60001F920F920FB60F9211240BB60F922F9371
:100E70003F934F935F936F937F938F939F93AF9322
:100E8000BF93EF93FF938DE492E00E947E02FF9167
:100E9000EF91BF91AF919F918F917F916F915F91F2
:100EA0004F913F912F910F900BBE0F900FBE0F905F
:100EB0001F9018951F920F920FB60F9211240BB628
:100EC0000F922F938F939F93EF93FF93E0915D0287
:100ED000F0915E028081E0916302F091640282FDF4
:100EE0001DC09081809166028F5F8F732091670291
:100EF000821741F0E0916602F0E0E35BFD4F958FD1
:100F000080936602FF91EF919F918F912F910F90A7
:100F10000BBE0F900FBE0F901F9018958081F2CFDF
:100F20001F920F920FB60F9211242F933F938F931E
:100F30009F93AF93BF938091330290913402A0911D
:100F40003502B09136023091320223E0230F2D3763
:100F500058F50196A11DB11D2093320280933302F2
:100F600090933402A0933502B093360280913702F9
:100F700090913802A0913902B0913A020196A11DD8
:100F8000B11D8093370290933802A0933902B09339
:100F90003A02BF91AF919F918F913F912F910F9006
:100FA0000FBE0F901F90189526E8230F0296A11DE3
:100FB000B11DD2CFEDE4F2E01382128288EE93E00D
:100FC000A0E0B0E084839583A683B7838EE092E0AF
:100FD0009183808385EC90E09587848784EC90E012
:100FE0009787868780EC90E0918B808B81EC90E0F6
:100FF000938B828B82EC90E0958B848B86EC90E0D7
:10100000978B868B118E128E138E148EE3E4F3E091
:1010100011821082138212821582148245E150E0FF
:101020006CE172E0CF010C946505CF93DF93CDB7EF
:10103000DEB7A2970FB6F894DEBF0FBECDBF78948F
:1010400084B5826084BD84B5816084BD85B58260CD
:1010500085BD85B5816085BD80916E00816080937E
:101060006E001092810080918100826080938100E7
:1010700080918100816080938100809180008160F7
:10108000809380008091B10084608093B100809152
:10109000B00081608093B000809191008260809365
:1010A00091008091910081608093910080919000E7
:1010B0008160809390008091A10082608093A10064
:1010C0008091A10081608093A1008091A000816047
:1010D0008093A00080912101826080932101809102
:1010E00021018160809321018091200181608093A2
:1010F000200180917A00846080937A0080917A0048
:10110000826080937A0080917A00816080937A0077
:1011100080917A00806880937A001092C100E091FB
:101120005D02F0915E0282E08083E0915902F091CD
:101130005A021082E0915B02F0915C028FEC808396
:1011400010926502E0916102F091620286E0808374
:10115000E0915F02F0916002808180618083E09184
:101160005F02F0916002808188608083E0915F027D
:10117000F0916002808180688083E0915F02F0914D
:10118000600280818F7D80830AE010E010933B0332
:1011900000933A0388E090E090933D0380933C03F2
:1011A00089E090E090933F0380933E0310924203C6
:1011B00084E090E090934103809340038AE00E9492
:1011C000EB0180913C030E94EB0180913E030E9461
:1011D000EB0161E080913E030E943E0310933B03CC
:1011E00000933A03EAEFF2E08AE393E011928E175C
:1011F0009F07E1F710E000E08091400390914103E8
:101200000817190744F540E06FE0C8010E944D043B
:101210008091400390914103081719072CF447E08F
:101220006BE0C8010E944D0440E069E0C8010E94E3
:101230004D04C8010E94AB0480914003909141038A
:10124000081719072CF440E06CE0C8010E944D0417
:101250000F5F1F4FD1CF10E000E0809140039091CD
:10126000410308171907BCF441E06CE0C8010E9473
:101270004D048091400390914103081719072CF405
:1012800048E06AE0C8010E944D04C8010E94AB0416
:101290000F5F1F4FE2CF81E08093420310E000E038
:1012A00080914003909141030817190734F4C80155
:1012B0000E94AB040F5F1F4FF3CF50E040E061E3AB
:1012C00072E083E493E00E9465058DE492E00E9461
:1012D0006802892BD1F38DE492E00E9446028432A9
:1012E00019F189831A8200914703109148030F5F17
:1012F0001F4FB80183E493E00E943D05882329F342
:101300002091430330914403809147039091480317
:10131000BE016F5F7F4F820F931F0E949013109347
:10132000480300934703D1CF10E000E080914003D1
:10133000909141030817190734F4C8010E94AB04C7
:101340000F5F1F4FF3CF109246021092450210928A
:10135000400210923F0210924802109247021092EF
:101360004A021092490210924C0210924B020091D4
:101370004703109148030115110509F4A2C090E03C
:1013800080E00E94D5018A33C4F580330CF054C04C
:101390008B3209F442C08D3271F7A80161E070E030
:1013A000CE0101960E949005CE0101960E94000593
:1013B000CE0101960E94F8040E94F5050E94E20603
:1013C00080913B0290913C028230910509F45BC010
:1013D000B4F5009709F448C0019749F680913F029F
:1013E0009091400220913D0230913E02821B930B6E
:1013F0009093400280933F02BACF883519F0883726
:1014000009F0B9CF21E030E030933E0220933D0255
:101410000E94E2060E94EF03AACFA80161E070E0FB
:10142000CE0101960E949005CE0101960E94000512
:10143000CE0101960E94F8040E94F505E9CF8330A1
:10144000910581F1049709F092CF80914B02909120
:101450004C0220913D0230913E02821B930B9093EF
:101460004C0280934B0283CF8091450290914602BB
:1014700020913D0230913E02821B930B90934602D5
:101480008093450274CF8091470290914802209149
:101490003D0230913E02821B930B90934802809351
:1014A000470265CF8091490290914A0220913D0206
:1014B00030913E02821B930B90934A028093490223
:1014C00056CF40914B0250914C025A8749878091E8
:1014D000490290914A029A8B898B20914702309160
:1014E00048023C8B2B8B141615060CF46AC0181698
:1014F00019060CF46FC0121613060CF074C04FE0FE
:1015000050E058874F8341EF242E33243A94809142
:101510003F0290914002988F8F8B0091450210916D
:101520004602289E9001299E300D389E300D1124D0
:101530003E8B2D8B8B899C89289EA001299E500D66
:10154000389E500D1124588B4F8749895A89249E03
:101550009001259E300D349E300D11243E872D873D
:1015600029853A85229DC001239D900D329D900DC5
:1015700011249C878B874F89588D452BE9F58B89E2
:101580009C89892BC9F529893A89232BA9F5498595
:101590005A85452B89F5C8010396909303028093E1
:1015A0000202069790934402809343028F819885AC
:1015B00090930102809300023092420220924102F5
:1015C00086C088E090E098878F8338EF232E3324FD
:1015D0003A949DCF2AE030E038872F8326EF222EE1
:1015E00033243A9494CF42E350E058874F839EECE3
:1015F000292E33243A948BCF2F8138854F89588DEB
:10160000249FB001259F700D349F700D1124600F31
:10161000711F072E000C880B990B0E94BE0D4B0109
:101620005C016D897E89600F711F072E000C880B8D
:10163000990B0E94BE0D698F7A8F8B8F9C8F8B893F
:101640009C89892B09F040C129893A89232B09F00B
:101650003BC149855A85452B09F036C120E030E071
:10166000A901C501B4010E94B80E20E030E0A90133
:101670000E94B80E20E030E0A9010E94B80E0E943E
:10168000240F6B01709303026093020220E030E0AC
:10169000A901698D7A8D8B8D9C8D0E94B80E20E0FA
:1016A00030E0A9010E94B80E20E030E0A9010E94BC
:1016B000B80E0E94240F7093440260934302D092AC
:1016C0000102C092000270934202609341028D8930
:1016D0009E89800F911F9E8B8D8B47E0429D9001CC
:1016E000439D300D11243AA329A349EF91014203F0
:1016F0004001439F900C112410E000E02F853889B1
:10170000B901330F880B990B0E94BE0D6B017C0150
:101710004D855E85BA01550F880B990B0E94BE0D51
:1017200020E030E040E450E40E945A0F698F7A8F45
:101730008B8F9C8F2B853C85B901330F880B990BC0
:101740000E94BE0D20E030E040E850E40E945A0FB5
:101750006D8F7E8F8F8F98A34D895E89BA01550F4B
:10176000880B990B0E94BE0D2B013C01A70196012D
:10177000C701B6010E94F90D9B01AC01C301B20182
:101780000E94B80E298D3A8D4B8D5C8D0E94B80E4B
:101790002D8D3E8D4F8D58A10E94B80E0E94240FB2
:1017A0006B0189A19AA1801B910B121413040CF0F8
:1017B0006EC1E0910002F0910102BF010E9451113F
:1017C0001C141D040CF033C1161617060CF028C1AA
:1017D0009B012F5F3F4F2830310514F030E020E0AF
:1017E000E0910202F091030257E05C9DC0015D9D13
:1017F000900D1124BF010E9451111616170654F4C2
:1018000069EFA6016403C001659F900D1124BF011B
:101810000E945111695F7F4FA90190E080E00E9412
:10182000D3048FEF281A380A2D893E894F89588DA5
:10183000240F351F3E8B2D8B8F8598892B893C89F2
:10184000820F931F988B8F874D855E8589899A8932
:10185000480F591F5E874D872B853C8549855A85E2
:10186000240F351F3C872B87075011098F819885DE
:10187000821593050CF042CF0E94CA034B015C0114
:1018800084ECC82E89E0D82EE12CF12C0E94CA03EA
:10189000681979098A099B09683E73408105910599
:1018A000A8F391E0C91AD108E108F10828EE820EE8
:1018B00023E0921EA11CB11CC114D104E104F10467
:1018C00029F70E940D03EACC8F8198852B893C89EA
:1018D000829FB001839F700D929F700D1124072E7F
:1018E000000C880B990B0E94BE0D6B017C014F818F
:1018F000588589899A89489FB001499F700D589FE2
:10190000700D1124072E000C880B990B0E94BE0D40
:1019100020E030E040E450E40E945A0F2B013C01EB
:1019200029853A854F815885249FB001259F700DE8
:10193000349F700D1124072E000C880B990B0E9408
:10194000BE0D20E030E040E850E40E945A0F6D8F59
:101950007E8F8F8F98A3A7019601C701B6010E94C1
:10196000F90DA50194010E94B80EA30192010E94F5
:10197000B80E2D8D3E8D4F8D58A10E94B80E0E943D
:10198000240F70930302609302022F853889B901F6
:10199000330F880B990B0E94BE0D6B017C014D85A6
:1019A0005E85BA01550F880B990B0E94BE0D20E091
:1019B00030E040E450E40E945A0F2B013C012B859B
:1019C0003C85B901330F880B990B0E94BE0D20E0B6
:1019D00030E040E850E40E945A0F4B015C01A7013F
:1019E0009601C701B6010E94F90D298D3A8D4B8DE4
:1019F0005C8D0E94B80EA30192010E94B80EA50151
:101A000094010E94B80E0E94240F709344026093C8
:101A100043024F8158855093010240930002CCCD80
:101A2000C401800F911FBF010E945111D1CE161623
:101A3000170634F59B012F5F3F4F2830310514F016
:101A400030E020E0E0914302F091440247E04C9DF9
:101A5000C0014D9D900D1124BF010E945111161619
:101A6000170654F069EFA6016403C001659F900D4D
:101A70001124BF010E945111A90183E090E0CFCE53
:101A8000C401800F911FBF010E945111D3CFE0917B
:101A90004102F0914202BF010E9451111C141D0429
:101AA0008CF51616170634F4C401800F911FBF0180
:101AB0000E9451119B01285F3F4F2830310514F0DF
:101AC00030E020E0E0910202F091030247E04C9DFB
:101AD000C0014D9D900D1124BF010E945111161699
:101AE000170654F469EFA6016403C001659F900DC9
:101AF0001124BF010E945111695F7F4FA90181E04C
:101B000090E08DCE1616170634F4C401800F911F95
:101B1000BF010E9451119B01285F3F4F28303105C2
:101B200014F030E020E0E0914302F091440247E0FD
:101B30004C9DC0014D9D900D1124BF010E9451117B
:101B4000161617068CF069EFA6016403C001659FA5
:101B5000900D1124BF010E9451116115710521F4EE
:101B60002115310509F45DCEA90182E090E057CE40
:101B700083E493E00C94F804E89409C097FB3EF4E6
:101B800090958095709561957F4F8F4F9F4F9923CA
:101B9000A9F0F92F96E9BB279395F6958795779548
:101BA0006795B795F111F8CFFAF4BB0F11F460FF08
:101BB0001BC06F5F7F4F8F4F9F4F16C0882311F060
:101BC00096E911C0772321F09EE8872F762F05C074
:101BD000662371F096E8862F70E060E02AF09A950F
:101BE000660F771F881FDAF7880F9695879597F904
:101BF00008950E940C0E0C947D0E0E946F0E38F01A
:101C00000E94760E20F0952311F00C94660E0C9431
:101C10006C0E11240C94B10E0E948E0E70F3959FE1
:101C2000C1F3950F50E0551F629FF001729FBB27D3
:101C3000F00DB11D639FAA27F00DB11DAA1F649F6F
:101C40006627B00DA11D661F829F2227B00DA11D22
:101C5000621F739FB00DA11D621F839FA00D611DA8
:101C6000221F749F3327A00D611D231F849F600DC9
:101C7000211D822F762F6A2F11249F5750409AF0F2
:101C8000F1F088234AF0EE0FFF1FBB1F661F771F7E
:101C9000881F91505040A9F79E3F510580F00C9449
:101CA000660E0C94B10E5F3FE4F3983ED4F3869534
:101CB00077956795B795F795E7959F5FC1F7FE2BE9
:101CC000880F911D9695879597F9089597F99F67C5
:101CD00080E870E060E008959FEF80EC08950024B4
:101CE0000A941616170618060906089500240A9481
:101CF00012161306140605060895092E0394000C07
:101D000011F4882352F0BB0F40F4BF2B11F460FF95
:101D100004C06F5F7F4F8F4F9F4F089557FD9058BE
:101D2000440F551F59F05F3F71F04795880F97FB9F
:101D3000991F61F09F3F79F0879508951216130659
:101D40001406551FF2CF4695F1DF08C01616170688
:101D50001806991FF1CF86957105610508940895BD
:101D6000E894BB2766277727CB0197F90895505849
:101D7000BB27AA270E94CF0E0C947D0E0E946F0EE7
:101D800038F00E94760E20F039F49F3F19F426F4C3
:101D90000C946C0E0EF4E095E7FB0C94660EE92FA4
:101DA0000E948E0E58F3BA176207730784079507CF
:101DB00020F079F4A6F50C94B00E0EF4E0950B2EFD
:101DC000BA2FA02D0B01B90190010C01CA01A0018D
:101DD0001124FF27591B99F0593F50F4503E68F1E8
:101DE0001A16F040A22F232F342F4427585FF3CF29
:101DF000469537952795A795F0405395C9F77EF4FA
:101E00001F16BA0B620B730B840BBAF09150A1F042
:101E1000FF0FBB1F661F771F881FC2F70EC0BA0FC8
:101E2000621F731F841F48F4879577956795B79550
:101E3000F7959E3F08F0B0CF9395880F08F099274B
:101E4000EE0F9795879508950E942B0F6894B11116
:101E50000C94B10E08950E94960E88F09F5798F04A
:101E6000B92F9927B751B0F0E1F0660F771F881F9F
:101E7000991F1AF0BA95C9F714C0B13091F00E94B9
:101E8000B00EB1E008950C94B00E672F782F88271C
:101E9000B85F39F0B93FCCF3869577956795B395E0
:101EA000D9F73EF490958095709561957F4F8F4F4F
:101EB0009F4F0895FA01EE0FFF1F3096210531055F
:101EC000A1F16115710561F48038BFE39B0749F109
:101ED00068949038810561F08038BFEF9B0741F02E
:101EE00099234AF5FF3FE1053105210519F1E894F1
:101EF0000894E795D901AA2329F4AB2FBE2FF85FE8
:101F0000D0F310C0FF5F70F4A695E0F7F73950F0FA
:101F100019F0FF3A38F49F779F930DD00F9007FC8C
:101F20009058089546F00C946C0E60E070E080E8E4
:101F30009FE308954FE79F775F934F933F932F93CE
:101F40000E9455102F913F914F915F910E94F90D82
:101F50000C94B20F29F416F00C94660E0C94B00E8B
:101F60000C946C0E0E94960EA8F39638A0F707F812
:101F70000F92E8942BE33AEA48EB5FE70E940F0EDA
:101F80000F920F920F924DB75EB70F920E949D1065
:101F9000E4EEF0E00E94E40F4F915F91EF91FF912A
:101FA000E595EE1FFF1F49F0FE57E0684427EE0F4E
:101FB000441FFA95E1F74195550B0E9417100F90B9
:101FC00007FE0C940B100895DF93CF931F930F938C
:101FD000FF92EF92DF927B018C01689406C0DA2EAB
:101FE000EF010E940C0EFE01E894A5912591359118
:101FF00045915591A6F3EF010E94CF0EFE01970186
:10200000A801DA9469F7DF90EF90FF900F911F918C
:10201000CF91DF9108959B01AC0160E070E080E812
:102020009FE30C94D1100C94660E0C9443110E9403
:10203000960ED8F39923C9F3940F511DA3F3915031
:10204000504094F059F0882332F0660F771F881FB4
:1020500091505040C1F79E3F51052CF7880F911DBC
:102060009695879597F908955F3FACF0983E9CF060
:10207000BB27869577956795B79508F4B1609395DA
:10208000C1F7BB0F58F711F460FFE8CF6F5F7F4FC8
:102090008F4F9F4FE3CF0C94B10E16F00C94431169
:1020A0000C946C0E68940C94660E0E94960EA8F325
:1020B0009923C1F3AEF3DF93CF931F930F93FF9256
:1020C000C92FDD2788232AF02197660F771F881FE5
:1020D000DAF720E030E040E85FEB9FE3883920F05A
:1020E000803E38F021968F770E94B80EECE0F1E048
:1020F00004C00E94B80EE9E3F1E00E94E40F8B01F6
:10210000BE01EC01FB2E6F5771097595771F880B87
:10211000990B0E94BE0D28E132E741E35FE30E9484
:102120000C0EAF2D9801AE01FF900F911F91CF9132
:10213000DF910E94CF0E0C947D0EFA01DC01AA0FF4
:10214000BB1F9B01AC01BF5728F42227332744272C
:10215000507820C0B75190F4AB2F002446953795A6
:102160002795011CA395D2F3002071F0220F331F95
:10217000441FB395DAF30ED00C94B70E613071059D
:10218000A0E88A07B94630F49B01AC01662777279F
:1021900088279078309621F02083318342835383BF
:1021A00008950E94E5100C947D0E0E94760E58F062
:1021B0000E946F0E40F029F45F3F29F00C94660EE8
:1021C00051110C94B10E0C946C0E0E948E0E68F39B
:1021D0009923B1F3552391F3951B550BBB27AA27E0
:1021E00062177307840738F09F5F5F4F220F331F1A
:1021F000441FAA1FA9F335D00E2E3AF0E0E832D0E2
:1022000091505040E695001CCAF72BD0FE2F29D0E4
:10221000660F771F881FBB1F261737074807AB07B6
:10222000B0E809F0BB0B802DBF01FF2793585F4F2B
:102230003AF09E3F510578F00C94660E0C94B10E66
:102240005F3FE4F3983ED4F3869577956795B7950D
:10225000F7959F5FC9F7880F911D9695879597F918
:102260000895E1E0660F771F881FBB1F6217730791
:102270008407BA0720F0621B730B840BBA0BEE1FA6
:1022800088F7E09508959F3F31F0915020F48795AD
:1022900077956795B795880F911D9695879597F9CE
:1022A000089597FB072E16F4009407D077FD09D008
:1022B0000E946D1107FC05D03EF4909581959F4FCB
:1022C0000895709561957F4F0895EE0FFF1F881F49
:1022D0008BBF0790F691E02D1994AA1BBB1B51E10F
:1022E00007C0AA1FBB1FA617B70710F0A61BB70B86
:1022F000881F991F5A95A9F780959095BC01CD012B
:1023000008950F931F93CF93DF938230910510F4BC
:1023100082E090E0E0914B03F0914C0330E020E04C
:10232000B0E0A0E0309799F42115310509F44AC0D6
:10233000281B390B24303105D8F58A819B81611522
:10234000710589F1FB0193838283FE0111C04081F5
:1023500051810281138148175907E0F04817590746
:1023600099F4109761F012960C93129713961C93A0
:102370003296CF01DF91CF911F910F910895009375
:102380004B0310934C03F4CF2115310551F0421744
:10239000530738F0A901DB019A01BD01DF01F80103
:1023A000C1CFEF01F9CF90934C0380934B03CDCF76
:1023B000FE01E20FF31F819391932250310939837B
:1023C0002883D7CF2091490330914A03232B41F42E
:1023D000209106023091070230934A03209349036B
:1023E00020910402309105022115310541F42DB7E9
:1023F0003EB74091080250910902241B350BE09131
:102400004903F0914A03E217F307A0F42E1B3F0B98
:102410002817390778F0AC014E5F5F4F2417350756
:1024200048F04E0F5F1F50934A0340934903819336
:1024300091939FCFF0E0E0E09CCFCF93DF930097A4
:10244000E9F0FC01329713821282A0914B03B09104
:102450004C03ED0130E020E01097A1F420813181A0
:10246000820F931F2091490330914A03281739079F
:1024700009F061C0F0934A03E0934903DF91CF91E3
:102480000895EA01CE17DF07E8F54A815B819E01D6
:1024900041155105B1F7E901FB83EA83499159914F
:1024A000C40FD51FEC17FD0761F48081918102965E
:1024B000840F951FE90199838883828193819B838F
:1024C0008A83F0E0E0E012968D919C91139700973B
:1024D000B9F52D913C911197CD010296820F931F72
:1024E0002091490330914A032817390739F630976C
:1024F00051F510924C0310924B03B0934A03A093F2
:102500004903BCCFD383C28340815181840F951F7F
:10251000C817D90761F44E5F5F4F88819981480FD2
:10252000591F518340838A819B8193838283211524
:10253000310509F0B0CFF0934C03E0934B039ECFED
:10254000FD01DC01C0CF13821282D7CF4F925F9280
:102550006F927F928F929F92AF92BF92CF92DF92B3
:10256000EF92FF920F931F93CF93DF938C0100970D
:1025700099F4CB01DF91CF911F910F91FF90EF90D4
:10258000DF90CF90BF90AF909F908F907F906F9093
:102590005F904F900C948111FC01E60FF71F9C0196
:1025A00022503109E217F30708F4AEC0D901CD91EA
:1025B000DC911197C617D70720F1C530D10578F007
:1025C000CE0104978617970750F0C61BD70B2297AA
:1025D000C193D1936D937C93CF010E941D12C801CA
:1025E000DF91CF911F910F91FF90EF90DF90CF90EF
:1025F000BF90AF909F908F907F906F905F904F9023
:1026000008955B01AC1ABD0A4C018C0E9D1EA09171
:102610004B03B0914C03512C412CF12CE12C109721
:1026200031F58091490390914A038815990509F085
:102630005CC04616570608F058C08091040290917D
:102640000502009741F48DB79EB740910802509162
:102650000902841B950BE817F90708F055C0F093A1
:102660004A03E0934903F90171836083B8CF8D91E8
:102670009C91119712966C90129713967C901397D9
:10268000A815B90559F56C0142E0C40ED11CCA1455
:10269000DB0420F1AC014A195B09DA0112961597A7
:1026A00080F06282738251834083D9016D937C9361
:1026B000E114F10471F0D7011396FC93EE93129795
:1026C0008ECF22968C0F9D1FF90191838083F30199
:1026D000EFCFF0934C03E0934B0381CF481659069C
:1026E00008F42C017D01D3019ACFCB010E94811106
:1026F0007C01009749F0AE01B8010E948713C80120
:102700000E941D1287016BCF10E000E068CFFB0133
:10271000DC0102C001900D9241505040D8F708955D
:10272000FB01DC0101900D920020E1F7089511E01A
:10273000C1EAD1E000E006C0802FFE010E946511D1
:102740002196011DC23AD10780E00807A9F7F89445
:10275000FFCF0800080000004D03800000000000CB
:10276000A0020A023702ED02680246025A023578D8
:102770005E342D3136785E332B33785E322B3478ED
:042780002B393900B8
:020000040003F7
:10E000000D9489F10D94B2F10D94B2F10D94B2F129
:10E010000D94B2F10D94B2F10D94B2F10D94B2F1F0
:10E020000D94B2F10D94B2F10D94B2F10D94B2F1E0
:10E030000D94B2F10D94B2F10D94B2F10D94B2F1D0
:10E040000D94B2F10D94B2F10D94B2F10D94B2F1C0
:10E050000D94B2F10D94B2F10D94B2F10D94B2F1B0
:10E060000D94B2F10D94B2F10D94B2F10D94B2F1A0
:10E070000D94B2F10D94B2F10D94B2F10D94B2F190
:10E080000D94B2F10D94B2F10D94B2F10D94B2F180
:10E090000D94B2F10D94B2F10D94B2F10D94B2F170
:10E0A0000D94B2F10D94B2F10D94B2F10D94B2F160
:10E0B0000D94B2F10D94B2F10D94B2F10D94B2F150
:10E0C0000D94B2F10D94B2F10D94B2F10D94B2F140
:10E0D0000D94B2F10D94B2F10D94B2F10D94B2F130
:10E0E0000D94B2F141546D656761323536300041AF
:10E0F000726475696E6F206578706C6F72657220DE
:10E1000073746B3530305632206279204D4C530099
:10E11000426F6F746C6F616465723E004875683F52
:10E1200000436F6D70696C6564206F6E203D200048
:10E130004350552054797065202020203D20005FF9
:10E140005F4156525F415243485F5F3D2000415658
:10E1500052204C696243205665723D20004743437C
:10E160002056657273696F6E203D20004350552024
:10E1700049442020202020203D20004C6F7720663D
:10E18000757365202020203D20004869676820665F
:10E190007573652020203D200045787420667573D6
:10E1A00065202020203D20004C6F636B2066757336
:10E1B000652020203D20004D617220203720323024
:10E1C000313300312E362E3800342E332E350056A2
:10E1D00023202020414444522020206F7020636F70
:10E1E00064652020202020696E73747275637469E1
:10E1F0006F6E2061646472202020496E74657272B3
:10E20000757074006E6F20766563746F7200726A49
:10E210006D702020006A6D70200057686174207056
:10E220006F72743A00506F7274206E6F7420737541
:10E2300070706F72746564004D7573742062652030
:10E2400061206C6574746572002000577269747483
:10E25000696E672045450052656164696E672045B7
:10E26000450045452065727220636E743D00504F35
:10E27000525400303D5A65726F2061646472003FF1
:10E280003D43505520737461747300403D454550C3
:10E29000524F4D207465737400423D426C696E6B41
:10E2A000204C454400453D44756D70204545505215
:10E2B0004F4D00463D44756D7020464C415348001B
:10E2C000483D48656C70004C3D4C69737420492F83
:10E2D0004F20506F72747300513D51756974005234
:10E2E0003D44756D702052414D00563D73686F7707
:10E2F00020696E7465727275707420566563746FF0
:10E30000727300593D506F727420626C696E6B00BD
:10E310002A0011241FBECFEFD1E2DEBFCDBF01E046
:10E320000CBF12E0A0E0B2E0EEE1FDEF03E00BBFB6
:10E3300002C007900D92A030B107D9F712E0A0E01B
:10E34000B2E001C01D92AE30B107E1F70F9460F367
:10E350000D948DFE01E20EBF0FEF0DBF11241FBE05
:10E360000D9460F30D9400F020E030E040ED57E0B4
:10E3700005C0FA013197F1F72F5F3F4F2817390792
:10E38000C0F308959C01260F311DC901A0E0B0E043
:10E390002F5F3F4FABBFFC018791882361F08093D3
:10E3A000C6008091C00086FFFCCF8091C0008064D1
:10E3B0008093C000EACF08958DE08093C6008091DD
:10E3C000C00086FFFCCF8091C00080648093C000B5
:10E3D0008AE08093C6008091C00086FFFCCF8091C8
:10E3E000C00080648093C00008950F94C2F10F9420
:10E3F000DCF10895FC019081992359F09093C600B7
:10E400008091C00086FFFCCF8091C0008064809323
:10E41000C0003196992379F70895282F982F929567
:10E420009F70892F805D8A3308F0895F8093C600D2
:10E430008091C00086FFFCCF8091C00080648093F3
:10E44000C000822F8F70982F905D9A3308F0995FEB
:10E450009093C6008091C00086FFFCCF8091C000E1
:10E4600080648093C00008959C01FB01853691056E
:10E470001CF46330710594F0C90164E670E00F94F8
:10E480002EFE605D7F4F6093C6008091C00086FFC6
:10E49000FCCF8091C00080648093C0002B30310598
:10E4A00014F43297B4F0C90164E670E00F942EFEC4
:10E4B0006AE070E00F942EFE605D7F4F6093C600AF
:10E4C0008091C00086FFFCCF8091C0008064809363
:10E4D000C000C9016AE070E00F942EFEC0968093E0
:10E4E000C6008091C00086FFFCCF8091C000806490
:10E4F0008093C00008951F93182F8EE692EE60E07F
:10E500000F94C2F11093C6008091C00086FFFCCF2B
:10E510008091C00080648093C0000F94DCF11F9153
:10E5200008952F923F924F925F926F927F928F92B7
:10E530009F92AF92BF92CF92DF92EF92FF920F9392
:10E540001F93DF93CF93CDB7DEB762970FB6F894E2
:10E55000DEBF0FBECDBF382E622ECA01DB015C01CB
:10E560006D01772420E2222E2E010894411C511CBB
:10E570008BC081E0A81680E0B80681E0C80680E084
:10E58000D80628F0C601AA27BB270F940DF2BB2797
:10E59000AD2D9C2D8B2D0F940DF28A2D0F940DF225
:10E5A0002092C6008091C00086FFFCCF8091C00001
:10E5B00080648093C0009DE29093C6008091C0006B
:10E5C00086FFFCCF8091C00080648093C0002092C1
:10E5D000C6008091C00086FFFCCF8091C00080649F
:10E5E0008093C00019828601750188249924A1E0D6
:10E5F0003A1651F03A1620F0B2E03B1661F409C029
:10E600000BBFF701779007C0C7010F9477FE782EF4
:10E6100002C0F7017080872D0F940DF22092C60082
:10E620008091C00086FFFCCF8091C0008064809301
:10E63000C000872D8052F401EF70F0708F3520F408
:10E64000E40DF51D708204C0E40DF51D8EE280839B
:10E650000894E11CF11C011D111D0894811C911CE2
:10E6600090E18916910409F0C2CF80E190E0A0E02A
:10E67000B0E0A80EB91ECA1EDB1E198AC2010F9493
:10E68000FAF10F94DCF16A94662009F072CF629679
:10E690000FB6F894DEBF0FBECDBFCF91DF911F91B3
:10E6A0000F91FF90EF90DF90CF90BF90AF909F9031
:10E6B0008F907F906F905F904F903F902F90089534
:10E6C0002F923F924F925F926F927F928F929F9282
:10E6D000AF92BF92CF92DF92EF92FF920F931F9370
:10E6E000DF93CF93CDB7DEB7CD53D1400FB6F894BB
:10E6F000DEBF0FBECDBF01E20EBF0FEF0DBF94B75F
:10E70000F894A89514BE80916000886180936000A1
:10E7100010926000789493FF05C0E0910002F091A0
:10E7200001021995279A2F9A8091C00082608093E8
:10E73000C00080E18093C40088E18093C1000000A4
:10E74000EE24FF24870144E0A42EB12CCC24DD2448
:10E7500024C0C5010197F1F70894E11CF11C011DCB
:10E76000111D21E2E2162EE4F20620E0020720E06D
:10E77000120718F031E0C32ED12CC801B70127ECE5
:10E780003BE140E050E00F9441FE611571058105C9
:10E79000910519F485B1805885B98091C00087FD35
:10E7A00003C0C114D104A9F2A6014F5F5F4FC25E3E
:10E7B000DE4F59834883CE51D140C25EDE4F8881FF
:10E7C0009981CE51D140019711F00D9410FEC05D9A
:10E7D000DE4F19821882C053D14060E0C15DDE4F28
:10E7E0001882CF52D14088249924C35DDE4F19820C
:10E7F0001882CD52D140C05EDE4F188219821A8233
:10E800001B82C052D140CE5CDE4F188219821A8220
:10E810001B82C253D140EE24FF2487010BBFF701B6
:10E8200007911691C45CDE4F19830883CC53D14005
:10E830000D940BFEC25EDE4F28813981CE51D1404E
:10E840002130310509F52091C600C25EDE4F1982E4
:10E850001882CE51D14022C02F5F3F4F4F4F5F4FA4
:10E86000213082E138078AE7480780E0580780F0C6
:10E87000C45CDE4FE881F981CC53D140EF5FFF4F9C
:10E8800019F0EE27FF27099420E030E040E050E047
:10E890008091C00087FFE0CF2091C600C35DDE4FAE
:10E8A00048815981CD52D1404F5F5F4FC35DDE4FEC
:10E8B00059834883CD52D140213209F063C64A3092
:10E8C000510508F05FC60894811C911C53E0851621
:10E8D000910409F059C600E010E018C081E280936D
:10E8E000C6008091C00086FFFCCF8091C00080648C
:10E8F0008093C0002F5F3F4F2931310579F70F9486
:10E90000DCF10F5F1F4F0530110519F020E030E0FA
:10E91000E5CF10920A0210920B0210920C02109294
:10E920000D02109206021092070210920802109235
:10E930000902109202021092030210920402109235
:10E9400005028FEE90EE60E00F94F5F180E191EE1C
:10E9500060E00F94C2F18091C00087FFFCCF9091DE
:10E96000C600903608F09F759032B8F09093C600BC
:10E970008091C00086FFFCCF8091C00080648093AE
:10E98000C000A0E2A093C6008091C00086FFFCCF2B
:10E990008091C00080648093C000983409F4D7C18E
:10E9A0009934B8F4923409F459C1933458F490333B
:10E9B00019F1903308F4E3C59F33A1F1903409F0C5
:10E9C000DEC5BDC0953409F470C1963409F0D7C5D1
:10E9D00098C1923509F42BC2933538F49C3409F46C
:10E9E000F5C1913509F0CBC518C2963509F445C279
:10E9F000993509F0C4C567C483E792EE62E00F94CD
:10EA0000F5F110920602109207021092080210927D
:10EA1000090210920A0210920B0210920C0210923C
:10EA20000D0213C18FE792EE62E00F94F5F18FEEC5
:10EA300090EE60E00F94F5F181E291EE60E00F94CA
:10EA4000C2F187EB91EE60E00F94F5F180E391EE77
:10EA500060E00F94C2F184EE90EE60E00F94F5F167
:10EA60008FE391EE60E00F94C2F186E090E061E008
:10EA700070E00F9434F20F94DCF18DE591EE60E0DC
:10EA80000F94C2F189EC91EE60E00F94F5F18EE401
:10EA900091EE60E00F94C2F183EC91EE60E00F9490
:10EAA000F5F18CE691EE60E00F94C2F18EE10F94E7
:10EAB0000DF288E90F940DF281E00F940DF20F949E
:10EAC000DCF18BE791EE60E00F94C2F119E0E0E039
:10EAD000F0E010935700E4918E2F0F940DF20F94F5
:10EAE000DCF18AE891EE60E00F94C2F1E3E0F0E03F
:10EAF00010935700E4918E2F0F940DF20F94DCF1D8
:10EB000089E991EE60E00F94C2F1E2E0F0E0109349
:10EB10005700E4918E2F0F940DF20F94DCF188EAE8
:10EB200091EE60E00F94C2F1E1E0F0E01093570045
:10EB30001491812F0F940DF20F94DCF107CF8BE825
:10EB400092EE62E00F94F5F18BE492EE60E00F94A8
:10EB5000F5F10F94DCF100E010E019C0C8016F2D51
:10EB60000F947FFEFF2031F489E492EE60E00F9471
:10EB7000C2F10BC0F092C6008091C00086FFFCCFAE
:10EB80008091C00080648093C0000F5F1F4FC80158
:10EB900081519F41A0E0B0E0ABBFFC01F790BAE229
:10EBA000FB1621F0E2E000301E07C1F60F94DCF105
:10EBB0000F94DCF187E592EE60E00F94F5F10F948D
:10EBC000DCF1CC24DD2400E010E01EC0C8010F946D
:10EBD00077FEF82E882331F489E492EE60E00F94FA
:10EBE000C2F10BC08093C6008091C00086FFFCCFAD
:10EBF0008091C00080648093C000FE1419F00894D6
:10EC0000C11CD11C0F5F1F4FC80181519F41A0E063
:10EC1000B0E0ABBFFC01E790FAE2EF1621F022E092
:10EC20000030120799F60F94DCF10F94DCF182E6C4
:10EC300092EE60E00F94C2F1C60161E070E00F94C3
:10EC400034F20F94DCF10F94DCF110920202109276
:10EC50000302109204021092050278CE89E992EE26
:10EC600062E00F94F5F1279A2F9A16C02F9880E052
:10EC700090E0E0EDF7E03197F1F7019684369105E9
:10EC8000C1F72F9A80E090E0E0EDF7E03197F1F7DF
:10EC9000019684369105C1F78091C00087FFE6CFC9
:10ECA0008091C00087FFFCCF64C485EA92EE62E0E9
:10ECB0000F94F5F140910202509103026091040219
:10ECC0007091050281E020E10F9491F2809102029F
:10ECD00090910302A0910402B091050280509F4FD1
:10ECE000AF4FBF4F8093020290930302A0930402A0
:10ECF000B093050280509041A040B04008F426CE69
:10ED0000A4CF83EB92EE62E00F94F5F140910602FE
:10ED100050910702609108027091090280E020E1A1
:10ED20000F9491F28091060290910702A09108023F
:10ED3000B091090280509F4FAF4FBF4F80930602A2
:10ED400090930702A0930802B0930902FFCD80ECD4
:10ED500092EE62E00F94F5F183E792EE60E00F949B
:10ED6000F5F18FE792EE60E00F94F5F18BE892EE0B
:10ED700060E00F94F5F189E992EE60E00F94F5F10F
:10ED800085EA92EE60E00F94F5F183EB92EE60E09D
:10ED90000F94F5F180EC92EE60E00F94F5F187ECC2
:10EDA00092EE60E00F94F5F188ED92EE60E00F9442
:10EDB000F5F18FED92EE60E00F94F5F18AEE92EEB0
:10EDC00060E00F94F5F183E093EEBDCD87EC92EE19
:10EDD00062E00F94F5F181E40F947BF282E40F94EA
:10EDE0007BF283E40F947BF284E40F947BF285E45E
:10EDF0000F947BF286E40F947BF287E40F947BF20E
:10EE000088E40F947BF28AE40F947BF28BE40F94F6
:10EE10007BF28CE40F947BF299CD88ED92EE62E068
:10EE20000F94F5F1772473948824992409C48FED05
:10EE300092EE62E00F94F5F140910A0250910B02BC
:10EE400060910C0270910D0282E020E10F9491F22A
:10EE500080910A0290910B02A0910C02B0910D02D8
:10EE600080509F4FAF4FBF4F80930A0290930B0289
:10EE7000A0930C02B0930D0269CD8AEE92EE62E08F
:10EE80000F94F5F184EE90EE60E00F94F5F18FECC5
:10EE900091EE60E00F94F5F1662477244301CC5D98
:10EEA000DE4F19821882C452D140D401C301B695F5
:10EEB000A79597958795CA5DDE4F88839983AA8326
:10EEC000BB83C652D140CC5DDE4FA881B981C4520C
:10EED000D1401196CC5DDE4FB983A883C452D14096
:10EEE000CD0162E070E00F9434F2B0E2B093C6005E
:10EEF0008091C00086FFFCCF8091C0008064809329
:10EF0000C000EDE2E093C6008091C00086FFFCCF18
:10EF10008091C00080648093C000F0E2F093C6004E
:10EF20008091C00086FFFCCF8091C00080648093F8
:10EF3000C000CA5DDE4FE880F9800A811B81C6529D
:10EF4000D140BB27A12F902F8F2D0F940DF2CA5DBA
:10EF5000DE4F8881C652D1400F940DF2B0E2FB2EF5
:10EF6000F092C6008091C00086FFFCCF8091C00067
:10EF700080648093C0000DE30093C6008091C000C0
:10EF800086FFFCCF8091C00080648093C00010E2B7
:10EF90001093C6008091C00086FFFCCF8091C00016
:10EFA00080648093C0008BBEF3012791C65DDE4F65
:10EFB0002883CA52D140A22EBB24CC24DD2408943D
:10EFC000611C711C811C911C8BBEF3018791282E42
:10EFD0003324442455240894611C711C811C911C09
:10EFE0008BBEF3013791C55DDE4F3883CB52D140E4
:10EFF0000894611C711C811C911C8BBEF30147910C
:10F00000C45DDE4F4883CC52D140ADEFEA2EAFEF66
:10F01000FA2EAFEF0A2FAFEF1A2F6E0C7F1C801E57
:10F02000911E142D032DF22CEE24EA0CFB1C0C1D5A
:10F030001D1D0F940DF220E22093C6008091C000A8
:10F0400086FFFCCF8091C00080648093C000C65DC5
:10F05000DE4F8881CA52D1400F940DF230E23093D6
:10F06000C6008091C00086FFFCCF8091C000806404
:10F070008093C000C45DDE4F8881CC52D1400F9494
:10F080000DF240E24093C6008091C00086FFFCCFA5
:10F090008091C00080648093C000C55DDE4F888190
:10F0A000CB52D1400F940DF250E25093C6008091A4
:10F0B000C00086FFFCCF8091C00080648093C000B8
:10F0C0008FEFE8168FEFF80680E0080780E018075A
:10F0D00031F484E092EE60E00F94C2F1DFC0D80119
:10F0E000C7018070907CA070B0708050904CA040A0
:10F0F000B040D1F52FEF3FE340E050E0E222F322B1
:10F1000004231523CA5DDE4FA880B980CA80DB8046
:10F11000C652D140AE0CBF1CC01ED11EAA0CBB1CD7
:10F12000CC1CDD1C8EE092EE60E00F94C2F1BB2798
:10F13000A12F902F8F2D0F940DF28E2D0F940DF285
:10F1400030E23093C6008091C00086FFFCCF8091F2
:10F15000C00080648093C0004EE34093C60080915D
:10F16000C00086FFFCCF87C08EE09EEFA0E0B0E03D
:10F17000E822F9220A231B239CE0E91694E9F90608
:10F1800090E0090790E0190709F088C0C45DDE4FE0
:10F19000A881CC52D140EA2EFF2400E010E0102FCD
:10F1A0000F2DFE2CEE24C55DDE4FB881CB52D14031
:10F1B000EB0EF11C011D111DD601C501817090706F
:10F1C000A070B070DC0199278827E80EF91E0A1F8D
:10F1D0001B1F20EF30E040E050E0A222B322C42207
:10F1E000D52241E1AA0CBB1CCC1CDD1C4A95D1F7F1
:10F1F000EA0CFB1C0C1D1D1D81E090E0A0E0B0E0BE
:10F20000282239224A225B2235E1220C331C441C7D
:10F21000551C3A95D1F7E20CF31C041D151D57013E
:10F220006801AA0CBB1CCC1CDD1C85E192EE60E0E1
:10F230000F94C2F1C801AA27BB270F940DF2BB2778
:10F24000A12F902F8F2D0F940DF28E2D0F940DF274
:10F2500090E29093C6008091C00086FFFCCF809121
:10F26000C00080648093C000AEE3A093C60080918C
:10F27000C00086FFFCCF8091C00080648093C000F6
:10F28000C601AA27BB270F940DF2BB27AD2D9C2DDD
:10F290008B2D0F940DF28A2D0F940DF20F94DCF14B
:10F2A000CC5DDE4FE881F981C452D140F99709F471
:10F2B0004DCBF4E0EF2EF12C012D112D6E0C7F1CA7
:10F2C000801E911EF2CD83E093EE62E00F94F5F183
:10F2D0008AE192EE60E00F94C2F18091C00087FF56
:10F2E000FCCF1091C6001F751093C6008091C0001E
:10F2F00086FFFCCF8091C00080648093C0000F9493
:10F30000DCF1812F81548A3108F036C1163409F4BA
:10F3100095C0173490F4133409F44EC0143430F40B
:10F320001134F1F0123409F01DC130C0143409F465
:10F3300059C0153409F016C16BC01A3409F4C4C0A1
:10F340001B3438F4173409F48FC0183409F00AC19B
:10F35000A1C01B3409F4D2C01C3409F003C1E8C0B9
:10F360008FEF81B90DC082B1809582B980E090E0C5
:10F37000E0EDF7E03197F1F70196883C9105C1F790
:10F380008091C00087FFEFCF12B8EFC08FEF84B934
:10F390000DC085B1809585B980E090E0E0EDF7E0A3
:10F3A0003197F1F70196883C9105C1F78091C00033
:10F3B00087FFEFCF15B8D9C08FEF87B90DC088B1DF
:10F3C000809588B980E090E0E0EDF7E03197F1F7C3
:10F3D0000196883C9105C1F78091C00087FFEFCF6F
:10F3E00018B8C3C08FEF8AB90DC08BB180958BB9A7
:10F3F00080E090E0E0EDF7E03197F1F70196883C8E
:10F400009105C1F78091C00087FFEFCF1BB8ADC059
:10F410008FEF8DB90DC08EB180958EB980E090E0F0
:10F42000E0EDF7E03197F1F70196883C9105C1F7DF
:10F430008091C00087FFEFCF1EB897C08FEF80BBD1
:10F440000DC081B3809581BB80E090E0E0EDF7E0F6
:10F450003197F1F70196883C9105C1F78091C00082
:10F4600087FFEFCF11BA81C08FEF83BB0DC084B38C
:10F47000809584BB80E090E0E0EDF7E03197F1F714
:10F480000196883C9105C1F78091C00087FFEFCFBE
:10F4900014BA6BC08FEF809301010FC080910201FD
:10F4A00080958093020180E090E0E0EDF7E03197F5
:10F4B000F1F70196883C9105C1F78091C00087FF64
:10F4C000EDCF1092020151C08FEF809304010FC065
:10F4D0008091050180958093050180E090E0E0ED4A
:10F4E000F7E03197F1F70196883C9105C1F78091DB
:10F4F000C00087FFEDCF1092050137C08FEF8093DA
:10F5000007010FC08091080180958093080180E079
:10F5100090E0E0EDF7E03197F1F70196883C910536
:10F52000C1F78091C00087FFEDCF109208011DC088
:10F530008FEF80930A010FC080910B01809580931B
:10F540000B0180E090E0E0EDF7E03197F1F70196F4
:10F55000883C9105C1F78091C00087FFEDCF1092E4
:10F560000B0103C085E292EEEEC98091C00087FFD7
:10F57000FCCF8091C600EAC988E392EEE4C98CE131
:10F5800091EEE1C988249924933011F1943028F444
:10F59000913089F09230B8F408C0953061F195301F
:10F5A000F0F0963009F048C043C02B3109F042C951
:10F5B00091E06BE13FC96227C15DDE4F2883CF52E6
:10F5C000D14092E037C9B22FA0E0622793E032C960
:10F5D000822F90E0A82BB92B622794E02BC92E3004
:10F5E00009F039C3622795E0C05DDE4F19821882A9
:10F5F000C053D1401FC9E1E0F0E0EC0FFD1FC05D3A
:10F60000DE4F08811981C053D140E00FF11F2083E4
:10F610000F5F1F4FC05DDE4F19830883C053D14079
:10F6200062270A171B0709F005C9D80196E002C92D
:10F63000261709F010C303C0973009F0FBC87724E0
:10F640009981933109F412C19431C8F4963009F4C8
:10F65000D8C0973050F4923009F406C1933009F4C1
:10F660006DC0913009F059C253C0913109F477C08F
:10F67000923108F0BBC0903109F04FC2F5C098310B
:10F6800009F487C0993150F4953109F4EFC09531F0
:10F6900008F4C6C1963109F040C2C2C19A3109F4DA
:10F6A0006CC09A3108F491C09B3109F45BC09D3164
:10F6B00009F033C29D81903359F48F81882311F46E
:10F6C0009EE11CC0813011F091E018C098E916C08D
:10F6D000892F807591F0903539F4E0E0F0E089E011
:10F6E0008093570094910AC0983539F4E3E0F0E034
:10F6F00089E080935700949101C090E01A821B82A8
:10F700008D818C831D829E831F8227E030E009C299
:10F710001A8288E08B8381E48C8386E58D8382E581
:10F720008E8389E48F8383E5888780E589878FE5E9
:10F730008A8782E38B872BE030E0F3C18A818139AD
:10F7400041F0823941F0803911F48FE005C080E04A
:10F7500003C082E001C08AE01A828B8344C0772410
:10F76000739482C08D81882311F48EE12CC0813086
:10F7700011F081E028C088E926C01A82E1E0F0E0BB
:10F7800089E08093570084918B831C8224E030E0D1
:10F79000C8C18B81803589F48C81883039F4E2E0EE
:10F7A000F0E089E08093570084910DC0E0E0F0E044
:10F7B00089E080935700849106C0E3E0F0E089E09F
:10F7C0008093570084911A82DFCF8D81836C99E0FA
:10F7D000E1E0F0E0082E90935700E89507B600FCB2
:10F7E000FDCF1A821B8223E030E09BC180EC8A832C
:10F7F000CE5CDE4F188219821A821B82C253D1401E
:10F800008EC18A8190E0A0E0B0E0582F44273327D2
:10F8100022278B8190E0A0E0B0E0DC0199278827C7
:10F82000282B392B4A2B5B2B8D8190E0A0E0B0E098
:10F83000282B392B4A2B5B2B8C8190E0A0E0B0E089
:10F84000BA2FA92F982F8827282B392B4A2B5B2BCF
:10F85000220F331F441F551FC05EDE4F288339839C
:10F860004A835B83C052D1401A8259C13A81C95C34
:10F87000DE4F3883C753D140CA5CDE4F1882C6536F
:10F88000D1408B81C82EDD24CA5CDE4F488159816E
:10F89000C653D140C42AD52A933109F082C0CE5C28
:10F8A000DE4F88819981AA81BB81C253D1408050AB
:10F8B000904CA340B04030F583E0CE5CDE4FE88052
:10F8C000F9800A811B81C253D140F70100935B008C
:10F8D00080935700E89507B600FCFDCFCE5CDE4F65
:10F8E000088119812A813B81C253D14000501F4FAA
:10F8F0002F4F3F4FCE5CDE4F088319832A833B8313
:10F90000C253D140C05EDE4F488159816A817B81FC
:10F91000C052D140DE011B9631E08C9111962C91A2
:10F9200011971296C75CDE4F2883C953D140C85C3B
:10F93000DE4F1882C853D14090E0C85CDE4FE881AA
:10F94000F981C853D1408E2B9F2B0C01FA01609393
:10F950005B0030935700E89511244E5F5F4F6F4F67
:10F960007F4F0EEFE02E0FEFF02ECE0CDF1CC114F8
:10F97000D10499F685E0C05EDE4F088119812A81A5
:10F980003B81C052D140F80120935B008093570027
:10F99000E89507B600FCFDCF81E180935700E8951C
:10F9A00035C0C05EDE4F88819981AA81BB81C0527B
:10F9B000D140B695A795979587957C018601ABE0D8
:10F9C000AA2EB12CAC0EBD1E0BC0D5016D915D01F0
:10F9D000C7010F947FFE0894E11CF11C01501040F8
:10F9E0000115110591F7A60160E070E0440F551F65
:10F9F000661F771FC05EDE4FE880F9800A811B8199
:10FA0000C052D1404E0D5F1D601F711F1A82C05E33
:10FA1000DE4F488359836A837B83C052D1407FC0C5
:10FA2000FA80C55CDE4FF882CB53D140C65CDE4F16
:10FA30001882CA53D1408B81C82EDD24C65CDE4FAC
:10FA400008811981CA53D140C02AD12A1A828981DA
:10FA5000BE016D5F7F4F843121F59601C05EDE4FA0
:10FA6000E880F9800A811B81C052D1400BBFF701A9
:10FA700087919691DB018C9311969C936E5F7F4FDB
:10FA8000D801C7010296A11DB11DC05EDE4F88835B
:10FA90009983AA83BB83C052D14022503040F1F6F3
:10FAA00036C0C05EDE4F288139814A815B81C052F9
:10FAB000D1400894C108D108760100E010E0089414
:10FAC000C11CD11C0894E11CF11C011D111DE20E8A
:10FAD000F31E041F151F21BDBB27A52F942F832FB5
:10FAE00082BD2F5F3F4F4F4F5F4FF89A80B5DB01CC
:10FAF0008D93BD012E153F054007510761F7C05E8C
:10FB0000DE4F288339834A835B83C052D1409601FC
:10FB10002D5F3F4FFB01108204C080EC8A8322E0FE
:10FB200030E08BE18093C6008091C00086FFFCCF5F
:10FB30008091C00080648093C000C15DDE4FF88179
:10FB4000CF52D140F093C6008091C00086FFFCCF19
:10FB50008091C00080648093C000432F3093C60022
:10FB60008091C00086FFFCCF8091C00080648093AC
:10FB7000C000922F2093C6008091C00086FFFCCF6A
:10FB80008091C00080648093C0008EE08093C600A6
:10FB90008091C00086FFFCCF8091C000806480937C
:10FBA000C00065E1C15DDE4FE880CF52D1406E25D7
:10FBB00069276427FE01319610C090819093C6009A
:10FBC0008091C00086FFFCCF31968091C000806498
:10FBD0008093C0006927215030402115310569F715
:10FBE0006093C6008091C00086FFFCCF8091C0006A
:10FBF00080648093C00085B1805885B9772081F4F6
:10FC0000C15DDE4F0881CF52D1400F5FC15DDE4F35
:10FC10000883CF52D14090E0A0E0B0E00D941AF4F8
:10FC200027982F9880E090E020ED37E0F901319798
:10FC3000F1F7019684369105C9F700008091C00064
:10FC40008D7F8093C00081E180935700E895EE2777
:10FC5000FF270994FFCF90E00D941AF497FB092E2B
:10FC600007260AD077FD04D02ED006D000201AF443
:10FC7000709561957F4F0895F6F7909581959F4F08
:10FC80000895A1E21A2EAA1BBB1BFD010DC0AA1FDD
:10FC9000BB1FEE1FFF1FA217B307E407F50720F0F5
:10FCA000A21BB30BE40BF50B661F771F881F991F70
:10FCB0001A9469F760957095809590959B01AC01B9
:10FCC000BD01CF010895AA1BBB1B51E107C0AA1FAC
:10FCD000BB1FA617B70710F0A61BB70B881F991FED
:10FCE0005A95A9F780959095BC01CD010895F99991
:10FCF000FECF92BD81BDF89A992780B50895262F31
:10FD0000F999FECF1FBA92BD81BD20BD0FB6F89400
:0EFD1000FA9AF99A0FBE01960895F894FFCF63
:00000001FF
